:020000040800F2
:1000000038E8002009030008496A0008754800081C
:1000100095680008C91D0008B971000800000000BB
:100020000000000000000000000000003D02000889
:10003000611F00080000000081020008CB6C00086E
:10004000230300082303000823030008896B00082A
:1000500023030008230300082303000823030008E8
:1000600023030008230300082303000823030008D8
:1000700023030008230300082303000823030008C8
:100080002303000823030008291A0008230300089B
:1000900023030008230300082303000823030008A8
:1000A000230300086D6D00082303000823030008E4
:1000B00023030008796D0008230300082549000880
:1000C000194900082303000823030008230300083C
:1000D00023030008F170000823030008FD700008E6
:1000E0002303000823030008230300082303000858
:1000F0002303000823030008230300082303000848
:100100002303000823030008230300082303000837
:100110002303000823030008230300082303000827
:100120002303000823030008230300082303000817
:1001300000F002F800F072F80AA090E8000C824487
:100140008344AAF10107DA4501D100F067F8AFF264
:10015000090EBAE80F0013F0010F18BFFB1A43F0A5
:100160000103184774DA050094DA05000A444FF0D9
:10017000000C10F8013B13F0070408BF10F8014B06
:100180001D1108BF10F8015B641E05D010F8016B4B
:10019000641E01F8016BF9D113F0080F1EBF10F8AF
:1001A000014BAD1C0C1B09D16D1E58BF01F801CBD2
:1001B000FAD505E014F8016B01F8016B6D1EF9D555
:1001C0009142D6D37047000000230024002500266A
:1001D000103A28BF78C1FBD8520728BF30C148BFAA
:1001E0000B607047662933F09E80642900F0968189
:1001F000782900F0CF81732900F001870020704733
:100200001FB500F0A4FA00F011FF04000020002147
:1002100031F0C6FFE0601FBD10B510BD01F00EF853
:100220001146FFF7EDFF26F06BFC01F02CF803B44C
:10023000FFF7F2FF03BC08F0EEFD0000224B196847
:100240000868B0E8F00F80F30988BFF36F8F4FF0B4
:10025000000080F311884EF00D0E70470000000082
:1002600006480068006880F3088862B661B6BFF38C
:100270004F8FBFF36F8F00DF00BF00BF08ED00E0BE
:10028000EFF30980BFF36F8F0F4B1A6820E9F00F6F
:10029000106008B54FF0500080F31188BFF34F8F06
:1002A000BFF36F8F30F0FEFE4FF0000080F3118837
:1002B000BDE8084019680868B0E8F00F80F30988C5
:1002C000BFF36F8F704700BF1C030020EFF3058062
:1002D000704700000B49D1F800C04A685CF8043B45
:1002E0001068184442F8040B8C4528BFA1F1DC0CBF
:1002F0008A4228BFA1F1DC02C1F800C04A6020F0A8
:1003000000407047CCE10020094880470948004779
:10031000FEE7FEE7FEE7FEE7FEE7FEE7FEE7FEE7B5
:10032000FEE7FEE704480549054A064B7047000012
:10033000696D00083101000838E2002038E800202B
:1003400038E4002038E40020704753EA020C00F043
:1003500069802DE9F04B4FF00006002B1FBFB3FA68
:1003600083F503FA05F424FA05F65E4012BF16433E
:10037000B2FA82F502FA05F4C5F120051EBF22FA91
:1003800005FC44EA0C04203556EA044C4FEA1444B8
:1003900018BF641C4FF000084FF00009904271EB49
:1003A000030C39D3002919BFB1FA81F701FA07F616
:1003B000B0FA80F700FA07F6C7F120071EBF20FA4F
:1003C00007FC46EA0C062037B6FBF4FCA7EB050752
:1003D000103F07F01F0BCBF120060CFA0BFB2CFA99
:1003E00006F644BFB3460026202FA4BF5E464FF05A
:1003F000000B5BEA060C08BF4FF0010B19EB0B0971
:10040000ABFB027C48EB0608C01B06FB02CC0BFBD7
:1004100003CC71EB0C01C1E70B460246414648464E
:10042000BDE8F08B13B54FF000004FF00001AFF3C3
:100430000080BDE81C4070470FB4044910B503AA02
:10044000029800F0E1FD10BC5DF814FBBC02002036
:100450000FB41CB5084B06AA7B446946009005986A
:1004600000F0A3FD04460020694600F0B1FD2046DF
:100470001CBC5DF814FB0000750B000070B5044651
:1004800085690068C10601D5302600E02026C00736
:1004900007D070BDD4E9012130469047206A401C46
:1004A00020626D1EF6D570BD70B504468569007872
:1004B000C00707D170BDD4E9012120209047206AF0
:1004C000401C20626D1EF6D570BD70B50C46054609
:1004D000012A05D02878800600D5EA69002302E0C9
:1004E000012305E05B1C934202D2E05C0028F9D1B5
:1004F000A869E618C01AA861286A18442862284624
:10050000FFF7BCFF04E0D5E9012114F8010B904787
:10051000B442F8D32846FFF7C7FF70BD2DE9F0417C
:100520000646002410687529314616A510D0AFF391
:100530000080002802DA404213A507E031688A07EC
:1005400001D512A502E0490704D511A5012401E057
:10055000AFF3008000210A2206F1240709E0B0FB76
:10056000F2FCB0FBF2F302FB1C003030785418466A
:10057000491C0028F3D123462A463046BDE8F04105
:1005800000F0A5BA000000002D0000002B000000C4
:100590002000000070B504460D4621461068AFF3F8
:1005A00000802188090502D50F4A7A4402E00E4AEC
:1005B0007A440E32002104F1240305E000F00F0616
:1005C0000009965D5E54491C0028F7D1207800236D
:1005D000000704D5702D02D009B102231132204644
:1005E000BDE8704000F073BA72CD05002DE9F05FF0
:1005F000894604464FF0000ADFF824B1FB44C0F8F6
:1006000020A02046E168884700287DD0252806D014
:10061000D4E901219047206A401C2062F1E70025BF
:100620005F462046E16888472028064607DB312ED2
:1006300005D2B81910F8200C08B10543F1E7A80756
:1006400001D525F00405C4F81CA00027C4F818A0A3
:100650002A2E09D0304606F015FF38B304EB870880
:10066000303EC8F8186019E059F8041B204604EB26
:1006700087029161E1688847012F064618D1E06939
:10068000002820DA25F020051DE0D8F8180000EB3E
:10069000800006EB40003038C8F818002046E168BA
:1006A0008847064606F0EEFE0028EED1012F0AD05C
:1006B0002E2E08D12046E16888477F1C0646022F6F
:1006C00045F02005C4DBA069002803DA404245F06C
:1006D0000105A061E80701D025F01005A6B1A6F13B
:1006E0004100192802D8203645F400654A463146B3
:1006F000204625604D46FFF775FD60B1012807D003
:10070000ED1D25F0070000E007E000F1080978E79B
:1007100005F1040975E730467AE7206ABDE8F09FE5
:1007200048CD05000B4910B5A1F17C020A4CC2E985
:100730003712372106E000EB104342F82130074B17
:1007400000FB03400B1EA1F10101F4DC10BD0120F0
:10075000E8E700006CE10020E119D666CD0D01004C
:1007600030B505460B462A4613F8014B12F8010B2B
:1007700008B1A042F8D01CB1002802D06D1CF1E7EE
:10078000284630BD40EA0103024630B59B0710D130
:100790004FF0013400E008C208C91D1B9D4315EA53
:1007A000C41FF8D013F0FF0102F8011B0DD01B0A83
:1007B000F8E711F8013B002B02F8013B05D011F8D6
:1007C000013B002B02F8013BF3D130BD10B5431CB7
:1007D00002E010F8011B71B18107FAD14FF001322C
:1007E00002C88C1A8C4314EAC211F9D0C01A0A0646
:1007F00003D0C01E10BDC01A10BD0A0401D0801E57
:1008000010BD0902FCD0401E10BD40EA010370B5C6
:100810009B072ED14FF00136042A2AD308C810C9ED
:100820009D1B9D43121F15EAC61517D0D8B2E1B221
:10083000401A50EA056110D198B2A1B2401A50EAAC
:1008400005410AD123F07F4024F07F41401A50EA4D
:10085000052102D1180EA0EB146070BDA342DBD0BD
:1008600018BA21BA884201D9012070BD4FF0FF307B
:1008700070BD0AB9002070BD10F8013B11F8014BA2
:1008800063B1A3420AD1521E08D010F8013B11F8FF
:10089000014B1BB1A34201D1521EEDD1181B70BDFB
:1008A000032A40F2308010F0030C00F0158011F89C
:1008B000013BBCF1020F624498BF11F801CB00F874
:1008C000013B38BF11F8013BA2F1040298BF00F8C8
:1008D00001CB38BF00F8013B11F0030300F0258085
:1008E000083AC0F0088051F8043B083A51F804CBAC
:1008F000A0E80810F5E7121D5CBF51F8043B40F872
:10090000043BAFF30080D20724BF11F8013B11F87C
:1009100001CB48BF11F8012B24BF00F8013B00F8C0
:1009200001CB48BF00F8012B704710B5203AC0F04A
:100930000B80B1E81850203AA0E81850B1E81850E0
:10094000A0E81850BFF4F5AF5FEA027C24BFB1E81D
:100950001850A0E8185044BF18C918C0BDE810408E
:100960005FEA827C24BF51F8043B40F8043B08BF97
:100970007047D20728BF31F8023B48BF11F8012B5E
:1009800028BF20F8023B48BF00F8012B704702F057
:10099000FF0343EA032242EA024200F002B84FF0AA
:1009A00000020429C0F0128010F0030C00F01B803C
:1009B000CCF1040CBCF1020F18BF00F8012BA8BF4A
:1009C00020F8022BA1EB0C0100F00DB85FEAC17C0E
:1009D00024BF00F8012B00F8012B48BF00F8012BC1
:1009E00070474FF0000200B51346944696462039F2
:1009F00022BFA0E80C50A0E80C50B1F12001BFF4D8
:100A0000F7AF090728BFA0E80C5048BF0CC05DF83D
:100A100004EB890028BF40F8042B08BF704748BF8B
:100A200020F8022B11F0804F18BF00F8012B7047FF
:100A30004FF0013C50F8042B51F8043B9A4221D16D
:100A4000A2EB0C03934313EACC1317D150F8042BF9
:100A500051F8043B9A4215D1A2EB0C03934313EADD
:100A6000CC130BD150F8042B51F8043B9A4209D116
:100A7000A2EB0C03934313EACC13DBD04FF000003E
:100A8000704700BFD01A01BAB1FA81F101F0180124
:100A900022FA01F0CB40C1F12001DBB2C0B2C01A92
:100AA0002CFA01F3D11A914311EAC311E6D1704730
:100AB000704770477047704710B500F0BBFA006888
:100AC00010BD10B5044600F0B5FA046010BD2DE964
:100AD000F0470D4699469246044600F12408016805
:100AE000880604D5E06921F01001216000E00120B2
:100AF000A84201DD471B00E00027A1697A1902EB3B
:100B00000900081AA0612078C00602D42046FFF729
:100B1000B5FC002608E0D4E901211AF80600904748
:100B2000206A401C761C20624E45F4DB2078C0060B
:100B30000AD52046FFF7A2FC06E0D4E901213020C7
:100B40009047206A401C2062381EA7F10107F4DCA0
:100B500007E0D4E9012118F805009047206A401CFD
:100B60002062281EA5F10105F3DC2046FFF79CFC5E
:100B70002078000602D50220BDE8F0870120FBE7BF
:100B800070472DE9FF4F0C461E464FF0FF378BB0E4
:100B9000D2E90001DDF860800A908A46C1F30A5567
:100BA00005B93D46002108464FF00000BAF1000F9C
:100BB00000F4400005DA00EB80004FF4400101EA48
:100BC00050004FEA9059B9F1010F00DDB9460A987B
:100BD00050EA4A000ED044F61050A5F2FF354543C6
:100BE0002F14B8F1000F1ED07542291E1EDDC9F169
:100BF00000021CE0B8F1010F4FF0000001D03021DD
:100C000003E0F24305E02154401CB042FBDB3046D8
:100C10000022002121540B99C1F80880C1E900206D
:100C20000FB0BDE8F08FBD1B6D1CDEE74A4600DA51
:100C3000694206A800F088FA06AB93E8070003AB08
:100C400083E8070050460A9900F026FB8DE807006C
:100C5000A0F500501F3800900398002D0ADD42F2E5
:100C60001F014A460844002303A90390684600F088
:100C70008FFD09E0A0F500504A461F38002303A964
:100C80000390684600F099FD8DE807000004000C11
:100C900003D04FF0FF30410800E01046B8F1000FDC
:100CA00003D00022009215461EE0751E05D400F008
:100CB000C5F9303262556D1EF9D5B346012208439D
:100CC00002D000227F1C04E02078302801D10022CD
:100CD0007F1E002A099784D01DE0112D07DA00F04D
:100CE000ADF9303262556D1C50EA0102F5D108436E
:100CF00002D00098C8B10EE00021681E05E0235C18
:100D0000625C63542254401E491C8142F7DBAB46AF
:100D1000A81B401E0990002004F80B000B98099AAC
:100D2000C0F80880C0E9002B7AE711264FF00008D0
:100D300057E72DE9F04F88460446D21D22F00701FF
:100D400091B0D1E90001CDE90A0106F097FA024617
:100D50000B98C00F01D02D2007E02068810701D536
:100D60002B2002E0202101EAC000032A099001D0D3
:100D7000072A05DB03464146204600F0A5F90BE1B2
:100D80002078800601D5E06900E00620B8F1650F03
:100D9000814606D0B8F1660F18D0B8F1670F70D150
:100DA00031E00020B9F1110F009001DB112301E0C7
:100DB00009F101030AAA01A90CA8FFF7E2FEDDE987
:100DC0000C70002609F10105834647E001204B46DF
:100DD00000904FF000470AAA01A90CA8FFF7D1FE26
:100DE000DDE90DB00C995D46002610B909F101004E
:100DF0000D18B9EB050003D4C0F1FF3609F1010568
:100E0000A5EB09002BE0B9F1010F01DA4FF0010960
:100E10000020B9F1110F0090484601DD112300E0D8
:100E200003460AAA01A90CA8FFF7ABFEDDE90C7086
:100E30004D4600268346207800070AD4AB4500DAE9
:100E40005D4601A8012D04DD411911F8011C30296E
:100E500007D04F4502DA17F1040F04DA0120824669
:100E60000FE06D1EEEE7002F02DCED1B3E4403E0B9
:100E7000781CA84200DD7D1CB81B00F1010A4FF070
:100E800000472078000703D4AA4501DB4FF0FF3A62
:100E90000021B7F1004F0DF143088DF8431024D025
:100EA00002202B23002F01DA7F422D230A21021E6C
:100EB000A0F1010000DC5FB197FBF1FC97FBF1F2C0
:100EC00001FB1C7C17460CF1300C08F801CDEEE755
:100ED000A8F1010003702188090501D5452100E032
:100EE0006521A0F1010800F8011C09980FA9A1EBE8
:100EF0000807FF1D00B10120411901EBEA70A1694B
:100F00003844081A401EA0612078C00602D420464A
:100F1000FFF7B4FA099828B1D4E901219047206A73
:100F2000401C20622078C00622D52046FFF7A6FA92
:100F30001EE0002E04DBB34502DD01A8805D00E069
:100F40003020D4E901219047206A401C2062761CA1
:100F5000AAF101005FEA000A0AD100F067F8C06850
:100F60000168405CD4E901219047206A401C20625E
:100F7000281EA5F10105DCDC07E0D4E9012118F801
:100F8000010B9047206A401C2062381EA7F1010720
:100F9000F3DC2046FFF788FA032011B041E6000099
:100FA00001694A1C02610878704700B58FB0CDE92D
:100FB00001310021059105497944CDE9031011461D
:100FC0006846FFF713FB0FB000BD0000E5FFFFFF11
:100FD0000A6802F8010B0A60704710B5436913B143
:100FE000AFF3008001E0FFF770FA012010BD127826
:100FF00000F124010A7000224A700122EDE7116815
:101000004FF0FF32E9E70000074B70B50D467B4417
:10101000FFF7CBFF0446284600F008F910B14FF067
:10102000FF3070BD204670BD171D0100004870479D
:10103000F4E1002000487047D4E1002030B5B0F161
:101040000A024FEA900E71F100034EEA817EB0EB86
:101050000E0061EB91014FEA101E4EEA017E10EB8B
:101060000E0041EB11114FEA102E4EEA016E10EB0B
:101070000E0041EB11214FEA104E4EEA014E10EBEB
:101080000E0041EB1141401841F100014FEAD00040
:1010900040EA41704FEAD10110EB80054FEA81042C
:1010A00044EA907444EB01046D1944EB0404521BB0
:1010B000A3414FF0000348BF0A3200D530BD401CA9
:1010C00041F1000130BD00002DE9F0411F4604460A
:1010D00003260168072A01F4006004DB08B116A5A5
:1010E00005E016A503E008B115A500E015A521F05F
:1010F00010002060A069C01EA0610FB1401EA06159
:101100002046FFF7BBF94FB1D4E90121384690479B
:10111000206A401C2062C01C206206E0206AFAE7B8
:10112000D4E9012115F8010B9047761EF8D220462C
:10113000FFF7BAF9BDE8F0814E414E006E616E00D6
:10114000494E4600696E66002DE9F0478146164615
:101150008AB0354878440DC88DE80D00324878448F
:10116000801C03AC0DC884E80D0041F69B30084498
:10117000372190FBF1F290FBF1F5A5F1800501FB21
:1011800012041B3C02D56442012000E00020DFF87D
:1011900098A080460027FA44AAF1BE0A0EE0E007B4
:1011A0000AD03246684607EB470101230AEB81016A
:1011B00000F003FB8DE8070064107F1C002CEED1CB
:1011C000194F7F44AE3F19E0E80715D007EB041034
:1011D0000DF1180A90E80E008AE80E00C068F0428F
:1011E00001D1981908903246012306A903A800F0FE
:1011F000E4FA03AB83E807006D10641C002DE3D113
:101200004FF0010332466946B8F1000F03A802D03F
:1012100000F0BEFA01E000F0D0FAC9E90001C9F817
:1012200008200AB0BDE8F08714C30500007B00F079
:101230008000704700487047D4E100207546FFF7F2
:10124000F9FFAE4605006946534620F00700854683
:1012500018B020B5FFF766F8BDE820404FF0000653
:101260004FF000074FF000084FF0000B21F007018E
:10127000AC46ACE8C009ACE8C009ACE8C009ACE8D1
:10128000C0098D46704710B50446AFF30080204674
:10129000BDE81040FEF7CBBF5FEA400C08BF91F0FD
:1012A000000F4FEA8C234FEAC12243EA51514FEA23
:1012B0001C5018BF00F5F0404FEA300018BF41F055
:1012C00000415FEA6C5C00F02980BCF1FF3F08BF81
:1012D00040F080407047130C06BF12044FF0100C12
:1012E0004FF0000C130E04BF12020CF1080C130F88
:1012F00004BF12010CF1040C930F04BF92000CF117
:10130000020CD30F04BF52000CF1010C11464FF038
:101310000002A0F11F00A0EB0C00704711F0004F7D
:1013200008BF704731F000413FF4D5AF0B0C06BF4A
:1013300009044FF0100C4FF0000C0B0E04BF090213
:101340000CF1080C0B0F04BF09010CF1040C8B0FFE
:1013500004BF89000CF1020CCB0F04BF49000CF153
:10136000010CCCF12003A0EB0C0022FA03F302FAEB
:101370000CF241EA030100F10100704720F07F4CBC
:1013800080EA030023F07F47ACEB070303F57C53AF
:1013900000F0004003F1FF032DE980494FEA154BAF
:1013A00009B44FEA144325EA0B4E24EA03480FF22E
:1013B000042606EB132749083E785FEA320203FB56
:1013C0000667C7F5000707FB06F64FEA54374FEAF2
:1013D000D64606F1020607FB066CCCF1005C4FEA2C
:1013E0001C472CEA074C07FB06F40CFB06F504EB44
:1013F00015464FEA961634BF00204FF000404FEAE2
:10140000D13706FB07FC4FEA1C4C0CFB0BF7D21B39
:1014100003FB0CF761EB07010CFB0EF7B0EB074089
:1014200072EB17420CFB08F734BFA2EB0742B2EB9A
:10143000074261EB17414FEA0C444FEA910706FB64
:1014400007FC4FEA1C4C0CFB0BF7B0EBC74072EBF0
:10145000573203FB0CF734BFA2EBC742B2EBC742D3
:1014600061EB57310CFB0EF7B0EBC70072EB577214
:101470000CFB08F734BFA2EBC702B2EBC70261EB6B
:101480005771039F4FEA816141EA921104EBCC044A
:101490004FEAD1374FEA826206FB07FC42EA90121C
:1014A0004FEA80604FEA1C4C0CFB0BF7D21B03FB8E
:1014B0000CF761EB07010CFB0EF7B0EB074072EB8A
:1014C00017420CFB08F734BFA2EB0742B2EB07420E
:1014D00061EB17414FEA8C554FEA910704EB9C24CE
:1014E00006FB07FC4FEA1C4C0CFB0BF7B0EBC740AC
:1014F00072EB573203FB0CF734BFA2EBC742B2EBDF
:10150000C74261EB57310CFB0EF7B0EBC70072EB33
:1015100057720CFB08F734BFA2EBC702B2EBC7024D
:1015200061EB577115EB4C254FEA816141EA92114D
:101530004FEA82624FEAD13742EA901206FB07FC7B
:1015400044F100044FEA80604FEA1C4C0CFB0BF79F
:10155000D21B03FB0CF761EB07010CFB0EF7B0EBA2
:10156000074072EB17420CFB08F734BFA2EB0742AF
:10157000B2EB074261EB174115EB1C154FEA8131C5
:1015800041EA92414FEA823242EA90424FEA803089
:101590004FEA0C7644F1000448EA03434EEA0B4854
:1015A0004FF0000EB2EB080C71EB030724BF62464C
:1015B00039464EEB0E0E4FF0000B001852414941D8
:1015C0004BEB0B0BB2EB080C71EB03077BF1000B41
:1015D00024BF624639464EEB0E0E4FF0000B00184A
:1015E000524149414BEB0B0BB2EB080C71EB03077B
:1015F0007BF1000B24BF624639464EEB0E0E51EADA
:10160000020718BF46F0010616EB0E7655F10002F0
:1016100054F1000103D5BDE88901BDE80088BDE8AB
:101620008901BDE80048B619524141EB0101A3F11F
:101630000103704780807F7E7D7C7B7A7978777626
:1016400076757473727171706F6E6E6D6C6C6B6A9F
:101650006A6968686766666564646363626161603D
:10166000605F5F5E5E5D5D5C5C5B5B5A5A595958BA
:101670005857575656555555545453535252525124
:10168000515050504F4F4F4E4E4D4D4D4C4C4C4B7A
:101690004B4B4A4A4A4949494848484747474746C1
:1016A00046464545454444444443434343424242FD
:1016B00042414141002B9C4630D477002BD01CB5D1
:1016C0004FEA370703B44FF010004FF01001BAF1A2
:1016D000000F06D0BCF1000FDCBF40F0080040F066
:1016E00008014FF000000FBCBDE810400BF1010BEA
:1016F000BBF1010F08BF5FEA170722BF12F1010219
:1017000011F101014FF0004143F1000300F00040EE
:1017100043EA00007047F9D35708D0E746EA064687
:1017200013F1400F4FEA16461FDD13F1200FDFBF04
:1017300016430A46002120335B42BED0C3F1200786
:1017400046EA064602FA07F74FEA164646EA070651
:10175000C3F1200722FA03F201FA07F721FA03F195
:101760004FF0000342EA0702A7E746EA020646EA0C
:1017700006464FEA164646EA0106BCBF46EA06465A
:10178000360C4FF000034FF000024FF0000194E7D9
:101790002DE9804C9A46934670B491E8380007C80A
:1017A00031EA400C48BF34EA430C03D5FFF7E6FDAD
:1017B000FFF780FFF0BCBDE8008C2DE9804C9A4615
:1017C000934670B491E8380007C810F0804F08BF06
:1017D00013F0804F03D100F005F8FFF76BFFF0BC6A
:1017E000BDE8008C20F07F4780EA030023F07F4CA7
:1017F00007EB0C03A3F57C5300F00040A3F1FE03BC
:1018000092F0000F00F0B38095F0000F00F07780A9
:101810002DE901494FEA11404FEA144621EA0048F8
:1018200000FB06FC24EA064708FB06F607FB08F85F
:1018300000FB07F718EB06484CEB164C4FEA124B2F
:1018400018EB07484FEA15464CEB174022EA0B4EBF
:101850000BFB06FC25EA06470EFB06F607FB0EFE11
:101860000BFB07F71EEB064E4CEB164C4FF0000639
:101870001EEB074E4CEB174B18EB0B0840F100002A
:1018800018EB0E0B58EB000840F100008F1A4FF0D8
:1018900000013CBFC943661B14BFB5EB040C00211B
:1018A0003CBFC943F61B4FEA17444EEA8E0E27EAA7
:1018B00004454FEA1C4704FB07622CEA074C05FB72
:1018C00007F70CFB05F604FB0CFC16EB074642EB96
:1018D000174216EB0C4642EB1C421BEB060658EB7C
:1018E0000202414146EA9E0601D5BDE80189B619CA
:1018F000524141EB0101A3F10103BDE801894FEA27
:1019000014454FEA114724EA054621EA074C05FB36
:1019100007F406FB07F70CFB06F105FB0CFC11EBCB
:10192000074144EB17444FEA124711EB0C4144EBDB
:101930001C4422EA074C05FB07F206FB07F70CFBE9
:1019400006F605FB0CFC16EB074642EB174216EBBE
:101950000C4642EB1C456A1854F1000148BF704721
:10196000B619524141EB0101A3F10103704795F013
:10197000000F37D04FEA11424FEA144721EA0246DE
:1019800024EA074C02FB07F106FB07F70CFB06F401
:1019900002FB0CFC14EB074441EB17414FEA1547DF
:1019A00014EB0C4441EB1C4125EA074C02FB07F504
:1019B00006FB07F70CFB06F602FB0CFC16EB0746D2
:1019C00045EB174516EB0C4645EB1C42121951F13D
:1019D000000148BF7047B619524141EB0101A3F124
:1019E000010370474FEA14454FEA114724EA0546C0
:1019F00021EA074C05FB07F106FB07F70CFB06F293
:101A00004FF0000605FB0CFC12EB074241EB1741BF
:101A100012EB0C4251EB1C4148BF7047921841EB4E
:101A20000101A3F10103704710B5044800F062FD05
:101A3000BDE81040024800F05DBD0000BC0600207B
:101A4000EC06002070B5044600688168C943C907E8
:101A500016D1816821F00101816001F0FFF905468E
:101A600009E001F0FBF9401B022804D920688068D6
:101A7000C043C00706D020688068C043C007F0D0CC
:101A8000002070BDA06A40F01000A062E06A40F043
:101A90000100E062012070BDF8B500260446009602
:101AA00000688168C943C9072CD0816841F00101F1
:101AB0008160154815490068B0FBF1F000E0401E58
:101AC00000900028FBD101F0C9F9054615E001F0AE
:101AD000C5F9401B022810D920688068C043C007A0
:101AE0000BD0A06A40F01000A062E06A40F0010054
:101AF000E06284F824600120F8BD20688068C0435B
:101B0000C007E4D10020F8BDAC02002040420F0025
:101B100003F07ABC70B515460E46044606E0204632
:101B2000641CA4B200F006F806F8010B6D1EADB2FD
:101B3000F5D270BD10B5044603F01AFD200AA021AD
:101B400001EB4000C0B203F0E3FC03F057FDE0B24C
:101B500003F0DEFC03F052FD03F00AFDA12003F0C8
:101B6000D7FC03F04BFD002003F09EFC044603F07D
:101B700025FD204610BD70B514460D46064606E00C
:101B80002978304600F007F8761CB6B26D1C641E4A
:101B9000A4B2F5D270BD70B50D46044603F0E8FC62
:101BA000200AA02101EB4000C0B203F0B1FC03F019
:101BB00025FDE0B203F0ACFC03F020FD284603F065
:101BC000A7FC03F01BFD03F0F9FCBDE870400A2000
:101BD00000F0C7B910B5094827F0CBFB074827F03C
:101BE000D7FB0648001D27F0C4FB0448001D27F062
:101BF000CFFB034829F073FF002010BDA402002092
:101C0000EC08002070B50C4605460949284629F025
:101C10006AFF002807D02146064827F0BEFB18B10E
:101C20000128F2D0002070BD6FF0010070BD0000EF
:101C3000EC080020A802002010B5144602F018FE9F
:101C40002146054827F0A9FB18B10348001F00688A
:101C500010BD6FF0010010BDA402002000249AB056
:101C6000DFF8C890A346EA46671E0AEB040556460D
:101C70003946284600F0EEFE85F801B034B115F87B
:101C8000010C0D2802D1305D0A2816D0684600F0FC
:101C90004FFA90B300246D4626466FF02F0828199E
:101CA000394600F0D7FE285D3A2827D006EB860299
:101CB00008EB42014618641CF1E71DA16846FEF7D7
:101CC0004FFD40B1224669461B48FEF72EFE00201C
:101CD000C9F800000BE019A16846FEF741FD50B1BC
:101CE000224669461448FEF720FEC9F800700F48E6
:101CF000001D27F055FB0024B7E713E000240EE099
:101D00002819394600F0A6FE642C07DA285D0D4933
:101D100029F0FCFE0548083027F042FB641CB44261
:101D2000EEDBE8E7641C642C9FDBE4E7A002002004
:101D30004F4B0D0A00000000F41000204552524F96
:101D4000520D0A00EC0800202DE9F0411F4615460F
:101D50000E460446FEF73AFD0146204602F088FD95
:101D600002210EA002F084FD39460D4827F015FB34
:101D700080B10B48001F04684CB946B1642D01DDE9
:101D8000642200E02A4607493046FEF789FD2046D6
:101D9000BDE8F0816FF00100FAE700000D0A0000D5
:101DA000A4020020F410002001225103014801F098
:101DB00050B800000014014000224FF400510148C7
:101DC00001F047B800140140FEE700001FB50020F5
:101DD000019002904FF480500090032003906946D8
:101DE000014800F039FF1FBD000801401FB54FF446
:101DF00080500090012001900290032003906946DA
:101E0000014800F029FF1FBD0008014070B5002007
:101E100004464006050E00F007F8641C2843E4B2AF
:101E2000082CF6D370BD000070B500244FF4805527
:101E3000134E04E0641CE4B2012000F09FF8294630
:101E4000304601F001F808B1642CF3D3002404E01B
:101E5000641CE4B2012000F091F82946304600F0FD
:101E6000F3FF08B9642CF3D3282000F087F8294643
:101E7000304600F0E9FF002800D0012070BD0000CE
:101E800000080140F0B585B00E46074600F020F886
:101E900000F038F810B1012005B0F0BD00246D4607
:101EA000FFF7B4FF45F82400641CE4B2052CF7D317
:101EB000DDE900010844DDE90212114408440499F7
:101EC000884203D100983060029838600020E3E730
:101ED00070B5FFF78BFF0A4D4FF480540022214666
:101EE000284600F0B6FF142000F03BF801222146FE
:101EF000284600F0AEFFBDE870401E2000F03EB85E
:101F00000008014070B50024FFF760FF4FF48055D2
:101F1000124E04E0641CE4B2012000F02FF82946C0
:101F2000304600F091FF10B1642CF3D30FE0642C25
:101F30000DD2002404E0641CE4B2012000F01EF87D
:101F40002946304600F080FF18B1642C04D30120EC
:101F500070BD642CEFD3FAE7002070BD000801408B
:101F6000704770B5054600244FF47A7603E030469A
:101F700000F004F8641CAC42F9D370BD30B50C4AD3
:101F800000211468E36A4FF47A725843B0FBF2F50B
:101F9000626A606A9042FCD002D9A0EB020202E0C1
:101FA000A3EB0202024411440246A942F1D330BD20
:101FB000A408002072B6FEE730B5B3F5804F05D017
:101FC0006FF0704140F82210002030BD8C690B6822
:101FD0008D6823434C688989240144EA05242343FE
:101FE00043EA014150F82230014C23401943E9E70C
:101FF0000000F0CF10B50A6850F8223023F001033A
:1020000040F822308B68082B23D000224C681C43F8
:10201000CB6813430A691C4314434A698B69144310
:10202000CA6914430A6A14434A6A14438A6A144305
:10203000CA6A14430A6B14434A6B234309681A4360
:10204000054C50F82130A343134340F821300020C1
:1020500010BD4022DAE700007FFF0F0030B5D1E964
:10206000003443EA04138C688D89240244EA054451
:1020700023430C8A074D00EB820005EB04542343F5
:102080000C7D6D0105EB0464896923430B434360B8
:10209000002030BD0000F0FF2DE9F84F89461E46B4
:1020A000904682460024714203220A9802EB4105C1
:1020B000C8B930E0274608E03B462246494650462C
:1020C000CDF8008005F08BF97F1CB742F4DD002DC0
:1020D00003DA05EB8405AD1D04E0A01B05EB8005CC
:1020E0000A35761E641CB442E4DDBDE8F88F334641
:1020F000224649465046CDF8008005F070F9002D83
:1021000003DA05EB8405AD1D04E0A01B05EB80059B
:102110000A35761E641CB442E9DDE6E710B51446C4
:1021200003F006FC2046BDE8104003F02FBD000080
:1021300010B503A1FEF714FB002800D0012010BD4C
:102140002B4950442C00000010B5064904460848AD
:102150008A7805A1FEF77CF92068BDE810400449A3
:102160001CF059BA0C000020256420440000000037
:102170006C06002010B50649044608480A7905A1F6
:10218000FEF766F92068BDE8104004491CF043BA28
:102190000C0000202564206800000000700600206C
:1021A00010B50649044608484A7905A1FEF750F9DA
:1021B0002068BDE8104004491CF02DBA0C00002036
:1021C0002564206D000000007606002010B5064949
:1021D000044608484A7805A1FEF73AF92068BDE8A8
:1021E000104004491CF017BA0C0000202564204D53
:1021F000000000008806002010B506490446084883
:102200008A7905A1FEF724F92068BDE81040044949
:102210001CF001BA0C0000202564207300000000AF
:102220007C06002070B5094C054609A10A48626B7E
:10223000FEF70EF9084928681CF0EDF9A08E01B2EE
:1022400006480068BDE8704014F0C3B80C000020D8
:102250002564C2B0430000008E060020C80500209F
:1022600010B50446064807A1C278084802F5FA628C
:10227000FEF7EEF82068BDE8104004491CF0CBB929
:102280000C00002025642059000000008206002078
:1022900010B50649044608488A6A05A1FEF7D8F831
:1022A0002068BDE8104004491CF0B5B90C000020BE
:1022B00025642050504D0000A606002010B50649A8
:1022C000044608488A6B05A1FEF7C2F82068BDE8FD
:1022D000104004491CF09FB90C00002025642050D8
:1022E000657200009606002010B5064904460848AD
:1022F000CA6905A1FEF7ACF82068BDE810400449A2
:102300001CF089B90C00002025644C5558000000D1
:102310009E060020F8B500260446009690F824009A
:1023200001280BD0012084F824002046FFF78AFB07
:102330002046FFF7B1FB070002D050E00220F8BDB5
:10234000A06A20F4885040F00200A062022001F050
:10235000E7F825490968B1FBF0F0400000E0401EB5
:1023600000900028FBD12068816841F0080181605D
:1023700000F074FD054608E000F070FD401B0A28DF
:1023800003D920688068000715D42068806800079A
:10239000F2D42068816841F00401816000F05EFDA4
:1023A000054612E000F05AFD401B0A280DD92068AE
:1023B0008068400709D5A06A20F0020040F01000B4
:1023C000A06284F824600120F8BD2068806840077E
:1023D000E8D4A06A20F0020040F00100A06284F876
:1023E00024603846F8BD0000AC02002070470000B1
:1023F000F8B50023009390F824201C46012A12D03F
:10240000012280F824204A681F26072A0DD2056879
:102410006F6B521E02EB82029640B7430E689640E5
:1024200037436F6319E00220F8BD05680D2A0AD210
:102430002F6BD21F02EB82029640B7430E68964084
:1024400037432F6309E0EF6A0D3A02EB82029640B0
:10245000B7430E6896403743EF620A68072605685F
:102460000A2A0AD3EF680A3A02EB42029640B743BF
:102470008E6896403743EF6008E02F6902EB420216
:102480009640B7438E68964037432F610A68102AFA
:1024900001D0112A20D1124D0268AA4217D19568A5
:1024A0002D0219D4956845F4000595600968102936
:1024B00012D10C490C4A0968B1FBF2F101EB810120
:1024C000490000E0491E00910029FBD104E0816A27
:1024D00041F020018162012380F824401846F8BDB4
:1024E00000240140AC02002040420F007047006809
:1024F000C06C704770B50446006806684568A90658
:1025000025D5B10723D5A16AC90603D4A16A41F430
:102510000071A1628168C1F34241072910D1217B7A
:1025200071B9416821F020014160A06A20F48070F7
:10253000A062A06AC00403D4A06A40F00100A062B7
:102540002046FFF7D3FF21686FF0120008602806CD
:102550002ED570072CD5A06AC00603D4A06A40F41B
:102560000050A06220688168C1F30231072909D0B8
:102570004168490515D48168C1F34241072910D14A
:10258000217B71B9416821F080014160A06A20F48B
:102590008050A062A06AC00503D4A06A40F0010088
:1025A000A0622046FFF722FF21686FF00C00086050
:1025B00068060CD5F0070AD0A06A40F48030A0620B
:1025C000204600F095F821686FF00100086070BDAA
:1025D0002DE9F04104004FF000057FD0A06A0026ED
:1025E00028B9E66284F82460204600F083F820468B
:1025F000FFF728FAA16AC90600D420B1A06A40F00A
:102600001000A0626AE0A16A21F4885141F0020141
:10261000A162334923688B42E16904D1B1F5402FAF
:1026200001D14FF40021277B4FF4807C41EA47021F
:1026300061680A43A168614508D0012906D00021DC
:1026400094F814E0BEF1010F02D00AE06146F7E70A
:10265000C7B1A76A47F02007A762E76A47F00107FA
:10266000E7625F6827F469470F435F6021688B6802
:102670001C4F3B4013438B60A16861450BD001297F
:1026800009D00CE0DFF860E0A7690EEB47370F4395
:1026900047F40061E5E7218A0D05A5F5801521685D
:1026A000CB6A23F470032B43CB62216889680F4BFC
:1026B0001940914208D1E662A16A21F0020141F07D
:1026C0000101A162BDE8F081A06A20F0020040F0A3
:1026D0001000A062E06A40F00100E0620120F1E732
:1026E000003C0140FDF7E1FF00E0FFFFFE0E1FFF91
:1026F0007047000010B586B0002100910191029151
:1027000003911E4C02681E4903231E48A24211D1A8
:102710008A6942F400728A618A6902F40072049242
:102720008A6942F004028A61896901F00401049116
:10273000022113E0144CA2421DD18A6942F4806246
:102740008A618A6902F4806204928A6942F0040212
:102750008A61896901F0040104910421CDE9001323
:10276000694600F079FA00220521122000F0A0FE4F
:10277000122000F08FFE06B010BD000000240140C2
:102780000010024000080140002801402DE9F843F4
:102790004FF000080D460446CDF8008000F05EFBC7
:1027A000074620688168C90508D5A06A40F0200066
:1027B000A06284F824800120BDE8F8834168C9053F
:1027C00003D4C06A10F4700F29D0022000F0A8FED4
:1027D0003A490968B1FBF0F620680169384A1142AC
:1027E0004FEA62024FEAA2131ED1C1684FEA621C8F
:1027F00011EA0C0F18D10169114224D1C0681842A6
:1028000021D1142022E0681C09D025B100F026FB5C
:10281000C01BA84203D920680068800724D520681F
:1028200000688007EFD52CE00169114202D1C16830
:10283000194206D0026923490A4206D1C0680842FB
:1028400003D1542002E0292000E0FC2046430098F8
:1028500015E0681C10D025B100F000FBC01BA84299
:102860000AD90098B04207D2A06A40F00400A062E2
:1028700084F8248003209FE70098401C0090B04219
:10288000E7D321686FF012000860A06A40F400707E
:10289000A06220688068C0F3424007280CD1207BEA
:1028A00050B9A06A20F48070A062A06AC00403D46A
:1028B000A06A40F00100A06200207DE7AC02002089
:1028C000244992244992240070B5044690F82400CB
:1028D00001280DD0012084F824002046FFF7DCF801
:1028E00001004FF0000205D084F82420084670BD96
:1028F000022070BDA06A40F20123984340F480702A
:10290000A0621F4D20681F4BA84218D11E6816F404
:10291000702F14D0A66A46F48016A6621E6876054B
:1029200005D5A66A26F4005646F48056A662A66A25
:10293000F6040AD5E66A26F00606E66206E0A66A0E
:1029400026F48016A6624668E9E7E26284F824204D
:102950006FF00202026020688268C2F34242072AD6
:1029600005D1A84208D11A6812F4702F04D08268E9
:1029700042F480128260B9E7826842F4A002F9E76B
:10298000002801400424014070B5044690F824005A
:1029900001280DD0012084F824002046FFF77CF8A0
:1029A00001004FF0000205D084F82420084670BDD5
:1029B000022070BDA06A40F60163984340F4807025
:1029C000A062224D2068224BA84218D11E6816F43E
:1029D000702F14D0A66A46F48016A6621E6876058B
:1029E00005D5A66A26F4005646F48056A662A66A65
:1029F000F6040AD5E66A26F00606E66206E0A66A4E
:102A000026F48016A6624668E9E7E26284F824208C
:102A10006FF0020202602068426842F020024260C9
:102A200020688268C2F34242072A05D1A84208D131
:102A30001A6812F4702F04D0826842F48012826007
:102A4000B4E7826842F4A002F9E7000000280140E0
:102A50000424014004F06CBB10B590F82110002252
:102A6000022905D00421816380F82020012010BDB7
:102A700001680B6823F00E030B6001680B6823F0FC
:102A800001030B6090F84030012404FA03F1C36B9A
:102A9000596080F8214080F82020104610BD0000C9
:102AA0002DE9F05F90F821100024022903D00421C1
:102AB0008163012485E001680A6822F00E020A6041
:102AC00001680A6822F001020A603F4E3E4FB215CB
:102AD000DFF8F4C0DFF8F090DFF8ECA0DFF8E8B042
:102AE000DFF8E4E00168783F13011502ACF1640CF3
:102AF000A9F15009AAF13C0AABF1280BAEF1140E72
:102B00004FF48018B14227D9B9420ED0614512D096
:102B100049451DD0514518D0594518D0714501D1AE
:102B2000424615E0294EB14201D1012210E0274E64
:102B30001436B14201D110220AE0244E2836B142A7
:102B400006D0224A3C32914201D11A4600E02A4680
:102B50001E49091F0A602BE0B94213D0614517D006
:102B6000494522D051451DD059451DD0714501D14F
:102B700042461AE0B14202D14FF0807215E0134E86
:102B8000B14201D1012210E0104E1436B14201D100
:102B900010220AE00D4E2836B14206D00B4A3C32D4
:102BA000914201D11A4600E02A46074980394A601D
:102BB000012180F82110002180F82010416B01B123
:102BC00088472046BDE8F09F80000240080402408C
:102BD00090F821007047000030B585B000200090CB
:102BE00001900290039017480168002927D1012124
:102BF00001601548416941F48071416140690224D6
:102C000000F48070049041F20100CDE90004032536
:102C1000694603950D4800F01FF84FF68070CDE926
:102C20000004694603950A4800F016F84CF2337028
:102C3000CDE9000469460395064800F00DF805B09B
:102C400030BD0000000000200010024000200140C4
:102C500000180140001401402DE9F84FDFF8C09141
:102C60000024A9F1040B23464FF00F0809F1040AD0
:102C7000ABF1040ECCE00127A7403A40BA4272D132
:102C8000DFF8A0C14D68A5EB0C0665452BD00DDC27
:102C9000032D34D005DC35B3012D19D0022D2FD1F1
:102CA0001BE0112D16D0122D2AD119E0B6F5881F80
:102CB00019D006DCB6F5803F15D0B6F5801F1FD1C0
:102CC00011E0B6F5001F0ED0B6F5041F18D10AE0CA
:102CD000CB6815E0CB681B1D12E0CB6808330FE012
:102CE000CB680C330CE08B682BB1012B4FF0080341
:102CF00003D0476104E0042302E0076100E0002301
:102D0000FF2A01D8064601E000F104064FEA8405D7
:102D100001D9A5F12005376808FA05FC27EA0C0758
:102D200003FA05F547EA050737604D68ED006ED5F3
:102D30003D4DAE6946F00106AE61AD6924F0030673
:102D400005F001050095394D7719BE68A5072D0FCF
:102D500008FA05FC26EA0C06DFF8D4C0604503D16A
:102D60004FF0000C25E052E0DFF8C8C0604502D10A
:102D70004FF0010C1DE0DFF8C0C0604502D14FF0FC
:102D8000020C16E0DFF8B4C0604502D14FF0030C2E
:102D90000FE0DFF8ACC0604502D14FF0040C08E052
:102DA000DFF8A0C0604502D14FF0050C01E04FF004
:102DB000060C0CFA05FC4CEA060CC7F808C04D6876
:102DC000D9F80060ED024D4601D5164300E0964368
:102DD0002E604D68DAF80060AD02554601D5164305
:102DE00000E096432E604D68DBF80060AD035D4661
:102DF00001D5164300E096432E604D68DEF8006072
:102E0000ED03754601D5164300E096432E60641C21
:102E10000A6832FA04F57FF42EAFBDE8F88F00009F
:102E200008040140000011100010024000000140A1
:102E300000080140000C0140001001400014014056
:102E400000180140001C01408068084000D00120AB
:102E500070470AB1016170470904FBE701488068C7
:102E600070470000B0020020704770472DE9F04124
:102E7000016804464A694E6890F83E000025D74331
:102E8000FA050BD4F243D20508D46FF48072012501
:102E90004A6121680A6842F400420A60B90508D410
:102EA000F143C90505D422686FF4007145F00205AD
:102EB0005161790525D4F143C90522D4638D94F875
:102EC0003D10226B202808D13BB9212910D0292997
:102ED0000ED0282901D1212A0AD022686FF48061FE
:102EE000516145F00405102806D0402804D008E0C0
:102EF000204602F019F904E02068016841F40071ED
:102F00000160380508D4F043C00505D421686FF48A
:102F1000006045F008054861002D07D0206C28436B
:102F200020642046BDE8F04101F066BDBDE8F081B7
:102F30002DE9F047026800215368C66A90F83E40C8
:102F400090F83D50102C12D0402C10D0046C002C66
:102F50007DD05469E443A6077AD4DE43B60577D41E
:102F6000036C03B19169BDE8F04702F0BAB8976904
:102F700051694FF42A0CC9435FEAC1784FF02A49DE
:102F800004D066452AD04E4528D010E0DE43B60571
:102F90000DD4C16A614501D1012103E0C16A4945EF
:102FA00001D10821C162BDE8F04702F001B80E0767
:102FB00016D4DE43B60513D4416CC9B21161416B1E
:102FC00009B1896A29B9816B002907D0896A00296A
:102FD00004D00068416841F400614160BDE8F087B9
:102FE0008E0706D4DE43B60503D4BDE8F04701F0F2
:102FF00033BFFE43526876074FEA02521DD4002ABF
:10300000ECDB0A0608D4DA43520505D4490705D596
:10301000BDE8F04701F0C6BE4907DFD4D9438905B2
:10302000DCD4212D05D0402CD8D1BDE8F04702F0EA
:1030300004B8BDE8F04701F075BE002ACEDB4A06B1
:103040000BD4DA43520508D4490708D501E00DE056
:103050000EE0BDE8F04701F0E9BD4907BED4D94311
:103060008905BBD4BDE8F04701F072BD916970E7F6
:10307000E10606D4D943890503D4BDE8F04702F040
:103080009BB82826212D27D0292D25D0610655D47F
:10309000D943490552D4610752D590F83D10438D6C
:1030A000002B9BD01269436A1A70426A521C42621A
:1030B000428D521E4285428D002A8FD12A298DD100
:1030C00001684A6822F480624A602221016380F824
:1030D0003D6000F059F981E7210623D4D943490521
:1030E00020D4610720D590F83D10438D002BF2D0FD
:1030F000436A1B781361426A521C4262428D521E1F
:103100004285428D002AE6D12929E4D101684A6826
:1031100022F480624A602121016380F83D6000F062
:1031200034F95BE76107D6D4D9438905D3D4418DFF
:103130000029D0D0416A097811610AE06107CAD438
:10314000D9438905C7D4418D0029C4D01169426A89
:103150001170416A491C4162418D491E41853DE71C
:103160007047000070B5040025D094F83D0000259C
:1031700020B984F83C50204600F0BEF8242084F8A2
:103180003D002068016821F00101016020680168AC
:1031900041F4004101602068016821F400410160B0
:1031A00000F04AFB4D4B6168994201D84C4900E060
:1031B0004C49884201D2012070BD4B492268B0FBC6
:1031C000F1F1566826F03F060E43566062689A4257
:1031D00006D94FF4967251434FF47A72B1FBF2F173
:1031E0002268491C166A26F03F0631431162616865
:1031F000994210D84900401EB0FBF1F2521CC2F3B4
:103200000B02042A01D2042022E0B0FBF1F0401CA2
:10321000C0F30B001CE0A268F2B301EBC10303EBA7
:103220000116431EB3FBF6F35B1C43F480431B05FE
:1032300049D092B301EBC10202EB0111401EB0FB79
:10324000F1F0401CC0F30B0040F4804040F400401B
:103250002168CA694CF6FF739A431043C861D4E9E8
:10326000071001432068026822F0C0021143016088
:10327000D4E9030101432068826848F2FF339A438E
:1032800011438160D4E9051001432068C26822F02F
:10329000FF021143C16001E00EE016E02068016802
:1032A00041F0010101602564202084F83D00256380
:1032B00084F83E50002070BD01EB4106431EB3FB75
:1032C000F6F35B1CB3E70120C2E701EB4101401EAE
:1032D000B0FBF1F0401CC0F30B00B7E7A086010083
:1032E00080841E0000093D0040420F007047704777
:1032F000704770477047000010B586B000210091FC
:1033000001910291039100681B49884232D11B4C04
:10331000A06940F00800A061A069694600F00800BB
:1033200004904FF44070009012200190032003900D
:103330001348FFF791FC1349486840F0E06040F003
:1033400002004860E06940F40010E061E06900229A
:1033500000F40010049005211F2000F0A9F81F20A0
:1033600000F098F800220521202000F0A1F820208C
:1033700000F090F806B010BD00540040001002406C
:10338000000C01400000014070477047024881680E
:103390000278114481607047B0020020074810B5E0
:1033A000016841F010010160032000F0A1F80F2036
:1033B00000F006F800F04AF8002010BD002002409E
:1033C00030B505461C4887B0816941F400618161D0
:1033D000806905A900F400600690684600F00CFAC8
:1033E00000F03AFA1549164AB0FBF1F11548491EAA
:1033F000026040F2E732C26000220261C0E90112BD
:10340000826100F069FE040012D10E4800F0B0FEA7
:1034100004000DD1192000F03DF8102D07D2002234
:103420002946192000F044F80748056000E001240F
:1034300007B0204630BD00000010024040420F009F
:10344000002C0140A4080020B40200200F4808B559
:10345000816941F001018161816901F001010091FF
:10346000C16941F08051C161C069002200F0805003
:1034700000900F21901E00F01BF80549486820F0CD
:10348000E06040F00070486008BD0000001002409D
:1034900000000140002809DB00F01F0201219140DB
:1034A0004009800000F1E020C0F8001170470000E2
:1034B000F0B40E4B1B68C3F30223C3F10704042CC2
:1034C00000D904241D1D072D01D2002300E0DB1EBE
:1034D000012606FA04F56D1E0D409D409E40761EA5
:1034E000164045EA0601F0BC03F0DCBE0CED00E03E
:1034F000064A00F0070110684FF6FF03184040EA43
:103500000120034908431060704700000CED00E003
:103510000000FA05014901200862704700000E42D0
:1035200010B501460020284C04292FD00BDC0129BE
:1035300030D0022929D100F08FF96168C1F38131BF
:10354000491C49001FE0082920D010291DD16168BD
:103550002268D20119D51D48C1F38342C903805C9A
:103560000AD56168194AC1F34041921E515C184A5C
:10357000B2FBF1F1484301E0164948436168490252
:1035800003D440000321B0FBF1F010BDBDE81040B2
:1035900000F072B9216AC1F30122012A03D189071F
:1035A00001D5D00310BD022A05D1616A890702D571
:1035B00049F6404010BD032AFCD121688903F9D5A2
:1035C0004FF2244010BD0000001002403F350308B8
:1035D00000127A0000093D002DE9F8430446007806
:1035E000344FC00752D0F8690025C00008D4F869EC
:1035F00040F08050F861F869012500F0805000909B
:103600002D480168C90511D40168804641F48071D4
:103610000160FFF723FC064604E0FFF71FFC801B58
:10362000642822D8D8F80000C005F6D5386A10F40E
:10363000407020D0A18801F4407181421BD0386ACB
:103640001E49012220F440700A6000220A6038629C
:10365000C00710D0FFF702FC064641F2883807E0A9
:10366000FFF7FCFB811B414502D90320BDE8F8832D
:10367000386A8007F4D5386A616820F440700843DE
:1036800038621DB1F86920F08050F8612078800719
:1036900005D57868A16820F4404008437860207818
:1036A000C00605D57868616920F480000843786019
:1036B0000020DBE70010024000700040400442425E
:1036C0002DE9F0470D46040067D0DFF81881D8F8DF
:1036D000000000F00700A8420CD2D8F8001021F03A
:1036E00007012943C8F80010D8F8000000F00700CF
:1036F000A84252D120683C4E810712D5400703D51D
:10370000706840F4E06070602078000703D570684E
:1037100040F4605070607068A16820F0F0000843C9
:1037200070602078C00727D06068012810D0316809
:10373000022810D0890700292FDA716821F00301CF
:1037400001437160FFF78AFB074641F288390CE0BC
:1037500031688903EFE78901EDE7FFF77FFBC11BC4
:10376000494502D90320BDE8F0877068616800F020
:103770000C00B0EB810FF0D1D8F80010404601F0FA
:103780000701A9420BD9016821F007012943016013
:10379000006800F00700A84201D00120E3E720788C
:1037A000400705D57068E16820F4E0600843706068
:1037B0002078000706D57068216920F4605040EA3F
:1037C000C100706000F058F87168084AC1F3031135
:1037D000515CC8400649086006480068FFF7F0FDE4
:1037E0000020C0E70020024000100240133503080B
:1037F000AC020020B40200200F2202600C4A536881
:1038000003F003034360536803F0F00383605368DD
:1038100003F4E063C36052684FF4E06303EAD2024A
:1038200002610448006800F007000860704700006B
:103830000010024000200240044805490068496821
:10384000044AC1F30221515CC8407047AC02002019
:103850000010024023350308044805490068496800
:10386000044AC1F3C221515CC8407047AC02002039
:1038700000100240233503080E4B59680E4801F032
:103880000C02042A11D0082A0FD10C48C1F383423C
:10389000C903805C0AD55968084AC1F34041921EA9
:1038A000515C054A5043B0FBF1F07047044948436E
:1038B000704700000010024000127A002D35030806
:1038C00000093D002DE9F84F04006FD02078BE4D6F
:1038D000C00747D06868C0F38100012807D0686836
:1038E000C0F38100022809D16868C00306D52868A2
:1038F000800337D560680028E7D033E06068B0F512
:10390000803F0BD010B1B0F5A02F11D0286820F463
:1039100080302860286820F4802002E0286840F485
:1039200080302860606888B1FFF798FA064609E0A1
:10393000286840F480202860F0E7FFF78FFA801BAA
:10394000642873D828688003F7D50BE0FFF786FA60
:10395000064604E0FFF782FA801B6428F1D8286845
:103960008003F7D42078DFF8648280074FF0010AE3
:103970004FF0000939D5686810F00C0F07D068685F
:10398000C0F38100022809D16868C00306D4286802
:10399000800714D52069012808D110E02069B0B152
:1039A000C8F800A0FFF75AFA064605E007E1FFF75E
:1039B00055FA801B0228C4D828688007F7D52868E4
:1039C000616920F0F80040EAC10028600DE0C8F805
:1039D0000090FFF743FA064604E0FFF73FFA801B2A
:1039E000022823D828688007F7D4207800072CD530
:1039F0007748A169D9B1C0F800A0FFF72FFA0646B1
:103A000004E0FFF72BFA801B02280FD8686A8007B2
:103A1000F7D570484FF4FA510068B0FBF1F0009010
:103A200000BF0098411E0091FAD20EE07CE0C0F881
:103A30000090FFF713FA064604E0FFF70FFA801B29
:103A4000022871D8686A8007F7D4207840075BD5D0
:103A5000E8690027C00008D4E86940F08050E861B8
:103A6000E869012700F0805000905B480168C905B3
:103A700011D40168834641F480710160FFF7EEF9CB
:103A8000064604E0FFF7EAF9801B64284CD8DBF80F
:103A90000000C005F6D5E06801280AD008B1052865
:103AA00013D0286A20F001002862286A20F0040060
:103AB00002E0286A40F001002862E06841F2883B99
:103AC00088B1FFF7CBF9064609E0286A40F0040008
:103AD0002862EEE7FFF7C2F9811B59455BD8286AD7
:103AE0008007F7D50BE0FFF7B9F9064604E0FFF7CA
:103AF000B5F9811B59454ED8286A8007F7D41FB104
:103B0000E86920F08050E861E069A8B36968C1F312
:103B10008101022946D00228484606D0C8F8600034
:103B2000FFF79CF9044639E035E04746C8F86000E5
:103B3000FFF794F9064604E0FFF790F9801B02288E
:103B400029D828688001F7D4206AB0F5803F05D1D4
:103B50006868A16820F4003008436860D4E908016F
:103B60000843696821F4741108436860C7F860A0CD
:103B7000FFF774F9044605E023E0FFF76FF9001B37
:103B8000022808D828688001F7D51AE0FFF766F9FF
:103B9000001B022802D90320BDE8F88F28688001A5
:103BA000F4D40EE00128F7D06868226A00F480316E
:103BB000914204D1616A00F47010884201D0012062
:103BC000EAE70020E8E7000000100240000042425F
:103BD00080044242AC02002000700040024850F8CD
:103BE000210080B270470000006C0040024800EBEA
:103BF000810091B201607047006C004070477047CF
:103C000010B5044600680168C90717D04168C907A4
:103C100014D040684007204607D5FFF7F0FF216821
:103C20006FF004004860042002E0FFF7E7FF012086
:103C300060742068416821F00101416010BDF8B551
:103C400005004FF0000016460C46009006D02CB13F
:103C500000226946284600F019F808B10120F8BD95
:103C6000287B2070E87BE070697B6170A97BA17084
:103C700056B102F0F3FEE070607802F0EFFE607083
:103C8000A07802F0EBFEA0700020F8BD2DE9F0470F
:103C900091460C465FEA00084AD084B3D8F8000089
:103CA0004068400744D4404602F07BFF4FF4616215
:103CB000B0FBF2F10546B0FBF2F002FB10533C20E2
:103CC000B3FBF0F36370B5FBF2F302FB1352B2FBEC
:103CD000F0F300FB1320A070182931D31820B1FB9A
:103CE000F0F6B1FBF0F200FB12102070404602F03B
:103CF00051FF411C04D0A84202D9471B02E017E043
:103D00004FF0FF37A6EB061000EB4000C0EB0010B1
:103D100005EBC0152946404602F0C3FF40B9781CA8
:103D200001D0791900E03946404602F0A6FF10B1F3
:103D30000120BDE8F0873146404602F09AFE00E0DF
:103D40002170B9F1000F0BD0207802F087FE2070AF
:103D5000607802F083FE6070A07802F07FFEA070B1
:103D60000020E6E770B5040003D0607C002610B1A7
:103D700005E0012070BD2674204600F03DF80220C9
:103D80006074204600F016F9042550BB204602F06E
:103D9000C7FE30BB2068416821F007014160A06880
:103DA00020B11448016821F0010101601148001F91
:103DB0000168A26821F46071114301606068411CD0
:103DC00004D10120FFF7ACFB58B1401E2268C0F3BC
:103DD00003419160216880B2C860204602F0BAFEBB
:103DE00008B16574C5E7E67301206073A073607461
:103DF000002070BD306C004008B500680D49884255
:103E000017D1FFF787FB0C48C16941F00061C16120
:103E1000C0690A4900F0006000900120086000229B
:103E200005210320FFF744FBBDE808400320FFF70E
:103E300031BB08BD00280040001002403C04424253
:103E40002DE9F0410D4604003BD0C5B3207C01288C
:103E50003AD04FF0010884F8108002206074E878AE
:103E600072B302F0F2FDE073687802F0EEFD607369
:103E7000A87802F0EAFDA073C2B2617BE07B02F099
:103E8000D1FE20732870204602F08BFE4FF4616152
:103E9000B0FBF1F1002518292DD91822B1FBF2F160
:103EA000A1EB011101EB4101C1EB011100EBC116C6
:103EB0003146204602F0F5FE0427C8B90BE000E0C9
:103EC00004E00120BDE8F0810220FBE7E0736878A0
:103ED0006073A878CFE7204602F05CFE411C0AD050
:103EE000B04208D206490144204602F0C6FE10B195
:103EF00067742574E5E784F8118025740020E1E7F4
:103F0000805101002DE9F0410D46040024D01DB37D
:103F1000207C012823D04FF0010884F81080022073
:103F20006074F2B1287802F090FD4FF4616100FBFB
:103F300001F6687802F089FDC0EB001006EB800600
:103F4000A87802F082FD35182946204602F0A9FE25
:103F50000026042718BB10E00120BDE8F0810220F4
:103F6000FBE729784FF4616041436878C0EB0010AB
:103F700001EB8000A9784518E6E72068416821F048
:103F800005014160204602F005FE411C0AD0A8420E
:103F900008D207490144204602F06FFE10B1677451
:103FA0002674D9E784F8118026740020D5E7000034
:103FB0008051010070B504000AD02068416821F0EA
:103FC00008014160FEF74AFF05464FF47A7608E0A3
:103FD000012070BDFEF742FF401BB04201D9032013
:103FE00070BD206840680007F4D5002070BD70B532
:103FF00015460E46040007D0A069B0F5807F03D0B7
:1040000094F8410010B107E0012070BD002084F851
:104010004000204600F01DF804F108012068FDF77B
:10402000E9FF3146A2682068FEF718F8D4E90102DA
:104030002946236BFDF7C0FFA168206850F82120B6
:1040400042F0010240F82120012084F841000020C4
:1040500070BDFEF7C1BD70477047000070B590F8A5
:104060003C20012A2CD0012580F83C50022280F807
:104070003D2002685368946823F070060B68334350
:104080005360104B02689A420ED00F4B9A420BD0ED
:10409000B2F1804F08D00D4B9A4205D00C4B9A429A
:1040A00002D00C4B9A4204D1496824F08003194392
:1040B000916080F83D50002180F83C10084670BDAA
:1040C000022070BD002C014000340140000400407B
:1040D00000080040000C004010B5040003D094F824
:1040E0003D0010B107E0012010BD002084F83C0025
:1040F000204600F01FF8022084F83D00211D2068B2
:1041000002F040FE012084F8460084F83E0084F866
:104110003F0084F8400084F8410084F8420084F8AD
:10412000430084F8440084F8450084F83D000020F2
:1041300010BD000008B500680B49884212D10B4839
:10414000C16941F00201C161C069002200F00200B2
:10415000009005211D20FFF7ABF9BDE808401D20A8
:10416000FFF798B908BD00000004004000100240AD
:1041700090F83D10012901D001207047022180F8FC
:104180003D100168CA6842F00102CA6000680E4929
:1041900088420ED00D4988420BD0B0F1804F08D034
:1041A0000B49884205D00B49884202D00A4988420F
:1041B00004D1816801F00701062903D0016841F0AC
:1041C0000101016000207047002C014000340140D3
:1041D0000004004000080040000C004070B5044698
:1041E00090F83C000025012817D0012684F83C6097
:1041F000022084F83D002068826822F0770222F4D1
:104200007F4282600868502838D00DDC20284FD0CB
:1042100005DC90B3102811D14AE0022070BD30288F
:1042200046D040280AD13BE060282FD070280DD01E
:10423000B0F5805F03D0B0F5005F12D0012584F89F
:104240003D60002084F83C00284670BDCB68D1E971
:104250000121206802F0E4FD2068816841F07701C7
:1042600009E0CB68D1E90121206802F0D9FD20687E
:10427000816841F480418160E1E719E0CA684968DA
:10428000206802F0DFFD5021206806E0CA68496816
:10429000206802F0E8FD6021206802F0CBFDCEE747
:1042A000CA684968206802F0CDFD40212068F4E723
:1042B000226801461046F0E770472DE9F0410446B8
:1042C0000068C66805694FF00007A90713D5B10754
:1042D00011D5F91E016101202077206880698007CF
:1042E000204602D0FFF7E8FF04E000F07EF8204609
:1042F00000F07CF82777680716D5700714D5216879
:104300006FF004000861022020772068806910F4B3
:10431000407F204602D0FFF7CFFF04E000F065F8B1
:10432000204600F063F82777280715D5300713D506
:1043300021686FF008000861042020772068C069B8
:104340008007204602D0FFF7B7FF04E000F04DF8E9
:10435000204600F04BF82777E80616D5F00614D56E
:1043600021686FF010000861082020772068C0697C
:1043700010F4407F204602D0FFF79EFF04E000F0DB
:1043800034F8204600F032F82777E80708D0F00725
:1043900006D021686FF001000861204600F028F87F
:1043A000280608D5300606D521686FF08000086120
:1043B0002046FFF750FE680608D5700606D521682E
:1043C0006FF040000861204600F01CF8A8060AD5EE
:1043D000B00608D521686FF0200008612046BDE8CE
:1043E000F041FFF739BEBDE8F0817047704700002B
:1043F00000680349884201D1FEF7C8BF704700003A
:10440000002C01407047704770470000F8B5016804
:1044100004460868CA684B6910F00F0F4FF000059A
:1044200059D003F0010602F49077374365D0C107F5
:1044300005D0D10503D5616C41F0010161644107EC
:1044400005D5D90703D0616C41F002016164810791
:1044500005D5D90703D0616C41F0040161640107FF
:1044600007D502F02001314303D0616C41F008010F
:104470006164616C00293AD0800604D5900602D5AB
:10448000204602F040FD20684069616CC0F3801056
:10449000090700D460B3204602F00EFD2068406991
:1044A000400621D52068143050E8001F21F040015B
:1044B00040E80012002AF5D1E06BA8B16D494163D4
:1044C000E06BFEF7EDFA002811D0E06B416B01B014
:1044D000BDE8F040084783060FD593060DD520466A
:1044E000BDE8F84002F00FBD2046FFF78DFFF8BD94
:1044F0002046FFF789FF6564F8BD266B2023012E57
:104500007CD1C6067AD5D60678D50868486800906A
:1045100048694FF00206400640D5E16B08684068E4
:104520000004000CE8D0A28D8242E5D9E0858869BC
:1045300020282DD020680C3050E8001F21F4807115
:1045400040E80012002AF5D12068143050E8001F1E
:1045500021F0010140E80012002AF5D12068143052
:1045600050E8001F21F0400140E80012002AF5D178
:1045700084F84230256320680C3050E8001F21F099
:10458000100140E80012002AF5D1E06BFEF764FA52
:104590006663A08DE18D401A81B22AE0A08DE18D85
:1045A000401A81B2E08D0028A6D00029A4D020684E
:1045B0000C3050E8002F22F4907240E80027002FC2
:1045C000F5D12068143050E8002F22F0010240E8B5
:1045D0000027002FF5D184F84230256320680C3085
:1045E00050E8002F22F0100240E80023002BF5D104
:1045F00066632046FFF707FFF8BDFFE705062BD5EA
:10460000150629D594F841002128F5D1A068B0F508
:10461000805F01D12069B0B1206A411C216221680C
:1046200000784860E08C401E0004000CE084E3D178
:104630002068C16821F08001C1602068C16841F034
:104640004001C160D8E7206A0088C0F308004860D4
:10465000206A801C2062E5E74006CDD55006CBD508
:10466000CA68204622F04002CA6084F8413000F057
:10467000FEF8C1E7A96E000870B5040004D094F8F4
:104680004100002510B106E0012070BD84F84050C3
:10469000204600F023F8242084F841002068C168F7
:1046A00021F40051C160204602F08EFC20680169AF
:1046B00021F4904101612068416921F02A014161A2
:1046C0002068C16841F40051C1606564202084F80D
:1046D000410084F842006563002070BD70B586B06B
:1046E0000024009401940294039401683248314EEE
:1046F000022203230515B14226D1816941F480418C
:104700008161816901F480410491816941F0040172
:1047100081618069294E00F0040004901002CDE907
:104720000002694603933046FEF796FACDE900543D
:10473000694630460294FEF78FFA002205212520B3
:10474000FEF7B6FE252031E01D4EB14230D1C169E1
:1047500041F48021C161C16901F480210491816922
:1047600041F0100181618069CDE9005200F0100034
:10477000CDE90330134D69462846FEF76DFAE8147B
:10478000CDE90004694628460294FEF765FA0E4911
:10479000486820F0300040F0E06040F010004860D1
:1047A000002205212720FEF783FE2720FEF772FE58
:1047B00006B070BD00380140001002400008014002
:1047C00000480040001001400000014070472DE902
:1047D000F843044690F841001F4615460E4620282F
:1047E00002D00220BDE8F8838EB185B1002060645C
:1047F000212084F84100FEF731FBA5848146E58441
:10480000A0684FF02008B0F5805F02D003E00120DF
:10481000E8E7206910B1354600260EE000250CE0DF
:104820008021204602F02CFCA0B9BDB115F8010B87
:1048300021684860E08C401EE084E08C4B464FF0DD
:10484000000200970028EBD14FF04001204602F013
:1048500017FC40B184F841800320C3E736F8020B0F
:10486000C0F30800E4E784F841800020BAE770470D
:1048700002F072BCFEE70000204D02F07DFCFDF767
:10488000A9F91F48FDF746FD1E48FDF743FD032427
:1048900007E0641EE4B2FDF71BFBFDF733FB286362
:1048A00014B1286B0028F4D1032405E0641EE4B29F
:1048B00001F072F9A86114B1A8690028F6D10324A7
:1048C00005E0641EE4B201F01DFA686214B1686A82
:1048D0000028F6D118F03CFE1EF094FF1EF0B6FF43
:1048E0002BF0CEFF08A0FBF7A7FD00202CF032FA3A
:1048F0004FF4FA7024F058FBBFE700000C000020D2
:10490000BC060020EC06002048656C6C6F20576FD9
:10491000726C64210D0A00000148FEF7A7BA00007E
:10492000640700200148FEF703BB00006407002075
:1049300038B5406A002290F83D302A490C6846F2AA
:10494000A811B4FBF1F1C1EBC10101EB81010091B0
:1049500039B1491E009101680968890505D500999A
:10496000F6E7016C41F020010164416B01B18A62FC
:10497000816B01B18A6201680C6824F480640C6068
:104980004285416B01B14A63816B01B14A630168A1
:104990000C6824F001040C6090F83D402021602C4C
:1049A0000AD0282434EA03030ED080F83D1080F8A2
:1049B0003E20FEF7D5FB38BD80F83D1080F83E2044
:1049C0000264FEF751FA38BD01680B6843F0010339
:1049D0000B6001680B6843F480630B60026380F82E
:1049E0003D40E6E7AC02002000684169C943090682
:1049F00001D400210161704770B5044690F83D0074
:104A000094F83E10102901D0402906D1222804D163
:104A100021680A6822F400620A60282131EA000253
:104A20004FF000054FF0200626D02168496809059F
:104A300005D4602803D084F83D6084F83E50256397
:104A400020684168090537D5416821F4006141605B
:104A5000606B90F821203C49012A11D04163606BC2
:104A6000FEF71EF838B32068016821F001010160EB
:104A700084F83D60606B1CE0256384F83D10DFE73F
:104A8000A06B4163A06BFEF70BF8A0B120684169F1
:104A9000C943490605D40069616A0870606A401C10
:104AA00060622068016821F00101016084F83D60C6
:104AB000A06B416B884710E094F83D10602910D03E
:104AC0004169C943490605D40069616A0870606A92
:104AD000401C60622046FEF743FB206CC1071CD1DE
:104AE00015E084F83D6025644169C943490605D451
:104AF0000069616A0870606A401C60622068016831
:104B000021F0010101602046FEF7AEF9E5E78107DB
:104B100003D4410701D4000704D52068416821F47B
:104B2000E061416094F83D00216C49070BD52828CD
:104B300009D10648E062256384F83D6084F83E5060
:104B40002046FEF7D3FB70BD314900080000FFFF8F
:104B500010B5C26A438D0168042B06D0438D032B28
:104B600008D0438D022B1DD012E04A6822F48062E7
:104B70004A600CE04B6823F480634B60042A06D043
:104B8000022A04D001680A6822F480620A6001687F
:104B90000969426A1170416A491C4162418D491E8E
:104BA000418510BD012A34D0102A32D0042A34D0D5
:104BB000022A32D00B6843F400730B600168096964
:104BC000436A1970416A491C4162438D5B1E4385EB
:104BD00003681B690B70416A491C4162418D491E83
:104BE000418501684B6823F440734B60202180F8B5
:104BF0003D1090F83E300021402B80F83E1010D040
:104C0000082A02D0202A00D012210163FEF76FFB90
:104C100010BD0B6823F48063CFE70B6843F4806317
:104C2000CBE70163FEF765FB10BD000038B590F8D7
:104C30003D10222910D1C36A418D03290DD9016885
:104C40000969426A1170416A491C4162418D491EDD
:104C50004185418D032906D038BDC26A022A02D09F
:104C6000012906D029B10068416821F480614160C2
:104C700038BD2B4946F2A812002409682025B1FB53
:104C8000F2F101EB810100910168009A521E00923D
:104C900026D00A689205F8D40A6822F480620A6075
:104CA00001684A6822F4E0624A6001680969426A60
:104CB0001170416A491C4162418D491E418580F84D
:104CC0003D5090F83E1080F83E40402921D0082BFE
:104CD00023D0202B21D012210163FEF708FB38BD21
:104CE000026C42F0200202644A6822F4E0624A60E8
:104CF00001680969426A1170416A491C4162418D2B
:104D0000491E418580F83D5080F83E40FEF728FA64
:104D100038BD0463FEF7EDFA38BD0463DDE700003B
:104D2000AC02002010B5C16A90F83D20212A0BD1B9
:104D3000428D52B1416A026809781161416A491C89
:104D40004162418D491E418510BD20230022082962
:104D500012D0202910D011F5803F0DD001684C6889
:104D600024F4E0644C601121016380F83E2080F857
:104D70003D30FEF7BDFA10BD01684C6824F4E064D4
:104D80004C6001680C6844F400740C60026380F8A5
:104D90003D3090F83E1080F83E204029E9D1FEF7E2
:104DA000A9FA10BD10B590F83D2090F83E30C16AC8
:104DB000048DB4B1212A03D0402B11D1222A0FD166
:104DC000418DE9B390F83E10402940D0416A026815
:104DD00009781161416A491C4162418D491E418532
:104DE00010BD212AE8D120230022082912D0202931
:104DF00010D011F5803F0DD001684C6824F4E064B8
:104E00004C601121016380F83E2080F83D30FEF7B0
:104E10006FFA10BD01684C6824F4E0644C600168CE
:104E20000C6844F400740C60026380F83D3090F824
:104E30003E1080F83E204029E9D1FEF75BFA10BD14
:104E4000FFE70068416821F480614160F7E7BDE851
:104E5000104000F0F2B8000078B590F83E40C26A09
:104E6000056B90F83D6000230168222E73D1066D1A
:104E70000EB9402C6FD0046D1CB90469B4F5404FD5
:104E80001BD0448D94B3468D484C012E20D0458DC7
:104E9000022D4DD00D6845F480650D6001684D68A8
:104EA0002D0579D5A24273D0012A71D0082A6FD07E
:104EB000102A6DD0202A6BD06EE04A698A69009270
:104EC0000A6842F480720A60016D491C016578BD70
:104ED000A24214D10A6822F480620A6001684A681A
:104EE000120504D50A6822F4806217E0FFE74A69D8
:104EF0008A6900920A6842F400720A6050E0082A47
:104F000010D0202A0ED0122D0AD0042A03D0022A53
:104F100001D0102AE6D10A6842F480620A603BE0C0
:104F2000012ADFD00A6822F480620A600168DEE7A5
:104F3000042A11D0022A0FD0102A0DD00D6845F492
:104F400000650D6001684D698D6900950D6825F457
:104F500080650D6008E025E00D6845F480650D6012
:104F600001684D698969009101684D682D0517D563
:104F7000A24207D0012A05D0082A03D0102A01D066
:104F8000202A0DD14A6842F480524A6008E0FFE7C7
:104F90004A6842F480524A6001684A69896900910E
:104FA000036578BD48698869009078BD0000FFFFFF
:104FB00090F83E1040290FD00169B1F5804F18D00C
:104FC000016DA1B3016D01290FD1416CF12201F4F2
:104FD000407142EAD11106E0016D0029416C05D013
:104FE000C9B241F0010100680161704701F0FE01A2
:104FF000F9E790F83D102129416C09D0C9B241F080
:10500000010102681161416B29B1896A49B902E065
:1050100001F0FE01F5E7816B0029E6D0896A0029DD
:10502000E3D00068416841F4006141607047FFE7E8
:10503000416CF02201F44071CBE710B590F83D10BF
:10504000026D4AB1026D012A14D0026D022A16D0F7
:10505000BDE81040FFF7C8BCC16C0129816C02D0CB
:10506000C1F3072108E00268C9B21161016D891C12
:10507000016510BD816CC9B20268116123E022296B
:105080001CD0428D0AB1212920D0428D002AF0D1B6
:105090002129EED101684A6822F4E0624A60016881
:1050A0000A6842F400720A6000210163202280F83D
:1050B0003D2080F83E10FEF71DF910BD01680A681A
:1050C00042F480720A60016D491CD1E7416A0268AE
:1050D00009781161416A491C4162418D491E41852F
:1050E00010BD38B50D4690F83D200021282494438A
:1050F00002680B4605D051699169009180F83C30F7
:1051000038BD546824F480645460EA43540700D5E1
:105110000121120601D5828900E0028B80F83C3023
:1051200092B2FDF7A2FE38BD2DE9F04190F83D2086
:105130000446C16A002520261E4F00686FF4806374
:10514000082901D0202901D1282A04D0212A17D0EA
:105150004361BDE8F081E762416821F4E0614160AC
:10516000206843612068016821F480610160256343
:1051700084F83D6084F83E502046FEF7B7F8E8E733
:10518000E7622121216384F83D6084F83E50416844
:1051900021F4E0614160206843612068016821F4E6
:1051A000806101602046FFF71FFC2046FEF7EDF806
:1051B000CFE700000000FFFFF8B590F83D5004462F
:1051C0000068416821F4E06141602068002641697F
:1051D0000091016841F0010101602068016821F43B
:1051E0008061016020684168090520D5474F222D64
:1051F00048D02A2D46D0616B096849686185618D68
:1052000019B1216C41F004012164416821F400616D
:105210004160606BFDF7DCFC012808D0606B4763E0
:10522000606BFDF73DFC10B1606B416B8847608D92
:1052300008B320684169C943490708D40069616A15
:105240000870606A401C6062608D401E6085206846
:105250004169C943490608D40069616A0870606AF7
:10526000401C6062608D401E6085608D18B1206CAE
:1052700040F004002064206C00B32046BDE8F840F4
:10528000FFF7BABBA16B096849686185618D19B1E7
:10529000216C41F004012164416821F40061416006
:1052A000A06BFDF795FC0128C1D0A06B4763A06BF4
:1052B000FDF7F6FB0028BAD0A06BB6E72A2D06D181
:1052C0002663282084F83D002046FEF75DF894F818
:1052D0003D10202028290DD0216B222901D0222D1C
:1052E00007D1266384F83D0084F83E602046FEF72F
:1052F0004BF8F8BD0649E162266384F83D0084F866
:105300003E602046FDF7F2FFF8BD0000314900087D
:105310000000FFFF1CB504001FD0002201A90F48A8
:10532000FEF7B4FC002269460C48FEF788FC9DF8A5
:105330000300E0709DF8011061709DF80220A270DA
:1053400014232BF0AEFF20709DF8040020719DF80F
:10535000050060719DF80600A0711CBDB807002013
:1053600001F030BC01F048BC10B5012901D0022980
:1053700003D1401E0C31C0B2C9B21A24491C61438A
:105380000A24B1FBF4F100EB900000EB9300084419
:105390001044594200EB4100401E00E0C01D0028AF
:1053A000FCDB072190FBF1F201FB120000B90720A2
:1053B000C0B210BD70B5134D4FF4006400222146F9
:1053C0002846FDF746FD0220FCF7D8FD0122960293
:1053D00031462846FDF73DFD0220FCF7CFFD0022B7
:1053E00031462846FDF735FD0220FCF7C7FD0122B6
:1053F00021462846FDF72DFDBDE870400220FCF750
:10540000BDBD0000000C0140154810B5816986B093
:1054100041F008018161816901F00801049181690D
:1054200041F00801816180690E4C00F00800049091
:105430004FF48060009001200190029003200390BF
:1054400069462046FDF708FCE11400911121019105
:1054500069462046FDF700FC00F0B0F806B010BD2C
:1054600000100240000C014070B50E4C0122D10228
:105470002046FDF7EEFC0220FCF780FD012295029C
:1054800029462046FDF7E5FC0220FCF777FD0022C7
:1054900029462046FDF7DDFCBDE870400220FCF700
:1054A0006DBD0000000C01402DE9F0470024174EAF
:1054B000804625464FF400694FF480676006040E6D
:1054C000012239463046FDF7C4FC0220FCF756FDA8
:1054D00049463046FDF7B8FC08B1641CE4B200222E
:1054E00039463046FDF7B5FC0220FCF747FD6D1C40
:1054F000EDB2082DE2D3B8F1000F04D0FFF75AFF48
:105500002046BDE8F087FFF7AFFFF9E7000C014048
:105510002DE9F041154F002405464FF400683E1573
:10552000280601D5012200E0002241463846FDF759
:1055300090FC0220FCF722FD012231463846FDF79F
:1055400088FC0220FCF71AFD002231463846FDF7A0
:1055500080FC6806641C050EE4B2082CE0D34146CA
:105560003846BDE8F0410122FDF773BC000C014054
:1055700070B50122104DD40221462846FDF769FC82
:105580000122960231462846FDF763FC0220FCF713
:10559000F5FC002221462846FDF75BFC0220FCF7C3
:1055A000EDFC002231462846FDF753FCBDE8704073
:1055B0000220FCF7E3BC0000000C014070B50E4D6A
:1055C0004FF40064002221462846FDF742FC0220E9
:1055D000FCF7D4FC012291022846FDF73AFC022098
:1055E000FCF7CCFC012221462846FDF732FCBDE841
:1055F00070400220FCF7C2BC000C01402DE9F041D4
:105600000122174E0024D702254639463046FDF7C1
:1056100020FC0220FCF7B2FC4FF4806801224146D6
:105620003046FDF716FC0220FCF7A8FC07E0641CDE
:10563000E4B2FA2C03D9FFF7C1FF012505E0394692
:105640003046FDF701FC0028F1D1002241463046EA
:10565000FDF7FFFB0220FCF791FC2846BDE8F08136
:10566000000C014030B505460A48048840882146B0
:105670004443491E401E8AB283B20021084600F00E
:105680005BF90021044801E00580491CA142FBD3DD
:1056900030BD0000601900200008006C2DE9FE4FAD
:1056A0000026A2EB000882465F1A701E3546894626
:1056B000B8F1000F02DD4FF0010102E003D14FF01D
:1056C0000001019102E0C8F100080190002F02DD05
:1056D0004FF0010002E003D14FF00000009002E023
:1056E000C7F1000700904046B84501DD044600E0E0
:1056F0003C46601C4FF0000B029015E01FFA89F148
:105700001FFA8AF000F016F846443D44A64202DD36
:105710000199361B8A44A54202DD00992D1B89445C
:105720000BF101001FFA80FB02998B45E6DDBDE815
:10573000FE8F000000B500F0FBF802480249008827
:10574000088000BD0C0300200008006C2DE9F0412A
:10575000141A641CA6B25C1A641CA7B2DDF8188087
:1057600000F0EAF800250AE0002404E0404600F0DA
:105770000DFA641CA4B2B442F8D36D1CADB2BD42A4
:10578000F2D3064841880088491EBDE8F041401E1A
:105790008BB282B20021084600F0CEB8601900201A
:1057A00010B56420FCF7DDFB5F4CCF20208000218A
:1057B000A01C0180C921018030210180ED212180C0
:1057C0006421018003210180122101808121018057
:1057D000E821218085210180102101807A2101802A
:1057E000CB212180392101802C21018000210180E1
:1057F0003421018002210180F721218020210180B4
:10580000EA212180002101800180C02121801B210B
:105810000180C121218000210180C521218030210A
:1058200001800180C7212180B7210180362121809C
:10583000082101803A21218055210180B121218058
:10584000002101801A210180B62121800A210180D6
:10585000A2210180F22121800021018026212180C6
:1058600001210180E02121800F2101802A21018076
:1058700028210180082101800E210180082101805A
:1058800054210180A9210180432101800A21018046
:105890000F21018000210180018001800180E12130
:1058A000218000210180152101801721018007211D
:1058B000018011210180062101802B2101805621C8
:1058C00001803C21018005210180102101800F21F0
:1058D00001803F21018001800F2101802B21218047
:1058E000002101800180012101803F2101802A21C6
:1058F00021800021018001800180EF2101801120A1
:1059000020807820FCF72DFB29202080002000F04B
:10591000F5F8012211460548FDF79BFABDE8104055
:105920004FF6FF70FFF79EBEFE07006C000C0140B3
:105930000B460246AFF30080F0B40D4E0D4FB48914
:105940003C80050ABC1C2580C0B22080100A208043
:10595000D0B22080F0893880080A2080C8B2208028
:10596000180A2080D8B22080F0BC00F0B5B8000042
:1059700060190020FE07006C2DE9FF4F81B00EAECC
:10598000824696E83100203800F0FF080298DFF8E0
:10599000E0B02044401E83B20AEB5400BBF8001074
:1059A000401E009182B250460299FFF7C5FF4FF0AA
:1059B00000067DBB2F4908EB480001EB800901F28E
:1059C000744000EB081817E00C2C03D018F80650B0
:1059D00000270CE019F80650FAE7E80701D0039811
:1059E00000E0049800F0D2F86D087F1CFFB2B7EB1E
:1059F000540FF2D3761CF6B2A642E5D327E00C2C66
:105A000009D01D4800EB08100025875D029800EBC7
:105A1000060915E019E0174808EB480100EB810082
:105A2000F2E70398ABF80000F80706D00AEB050090
:105A30001FFA89F180B2FFF77DFE7F086D1CEDB281
:105A4000B5EB540FEDD3761CF6B2A642D7D300982F
:105A5000ABF8000009484188008805B0491EBDE840
:105A6000F04F401E8BB282B200210846FFF764BFA0
:105A70000C0300204F350308C339030860190020C8
:105A80002DE9FE4F044600F0FF0810190D46DDE930
:105A90000C761FFA80FA58191FFA80F94FF0000BA4
:105AA00013E0544502D3E91944468DB24D4511D255
:105AB0008DE881084FF6FF73294620460E9AFFF7BE
:105AC0005BFF04EB570084B2761C3078A0F1200114
:105AD0005E29E6D9BDE8FE8F0248034900890880A7
