:020000040800F2
:1000000098ED0020F102000897570008F13600082B
:1000100095570008ED0F0008516900080000000026
:1000200000000000000000000000000025020008A1
:10003000851100080000000069020008B959000895
:100040000B0300080B0300080B030008D958000835
:100050000B0300080B0300080B0300080B03000848
:100060000B0300080B0300080B0300080B03000838
:100070000B0300080B0300080B0300080B03000828
:100080000B0300080B030008690C00080B030008B1
:100090000B0300080B0300080B0300080B03000808
:1000A0000B0300085D5A00080B0300080B0300084F
:1000B0000B030008695A00080B0300080137000809
:1000C000F53600080B0300080B0300080B030008BB
:1000D0000B030008A96800080B030008B5680008B6
:1000E0000B0300080B0300080B0300080B030008B8
:1000F0000B0300080B0300080B0300080B030008A8
:100100000B0300080B0300080B0300080B03000897
:100110000B0300080B0300080B0300080B03000887
:100120000B0300080B0300080B0300080B03000877
:1001300000F002F800F067F80AA090E8000C824492
:100140008344AAF10107DA4501D100F05CF8AFF26F
:10015000090EBAE80F0013F0010F18BFFB1A43F0A5
:1001600001031847EC3B04000C3C04000A444FF028
:10017000000C10F8013B13F0070408BF10F8014B06
:100180001D1108BF10F8015B641E05D010F8016B4B
:10019000641E01F8016BF9D113F0080F1EBF10F8AF
:1001A000014BAD1C0C1B09D16D1E58BF01F801CBD2
:1001B000FAD505E014F8016B01F8016B6D1EF9D555
:1001C0009142D6D37047000000230024002500266A
:1001D000103A28BF78C1FBD8520728BF30C148BFAA
:1001E0000B607047642900F08D81782900F0C6818A
:1001F000732900F0E884002070471FB500F09BFAD7
:100200001FBD10B510BD00F001FD1146FFF7F5FF51
:1002100025F06AFF00F01FFD03B4FFF7F2FF03BCF7
:1002200008F0D9F8224B19680868B0E8F00F80F39D
:100230000988BFF36F8F4FF0000080F311884EF0F4
:100240000D0E70470000000006480068006880F34B
:10025000088862B661B6BFF34F8FBFF36F8F00DFC0
:1002600000BF00BF08ED00E0EFF30980BFF36F8F20
:100270000F4B1A6820E9F00F106008B54FF05000DE
:1002800080F31188BFF34F8FBFF36F8F2EF08EFC7A
:100290004FF0000080F31188BDE808401968086835
:1002A000B0E8F00F80F30988BFF36F8F704700BF8D
:1002B00024000020EFF30580704700000B49D1F8BF
:1002C00000C04A685CF8043B1068184442F8040B0C
:1002D0008C4528BFA1F1DC0C8A4228BFA1F1DC02C9
:1002E000C1F800C04A6020F00040704730E70020AD
:1002F0000948804709480047FEE7FEE7FEE7FEE7BA
:10030000FEE7FEE7FEE7FEE7FEE7FEE704480549F5
:10031000054A064B70470000595A00083101000891
:1003200098E7002098ED002098E9002098E9002047
:10033000704753EA020C00F069802DE9F04B4FF052
:100340000006002B1FBFB3FA83F503FA05F424FA65
:1003500005F65E4012BF1643B2FA82F502FA05F4C2
:10036000C5F120051EBF22FA05FC44EA0C04203525
:1003700056EA044C4FEA144418BF641C4FF00008BE
:100380004FF00009904271EB030C39D3002919BFDB
:10039000B1FA81F701FA07F6B0FA80F700FA07F62A
:1003A000C7F120071EBF20FA07FC46EA0C062037DB
:1003B000B6FBF4FCA7EB0507103F07F01F0BCBF1D2
:1003C00020060CFA0BFB2CFA06F644BFB3460026B7
:1003D000202FA4BF5E464FF0000B5BEA060C08BF5F
:1003E0004FF0010B19EB0B09ABFB027C48EB060845
:1003F000C01B06FB02CC0BFB03CC71EB0C01C1E76D
:100400000B46024641464846BDE8F08B13B54FF017
:1004100000004FF00001AFF30080BDE81C407047C2
:100420000FB4044910B503AA029800F0D1FB10BC28
:100430005DF814FBA40000200FB41CB5084B06AAFD
:100440007B4469460090059800F093FB0446002029
:10045000694600F0A1FB20461CBC5DF814FB0000BF
:100460005507000070B5044685690068C10601D5CE
:10047000302600E02026C00707D070BDD4E9012156
:1004800030469047206A401C20626D1EF6D570BD34
:1004900070B5044685690078C00707D170BDD4E9FE
:1004A000012120209047206A401C20626D1EF6D555
:1004B00070BD70B50C460546012A05D02878800627
:1004C00000D5EA69002302E0012305E05B1C9342AA
:1004D00002D2E05C0028F9D1A869E618C01AA86128
:1004E000286A184428622846FFF7BCFF04E0D5E9D3
:1004F000012114F8010B9047B442F8D32846FFF7C6
:10050000C7FF70BD2DE9F04106460024106875292B
:10051000314616A510D0AFF30080002802DA404221
:1005200013A507E031688A0701D512A502E0490743
:1005300004D511A5012401E0AFF3008000210A22B7
:1005400006F1240709E0B0FBF2FCB0FBF2F302FB7A
:100550001C00303078541846491C0028F3D123463B
:100560002A463046BDE8F04100F0A5BA0000000080
:100570002D0000002B0000002000000070B5044694
:100580000D4621461068AFF300802188090502D589
:100590000F4A7A4402E00E4A7A440E32002104F1F6
:1005A000240305E000F00F060009965D5E54491C27
:1005B0000028F7D120780023000704D5702D02D041
:1005C00009B1022311322046BDE8704000F073BA31
:1005D000853104002DE9F05F894604464FF0000A9A
:1005E000DFF824B1FB44C0F820A02046E16888472A
:1005F00000287DD0252806D0D4E901219047206A23
:10060000401C2062F1E700255F462046E1688847EC
:100610002028064607DB312E05D2B81910F8200C29
:1006200008B10543F1E7A80701D525F00405C4F892
:100630001CA00027C4F818A02A2E09D0304606F0C6
:1006400002FA38B304EB8708303EC8F8186019E0A6
:1006500059F8041B204604EB87029161E168884742
:10066000012F064618D1E069002820DA25F0200580
:100670001DE0D8F8180000EB800006EB4000303891
:10068000C8F818002046E1688847064606F0DBF9FE
:100690000028EED1012F0AD02E2E08D12046E16885
:1006A00088477F1C0646022F45F02005C4DBA06961
:1006B000002803DA404245F00105A061E80701D0B7
:1006C00025F01005A6B1A6F14100192802D8203660
:1006D00045F400654A463146204625604D46FFF701
:1006E00081FD60B1012807D0ED1D25F0070000E075
:1006F00007E000F1080978E705F1040975E73046DD
:100700007AE7206ABDE8F09F5B3104000B4910B521
:10071000A1F17C020A4CC2E93712372106E000EB56
:10072000104342F82130074B00FB03400B1EA1F1A0
:100730000101F4DC10BD0120E8E70000D0E6002054
:10074000E119D666CD0D010030B505460B462A46A7
:1007500013F8014B12F8010B08B1A042F8D01CB1FC
:10076000002802D06D1CF1E7284630BD40EA0103A5
:10077000024630B59B0710D14FF0013400E008C2AB
:1007800008C91D1B9D4315EAC41FF8D013F0FF01D3
:1007900002F8011B0DD01B0AF8E711F8013B002BF2
:1007A00002F8013B05D011F8013B002B02F8013B98
:1007B000F3D130BD10B5431C02E010F8011B71B13C
:1007C0008107FAD14FF0013202C88C1A8C4314EA27
:1007D000C211F9D0C01A0A0603D0C01E10BDC01A3B
:1007E00010BD0A0401D0801E10BD0902FCD0401EBD
:1007F00010BD40EA010370B59B072ED14FF00136C2
:10080000042A2AD308C810C99D1B9D43121F15EA4C
:10081000C61517D0D8B2E1B2401A50EA056110D11E
:1008200098B2A1B2401A50EA05410AD123F07F40A4
:1008300024F07F41401A50EA052102D1180EA0EBA6
:10084000146070BDA342DBD018BA21BA884201D926
:10085000012070BD4FF0FF3070BD0AB9002070BD9F
:1008600010F8013B11F8014B63B1A3420AD1521EAB
:1008700008D010F8013B11F8014B1BB1A34201D184
:10088000521EEDD1181B70BD032A40F2308010F0CB
:10089000030C00F0158011F8013BBCF1020F62441B
:1008A00098BF11F801CB00F8013B38BF11F8013BAC
:1008B000A2F1040298BF00F801CB38BF00F8013B59
:1008C00011F0030300F02580083AC0F0088051F8C9
:1008D000043B083A51F804CBA0E80810F5E7121DD4
:1008E0005CBF51F8043B40F8043BAFF30080D207F3
:1008F00024BF11F8013B11F801CB48BF11F8012BBF
:1009000024BF00F8013B00F801CB48BF00F8012BE1
:10091000704710B5203AC0F00B80B1E81850203A6B
:10092000A0E81850B1E81850A0E81850BFF4F5AF8F
:100930005FEA027C24BFB1E81850A0E8185044BF19
:1009400018C918C0BDE810405FEA827C24BF51F886
:10095000043B40F8043B08BF7047D20728BF31F87A
:10096000023B48BF11F8012B28BF20F8023B48BFCB
:1009700000F8012B704702F0FF0343EA032242EA2A
:10098000024200F002B84FF000020429C0F01280C9
:1009900010F0030C00F01B80CCF1040CBCF1020F32
:1009A00018BF00F8012BA8BF20F8022BA1EB0C0107
:1009B00000F00DB85FEAC17C24BF00F8012B00F8FD
:1009C000012B48BF00F8012B70474FF0000200B523
:1009D000134694469646203922BFA0E80C50A0E862
:1009E0000C50B1F12001BFF4F7AF090728BFA0E810
:1009F0000C5048BF0CC05DF804EB890028BF40F8DC
:100A0000042B08BF704748BF20F8022B11F0804F1D
:100A100018BF00F8012B70474FF0013C50F8042B31
:100A200051F8043B9A4221D1A2EB0C03934313EA01
:100A3000CC1317D150F8042B51F8043B9A4215D12E
:100A4000A2EB0C03934313EACC130BD150F8042B05
:100A500051F8043B9A4209D1A2EB0C03934313EAE9
:100A6000CC13DBD04FF00000704700BFD01A01BAA2
:100A7000B1FA81F101F0180122FA01F0CB40C1F185
:100A80002001DBB2C0B2C01A2CFA01F3D11A914393
:100A900011EAC311E6D1704770477047704770473D
:100AA00010B500F0A7F8006810BD10B5044600F0BE
:100AB000A1F8046010BD2DE9F0470D469946924615
:100AC000044600F124080168880604D5E06921F095
:100AD0001001216000E00120A84201DD471B00E079
:100AE0000027A1697A1902EB0900081AA061207891
:100AF000C00602D42046FFF7B5FC002608E0D4E982
:100B000001211AF806009047206A401C761C2062DA
:100B10004E45F4DB2078C0060AD52046FFF7A2FC3C
:100B200006E0D4E9012130209047206A401C206271
:100B3000381EA7F10107F4DC07E0D4E9012118F819
:100B400005009047206A401C2062281EA5F101057F
:100B5000F3DC2046FFF79CFC2078000602D502203B
:100B6000BDE8F0870120FBE701694A1C02610878B3
:100B7000704700B58FB0CDE90131002105910549DD
:100B80007944CDE9031011466846FFF723FD0FB005
:100B900000BD0000E5FFFFFF0A6802F8010B0A60D4
:100BA000704710B5436913B1AFF3008001E0FFF760
:100BB00080FC012010BD127800F124010A7000228F
:100BC0004A700122EDE711684FF0FF32E9E70000BB
:100BD000074B70B50D467B44FFF7CBFF0446284614
:100BE00000F00CF810B14FF0FF3070BD204670BD22
:100BF000EB1601000048704738E70020007B00F04A
:100C0000800070470048704738E700207546FFF7BE
:100C1000F9FFAE4605006946534620F007008546B9
:100C200018B020B5FFF772FBBDE820404FF000067A
:100C30004FF000074FF000084FF0000B21F00701C4
:100C4000AC46ACE8C009ACE8C009ACE8C009ACE807
:100C5000C0098D46704710B50446AFF300802046AA
:100C6000BDE81040FFF7D8BA014800F0C9BB00004A
:100C7000C803002070B5044600688168C943C907ED
:100C800016D1816821F00101816001F055F8054617
:100C900009E001F051F8401B022804D9206880685F
:100CA000C043C00706D020688068C043C007F0D0AA
:100CB000002070BDA06A40F01000A062E06A40F021
:100CC0000100E062012070BDF8B5002604460096E0
:100CD00000688168C943C9072CD0816841F00101CF
:100CE0008160154815490068B0FBF1F000E0401E36
:100CF00000900028FBD101F01FF8054615E001F037
:100D00001BF8401B022810D920688068C043C00728
:100D10000BD0A06A40F01000A062E06A40F0010031
:100D2000E06284F824600120F8BD20688068C04338
:100D3000C007E4D10020F8BD1400002040420F009D
:100D40002DE9F0410D460146002004464E1908E009
:100D50000702301B401E80B200F007F8641C3844C4
:100D6000E4B2AC42F4D3BDE8F08110B5044603F020
:100D700065FA200AA02101EB4000C0B203F02EFA70
:100D800003F09EFAE0B203F029FA03F099FA03F0B7
:100D900055FAA12003F022FA03F092FA002003F0A2
:100DA000E7F9044603F06AFA204610BD2DE9F04148
:100DB00016460D460746002409E0E00025FA00F03B
:100DC000C1B2381980B200F006F8641CE4B2B44233
:100DD000F3D3BDE8F08170B50D46044603F02EFA5A
:100DE000200AA02101EB4000C0B203F0F7F903F0A4
:100DF00067FAE0B203F0F2F903F062FA284603F072
:100E0000EDF903F05DFA03F039FABDE870400A200D
:100E100000F0B9B910B5094827F021FC074827F0C0
:100E20002DFC0648001D27F01AFC0448001D27F081
:100E300025FC034829F097FA002010BD8403002008
:100E4000D0DD002070B50C4605460949284629F03A
:100E50008EFA002807D02146064827F014FC18B166
:100E60000128F2D0002070BD6FF0010070BD0000BD
:100E7000D0DD00208803002010B5144602F036FCB7
:100E80002146054827F0FFFB18B10348001F006802
:100E900010BD6FF0010010BD8403002000249AB043
:100EA000DFF8C890A346EA46671E0AEB04055646DB
:100EB0003946284600F03CFD85F801B034B115F8FC
:100EC000010C0D2802D1305D0A2816D0684600F0CA
:100ED00001FA90B300246D4626466FF02F082819BA
:100EE000394600F025FD285D3A2827D006EB86021A
:100EF00008EB42014618641CF1E71DA16846FFF7A4
:100F000023FC40B1224669461B48FFF702FD002042
:100F1000C9F800000BE019A16846FFF715FC50B1B5
:100F2000224669461448FFF7F4FCC9F800700F48E0
:100F3000001D27F0ABFB0024B7E713E000240EE010
:100F40002819394600F0F4FC642C07DA285D0D49B5
:100F500029F020FA0548083027F098FB641CB442B9
:100F6000EEDBE8E7641C642C9FDBE4E780030020F1
:100F70004F4B0D0A00000000D8E100204552524FAF
:100F8000520D0A00D0DD00202DE9F0411F46154624
:100F90000E460446FFF70EFC0146204602F0A6FB73
:100FA00002210EA002F0A2FB39460D4827F06BFB90
:100FB00080B10B48001F04684CB946B1642D01DDB7
:100FC000642200E02A4607493046FFF75DFC2046D0
:100FD000BDE8F0816FF00100FAE700000D0A0000A3
:100FE00084030020D8E1002070477047FEE700002E
:100FF0001FB50020019002904FF480500090032014
:1010000003906946014800F095FD1FBD00080140AE
:101010001FB54FF4805000900120019002900320F2
:1010200003906946014800F085FD1FBD000801409E
:1010300070B5002004464006050E00F007F8641C59
:101040002843E4B2082CF6D370BD000070B500242C
:101050004FF48055134E04E0641CE4B2012000F00C
:101060009FF82946304600F05DFE08B1642CF3D3AA
:10107000002404E0641CE4B2012000F091F8294649
:10108000304600F04FFE08B9642CF3D3282000F05E
:1010900087F82946304600F045FE002800D00120A0
:1010A00070BD000000080140F0B585B00E4607464F
:1010B00000F020F800F038F810B1012005B0F0BDC4
:1010C00000246D46FFF7B4FF45F82400641CE4B229
:1010D000052CF7D3DDE900010844DDE902121144D3
:1010E00008440499884203D100983060029838601F
:1010F0000020E3E770B5FFF78BFF0A4D4FF48054F3
:1011000000222146284600F012FE142000F03BF891
:1011100001222146284600F00AFEBDE870401E204C
:1011200000F03EB80008014070B50024FFF760FFF2
:101130004FF48055124E04E0641CE4B2012000F02C
:101140002FF82946304600F0EDFD10B1642CF3D3A2
:101150000FE0642C0DD2002404E0641CE4B20120F2
:1011600000F01EF82946304600F0DCFD18B1642C72
:1011700004D3012070BD642CEFD3FAE7002070BDCA
:1011800000080140704770B5054600244FF47A7698
:1011900003E0304600F004F8641CAC42F9D370BDA3
:1011A00030B50C4A00211468E36A4FF47A72584350
:1011B000B0FBF2F5626A606A9042FCD002D9A0EB03
:1011C000020202E0A3EB0202024411440246A942D9
:1011D000F1D330BD80050020704772B6FEE70000F5
:1011E00030B5B3F5804F05D06FF0704140F8221054
:1011F000002030BD8C690B688D6823434C68898959
:10120000240144EA0524234343EA014150F82230F3
:10121000014C23401943E9E70000F0CF10B50A68FC
:1012200050F8223023F0010340F822308B68082B5D
:1012300023D000224C681C43CB6813430A691C432B
:1012400014434A698B691443CA6914430A6A1443F4
:101250004A6A14438A6A1443CA6A14430A6B1443E1
:101260004A6B234309681A43054C50F82130A343C5
:10127000134340F82130002010BD4022DAE700007F
:101280007FFF0F0030B5D1E9003443EA04138C68C6
:101290008D89240244EA054423430C8A074D00EB60
:1012A000820005EB045423430C7D6D0105EB0464BF
:1012B000896923430B434360002030BD0000F0FFE9
:1012C00010B5144603F064F92046BDE8104003F061
:1012D000BDBA000010B503A1FFF736FA002800D010
:1012E000012010BD2B4950442C000000704770476E
:1012F000704770477047704770470000F8B500238B
:10130000009390F824201C46012A12D0012280F874
:1013100024204A681F26072A0DD205686F6B521ECB
:1013200002EB82029640B7430E68964037436F63E4
:1013300019E00220F8BD05680D2A0AD22F6BD21FD2
:1013400002EB82029640B7430E68964037432F6304
:1013500009E0EF6A0D3A02EB82029640B7430E684D
:1013600096403743EF620A68072605680A2A0AD3BF
:10137000EF680A3A02EB42029640B7438E68964005
:101380003743EF6008E02F6902EB42029640B74313
:101390008E68964037432F610A68102A01D0112ABF
:1013A00020D1124D0268AA4217D195682D0219D496
:1013B000956845F4000595600968102912D10C491B
:1013C0000C4A0968B1FBF2F101EB8101490000E030
:1013D000491E00910029FBD104E0816A41F02001FF
:1013E0008162012380F824401846F8BD00240140A2
:1013F0001400002040420F0070470068C06C704726
:1014000070B50446006806684568A90625D5B10789
:1014100023D5A16AC90603D4A16A41F40071A1626F
:101420008168C1F34241072910D1217B71B941681C
:1014300021F020014160A06A20F48070A062A06ABF
:10144000C00403D4A06A40F00100A0622046FFF768
:10145000D3FF21686FF01200086028062ED57007B0
:101460002CD5A06AC00603D4A06A40F40050A06244
:1014700020688168C1F30231072909D04168490514
:1014800015D48168C1F34241072910D1217B71B97C
:10149000416821F080014160A06A20F48050A06280
:1014A000A06AC00503D4A06A40F00100A0622046F3
:1014B000FFF722FF21686FF00C00086068060CD56A
:1014C000F0070AD0A06A40F48030A062204600F005
:1014D00095F821686FF00100086070BD2DE9F041BA
:1014E00004004FF000057FD0A06A002628B9E6620C
:1014F00084F82460204600F083F82046FFF7BAFB0A
:10150000A16AC90600D420B1A06A40F01000A06210
:101510006AE0A16A21F4885141F00201A1623349D5
:1015200023688B42E16904D1B1F5402F01D14FF41A
:101530000021277B4FF4807C41EA470261680A431F
:10154000A168614508D0012906D0002194F814E073
:10155000BEF1010F02D00AE06146F7E7C7B1A76A02
:1015600047F02007A762E76A47F00107E7625F6874
:1015700027F469470F435F6021688B681C4F3B402D
:1015800013438B60A16861450BD0012909D00CE0A1
:10159000DFF860E0A7690EEB47370F4347F40061BF
:1015A000E5E7218A0D05A5F580152168CB6A23F4AE
:1015B00070032B43CB62216889680F4B194091421D
:1015C00008D1E662A16A21F0020141F00101A162A5
:1015D000BDE8F081A06A20F0020040F01000A06297
:1015E000E06A40F00100E0620120F1E7003C0140C8
:1015F000FDF7E1FF00E0FFFFFE0E1FFF7047000058
:1016000000B585B00021009101910291039100681D
:101610001249884220D11248816941F400718161E8
:10162000816901F400710491816941F004018161D3
:101630008069694600F004000490062000900320B1
:101640000190084800F076FA00220521122000F0EF
:1016500093FE122000F082FE05B000BD0024014080
:1016600000100240000801402DE9F8434FF0000847
:101670000D460446CDF8008000F05EFB074620686A
:101680008168C90508D5A06A40F02000A06284F8EE
:1016900024800120BDE8F8834168C90503D4C06AED
:1016A00010F4700F29D0022000F09EFE3A4909681C
:1016B000B1FBF0F620680169384A11424FEA620234
:1016C0004FEAA2131ED1C1684FEA621C11EA0C0F47
:1016D00018D10169114224D1C068184221D11420C7
:1016E00022E0681C09D025B100F026FBC01BA842EF
:1016F00003D920680068800724D520680068800727
:10170000EFD52CE00169114202D1C168194206D01F
:10171000026923490A4206D1C068084203D1542015
:1017200002E0292000E0FC204643009815E0681CF8
:1017300010D025B100F000FBC01BA8420AD90098C8
:10174000B04207D2A06A40F00400A06284F824806E
:1017500003209FE70098401C0090B042E7D3216827
:101760006FF012000860A06A40F40070A062206868
:101770008068C0F3424007280CD1207B50B9A06A92
:1017800020F48070A062A06AC00403D4A06A40F074
:101790000100A06200207DE714000020244992246B
:1017A0004992240070B5044690F8240001280DD019
:1017B000012084F824002046FFF786FA01004FF04C
:1017C000000205D084F82420084670BD022070BDB8
:1017D000A06A40F20123984340F48070A0621F4D3C
:1017E00020681F4BA84218D11E6816F4702F14D021
:1017F000A66A46F48016A6621E68760505D5A66A16
:1018000026F4005646F48056A662A66AF6040AD567
:10181000E66A26F00606E66206E0A66A26F4801668
:10182000A6624668E9E7E26284F824206FF00202CB
:10183000026020688268C2F34242072A05D1A842AA
:1018400008D11A6812F4702F04D0826842F4801212
:101850008260B9E7826842F4A002F9E700280140FB
:101860000424014070B5044690F8240001280DD0EE
:10187000012084F824002046FFF726FA01004FF0EB
:10188000000205D084F82420084670BD022070BDF7
:10189000A06A40F60163984340F48070A062224D34
:1018A0002068224BA84218D11E6816F4702F14D05D
:1018B000A66A46F48016A6621E68760505D5A66A55
:1018C00026F4005646F48056A662A66AF6040AD5A7
:1018D000E66A26F00606E66206E0A66A26F48016A8
:1018E000A6624668E9E7E26284F824206FF002020B
:1018F00002602068426842F02002426020688268EC
:10190000C2F34242072A05D1A84208D11A6812F44C
:10191000702F04D0826842F480128260B4E782683B
:1019200042F4A002F9E7000000280140042401402D
:1019300004F0DABF10B590F821100022022905D07A
:101940000421816380F82020012010BD01680B680C
:1019500023F00E030B6001680B6823F001030B609A
:1019600090F84030012404FA03F1C36B596080F809
:10197000214080F82020104610BD00002DE9F05FC6
:1019800090F821100024022903D00421816301244E
:1019900085E001680A6822F00E020A6001680A68A0
:1019A00022F001020A603F4E3E4FB215DFF8F4C04C
:1019B000DFF8F090DFF8ECA0DFF8E8B0DFF8E4E063
:1019C0000168783F13011502ACF1640CA9F15009CC
:1019D000AAF13C0AABF1280BAEF1140E4FF48018BB
:1019E000B14227D9B9420ED0614512D049451DD028
:1019F000514518D0594518D0714501D1424615E0DE
:101A0000294EB14201D1012210E0274E1436B142D5
:101A100001D110220AE0244E2836B14206D0224AD3
:101A20003C32914201D11A4600E02A461E49091F64
:101A30000A602BE0B94213D0614517D0494522D046
:101A400051451DD059451DD0714501D142461AE07E
:101A5000B14202D14FF0807215E0134EB14201D174
:101A6000012210E0104E1436B14201D110220AE0DA
:101A70000D4E2836B14206D00B4A3C32914201D17C
:101A80001A4600E02A46074980394A60012180F859
:101A90002110002180F82010416B01B188472046B9
:101AA000BDE8F09F800002400804024090F8210049
:101AB0007047000030B585B0002000900190029082
:101AC000039017480168002927D1012101601548BA
:101AD000416941F4807141614069022400F48070E1
:101AE000049041F20100CDE9000403256946039505
:101AF0000D4800F01FF84FF68070CDE900046946EC
:101B000003950A4800F016F84CF23370CDE9000452
:101B100069460395064800F00DF805B030BD000099
:101B20000400002000100240002001400018014085
:101B3000001401402DE9F84FDFF8C0910024A9F10D
:101B4000040B23464FF00F0809F1040AABF1040E11
:101B5000CCE00127A7403A40BA4272D1DFF8A0C1D9
:101B60004D68A5EB0C0665452BD00DDC032D34D05C
:101B700005DC35B3012D19D0022D2FD11BE0112D1D
:101B800016D0122D2AD119E0B6F5881F19D006DC1F
:101B9000B6F5803F15D0B6F5801F1FD111E0B6F520
:101BA000001F0ED0B6F5041F18D10AE0CB6815E06F
:101BB000CB681B1D12E0CB6808330FE0CB680C33F9
:101BC0000CE08B682BB1012B4FF0080303D0476169
:101BD00004E0042302E0076100E00023FF2A01D8AB
:101BE000064601E000F104064FEA840501D9A5F19B
:101BF0002005376808FA05FC27EA0C0703FA05F503
:101C000047EA050737604D68ED006ED53D4DAE697A
:101C100046F00106AE61AD6924F0030605F001054A
:101C20000095394D7719BE68A5072D0F08FA05FCF8
:101C300026EA0C06DFF8D4C0604503D14FF0000C53
:101C400025E052E0DFF8C8C0604502D14FF0010C3A
:101C50001DE0DFF8C0C0604502D14FF0020C16E075
:101C6000DFF8B4C0604502D14FF0030C0FE0DFF89D
:101C7000ACC0604502D14FF0040C08E0DFF8A0C012
:101C8000604502D14FF0050C01E04FF0060C0CFA54
:101C900005FC4CEA060CC7F808C04D68D9F800608E
:101CA000ED024D4601D5164300E096432E604D6887
:101CB000DAF80060AD02554601D5164300E09643C0
:101CC0002E604D68DBF80060AD035D4601D516431C
:101CD00000E096432E604D68DEF80060ED03754627
:101CE00001D5164300E096432E60641C0A6832FA60
:101CF00004F57FF42EAFBDE8F88F00000804014022
:101D000000001110001002400000014000080140D6
:101D1000000C014000100140001401400018014077
:101D2000001C01408068084000D0012070470AB1C3
:101D3000016170470904FBE70148806870470000B3
:101D400018000020704770472DE9F04101680446F3
:101D50004A694E6890F83E000025D743FA050BD437
:101D6000F243D20508D46FF4807201254A612168DC
:101D70000A6842F400420A60B90508D4F143C90573
:101D800005D422686FF4007145F0020551617905B0
:101D900025D4F143C90522D4638D94F83D10226BFC
:101DA000202808D13BB9212910D029290ED0282973
:101DB00001D1212A0AD022686FF48061516145F077
:101DC0000405102806D0402804D008E0204602F080
:101DD00099F804E02068016841F400710160380559
:101DE00008D4F043C00505D421686FF4006045F0C5
:101DF00008054861002D07D0206C28432064204648
:101E0000BDE8F04101F0E6BCBDE8F0812DE9F04706
:101E1000026800215368C66A90F83E4090F83D5031
:101E2000102C12D0402C10D0046C002C7DD05469A2
:101E3000E443A6077AD4DE43B60577D4036C03B136
:101E40009169BDE8F04702F03AB8976951694FF4DB
:101E50002A0CC9435FEAC1784FF02A4904D066458D
:101E60002AD04E4528D010E0DE43B6050DD4C16A15
:101E7000614501D1012103E0C16A494501D1082131
:101E8000C162BDE8F04701F081BF0E0716D4DE4302
:101E9000B60513D4416CC9B21161416B09B1896AAD
:101EA00029B9816B002907D0896A002904D000680C
:101EB000416841F400614160BDE8F0878E0706D4B7
:101EC000DE43B60503D4BDE8F04701F0B3BEFE43E0
:101ED000526876074FEA02521DD4002AECDB0A064C
:101EE00008D4DA43520505D4490705D5BDE8F047C3
:101EF00001F046BE4907DFD4D9438905DCD4212D42
:101F000005D0402CD8D1BDE8F04701F084BFBDE832
:101F1000F04701F0F5BD002ACEDB4A060BD4DA43C8
:101F2000520508D4490708D501E00DE00EE0BDE8F0
:101F3000F04701F069BD4907BED4D9438905BBD438
:101F4000BDE8F04701F0F2BC916970E7E10606D404
:101F5000D943890503D4BDE8F04702F01BB8282611
:101F6000212D27D0292D25D0610655D4D9434905E7
:101F700052D4610752D590F83D10438D002B9BD071
:101F80001269436A1A70426A521C4262428D521EA2
:101F90004285428D002A8FD12A298DD101684A6855
:101FA00022F480624A602221016380F83D6000F0E3
:101FB0004FF981E7210623D4D943490520D461078D
:101FC00020D590F83D10438D002BF2D0436A1B784A
:101FD0001361426A521C4262428D521E4285428DFA
:101FE000002AE6D12929E4D101684A6822F48062F6
:101FF0004A602121016380F83D6000F02AF95BE727
:102000006107D6D4D9438905D3D4418D0029D0D0D6
:10201000416A097811610AE06107CAD4D943890588
:10202000C7D4418D0029C4D01169426A1170416A38
:10203000491C4162418D491E41853DE770470000C2
:1020400070B5040025D094F83D00002520B984F82F
:102050003C50204600F0BEF8242084F83D00206863
:10206000016821F0010101602068016841F400412C
:1020700001602068016821F40041016000F040FB2C
:102080004D4B6168994201D84C4900E04C49884267
:1020900001D2012070BD4B492268B0FBF1F15668B6
:1020A00026F03F060E43566062689A4206D94FF406
:1020B000967251434FF47A72B1FBF2F12268491CD7
:1020C000166A26F03F06314311626168994210D8C2
:1020D0004900401EB0FBF1F2521CC2F30B02042A6D
:1020E00001D2042022E0B0FBF1F0401CC0F30B0051
:1020F0001CE0A268F2B301EBC10303EB0116431E1F
:10210000B3FBF6F35B1C43F480431B0549D092B349
:1021100001EBC10202EB0111401EB0FBF1F0401CCB
:10212000C0F30B0040F4804040F400402168CA69CD
:102130004CF6FF739A431043C861D4E9071001437A
:102140002068026822F0C00211430160D4E9030153
:1021500001432068826848F2FF339A43114381604B
:10216000D4E9051001432068C26822F0FF02114340
:10217000C16001E00EE016E02068016841F0010155
:1021800001602564202084F83D00256384F83E50DA
:10219000002070BD01EB4106431EB3FBF6F35B1C50
:1021A000B3E70120C2E701EB4101401EB0FBF1F0B3
:1021B000401CC0F30B00B7E7A086010080841E001E
:1021C00000093D0040420F0070477047704770475C
:1021D0007047000010B586B0002100910191029176
:1021E00003910068174988422AD1174CA06940F032
:1021F0000800A061A069694600F008000490C020B2
:10220000009012200190032003901048FFF792FCE9
:10221000E06940F40010E061E069002200F4001081
:10222000049005211F2000F0A7F81F2000F096F869
:1022300000220521202000F09FF8202000F08EF8D9
:1022400006B010BD0054004000100240000C0140D8
:102250007047704702488168027811448160704776
:1022600018000020074810B5016841F01001016016
:10227000032000F0A1F80F2000F006F800F04AF863
:10228000002010BD0020024030B505461C4887B034
:10229000816941F400618161806905A900F40060F1
:1022A0000690684600F00CFA00F03AFA1549164A12
:1022B000B0FBF1F11548491E026040F2E732C260FE
:1022C00000220261C0E90112826100F043FE0400B5
:1022D00012D10E4800F08AFE04000DD1192000F042
:1022E0003DF8102D07D200222946192000F044F8AD
:1022F0000748056000E0012407B0204630BD00001B
:102300000010024040420F00002C014080050020D8
:102310001C0000200F4808B5816941F0010181616E
:10232000816901F001010091C16941F08051C161F1
:10233000C069002200F0805000900F21901E00F034
:102340001BF80549486820F0E06040F000704860E4
:1023500008BD00000010024000000140002809DB19
:1023600000F01F02012191404009800000F1E020AF
:10237000C0F8001170470000F0B40E4B1B68C3F3A7
:102380000223C3F10704042C00D904241D1D072DCA
:1023900001D2002300E0DB1E012606FA04F56D1EC3
:1023A0000D409D409E40761E164045EA0601F0BC59
:1023B00004F0CFBA0CED00E0064A00F00701106807
:1023C0004FF6FF03184040EA01200349084310601C
:1023D000704700000CED00E00000FA050149012003
:1023E0000862704700000E4210B501460020284CDC
:1023F00004292FD00BDC012930D0022929D100F08B
:102400008FF96168C1F38131491C49001FE0082937
:1024100020D010291DD161682268D20119D51D482C
:10242000C1F38342C903805C0AD56168194AC1F3CC
:102430004041921E515C184AB2FBF1F1484301E061
:10244000164948436168490203D440000321B0FBA8
:10245000F1F010BDBDE8104000F072B9216AC1F37F
:102460000122012A03D1890701D5D00310BD022A18
:1024700005D1616A890702D549F6404010BD032A9B
:10248000FCD121688903F9D54FF2244010BD00002A
:10249000001002409406030800127A0000093D0073
:1024A0002DE9F84304460078344FC00752D0F8694C
:1024B0000025C00008D4F86940F08050F861F86940
:1024C000012500F0805000902D480168C90511D405
:1024D0000168804641F480710160FFF72DFC0646DB
:1024E00004E0FFF729FC801B642822D8D8F80000FC
:1024F000C005F6D5386A10F4407020D0A18801F4E8
:10250000407181421BD0386A1E49012220F440707C
:102510000A6000220A603862C00710D0FFF70CFC86
:10252000064641F2883807E0FFF706FC811B41456B
:1025300002D90320BDE8F883386A8007F4D5386AE9
:10254000616820F44070084338621DB1F86920F0DA
:102550008050F8612078800705D57868A16820F45C
:102560004040084378602078C00605D578686169E6
:1025700020F48000084378600020DBE70010024070
:1025800000700040400442422DE9F0470D4604002F
:1025900067D0DFF81881D8F8000000F00700A842E3
:1025A0000CD2D8F8001021F007012943C8F8001018
:1025B000D8F8000000F00700A84252D120683C4E35
:1025C000810712D5400703D5706840F4E060706061
:1025D0002078000703D5706840F460507060706820
:1025E000A16820F0F000084370602078C00727D071
:1025F0006068012810D03168022810D089070029AE
:102600002FDA716821F0030101437160FFF794FB39
:10261000074641F288390CE031688903EFE7890108
:10262000EDE7FFF789FBC11B494502D90320BDE84F
:10263000F0877068616800F00C00B0EB810FF0D19A
:10264000D8F80010404601F00701A9420BD90168F3
:1026500021F0070129430160006800F00700A8424B
:1026600001D00120E3E72078400705D57068E168D4
:1026700020F4E060084370602078000706D5706899
:10268000216920F4605040EAC100706000F058F801
:102690007168084AC1F30311515CC84006490860DB
:1026A00006480068FFF7F0FD0020C0E70020024068
:1026B0000010024068060308140000201C000020DF
:1026C0000F2202600C4A536803F00303436053680F
:1026D00003F0F0038360536803F4E063C36052685F
:1026E0004FF4E06303EAD20202610448006800F09C
:1026F0000700086070470000001002400020024000
:102700000448054900684968044AC1F30221515C44
:10271000C8407047140000200010024078060308EB
:102720000448054900684968044AC1F3C221515C64
:10273000C8407047140000200010024078060308CB
:102740000E4B59680E4801F00C02042A11D0082AD9
:102750000FD10C48C1F38342C903805C0AD5596884
:10276000084AC1F34041921E515C054A5043B0FBF8
:10277000F1F07047044948437047000000100240E0
:1027800000127A008206030800093D002DE9F84F87
:1027900004006FD02078BE4DC00747D06868C0F3F2
:1027A0008100012807D06868C0F38100022809D1A0
:1027B0006868C00306D52868800337D5606800289C
:1027C000E7D033E06068B0F5803F0BD010B1B0F5D2
:1027D000A02F11D0286820F480302860286820F4C9
:1027E000802002E0286840F480302860606888B16A
:1027F000FFF7A2FA064609E0286840F48020286026
:10280000F0E7FFF799FA801B642873D828688003E3
:10281000F7D50BE0FFF790FA064604E0FFF78CFAD5
:10282000801B6428F1D828688003F7D42078DFF86B
:10283000648280074FF0010A4FF0000939D56868BB
:1028400010F00C0F07D06868C0F38100022809D18E
:102850006868C00306D42868800714D52069012859
:1028600008D110E02069B0B1C8F800A0FFF764FA01
:10287000064605E007E1FFF75FFA801B0228C4D88F
:1028800028688007F7D52868616920F0F80040EAD9
:10289000C10028600DE0C8F80090FFF74DFA064629
:1028A00004E0FFF749FA801B022823D82868800734
:1028B000F7D4207800072CD57748A169D9B1C0F8A2
:1028C00000A0FFF739FA064604E0FFF735FA801B4F
:1028D00002280FD8686A8007F7D570484FF4FA517C
:1028E0000068B0FBF1F0009000BF0098411E00911D
:1028F000FAD20EE07CE0C0F80090FFF71DFA064621
:1029000004E0FFF719FA801B022871D8686A800773
:10291000F7D4207840075BD5E8690027C00008D4C9
:10292000E86940F08050E861E869012700F08050D4
:1029300000905B480168C90511D40168834641F4E1
:1029400080710160FFF7F8F9064604E0FFF7F4F93B
:10295000801B64284CD8DBF80000C005F6D5E06881
:1029600001280AD008B1052813D0286A20F00100F8
:102970002862286A20F0040002E0286A40F0010082
:102980002862E06841F2883B88B1FFF7D5F9064636
:1029900009E0286A40F004002862EEE7FFF7CCF96E
:1029A000811B59455BD8286A8007F7D50BE0FFF7F4
:1029B000C3F9064604E0FFF7BFF9811B59454ED81D
:1029C000286A8007F7D41FB1E86920F08050E861D9
:1029D000E069A8B36968C1F38101022946D00228E1
:1029E000484606D0C8F86000FFF7A6F9044639E06B
:1029F00035E04746C8F86000FFF79EF9064604E058
:102A0000FFF79AF9801B022829D828688001F7D49B
:102A1000206AB0F5803F05D16868A16820F40030D5
:102A200008436860D4E908010843696821F4741117
:102A300008436860C7F860A0FFF77EF9044605E028
:102A400023E0FFF779F9001B022808D828688001E5
:102A5000F7D51AE0FFF770F9001B022802D903200E
:102A6000BDE8F88F28688001F4D40EE00128F7D083
:102A70006868226A00F48031914204D1616A00F4EE
:102A80007010884201D00120EAE70020E8E700004A
:102A90000010024000004242800442421400002024
:102AA00000700040024850F8210080B270470000DA
:102AB000006C0040024800EB810091B20160704759
:102AC000006C00407047704710B50446006801680C
:102AD000C90717D04168C90714D04068400720468D
:102AE00007D5FFF7F0FF21686FF00400486004206D
:102AF00002E0FFF7E7FF012060742068416821F0E1
:102B00000101416010BD2DE9F04791460C465FEA96
:102B100000084AD084B3D8F800004068400744D485
:102B2000404602F0E6FE4FF46162B0FBF2F105466A
:102B3000B0FBF2F002FB10533C20B3FBF0F36370E8
:102B4000B5FBF2F302FB1352B2FBF0F300FB1320D0
:102B5000A070182931D31820B1FBF0F6B1FBF0F2C8
:102B600000FB12102070404602F0BCFE411C04D055
:102B7000A84202D9471B02E017E04FF0FF37A6EB4F
:102B8000061000EB4000C0EB001005EBC015294615
:102B9000404602F0FDFE40B9781C01D0791900E0F2
:102BA0003946404602F0E0FE10B10120BDE8F08752
:102BB0003146404602F004FE00E02170B9F1000FFA
:102BC0000BD0207802F0F1FD2070607802F0EDFD6E
:102BD0006070A07802F0E9FDA0700020E6E7000038
:102BE00070B5040003D0607C002610B105E0012020
:102BF00070BD2674204600F03DF802206074204627
:102C000000F016F9042550BB204602F030FE30BB20
:102C10002068416821F007014160A06820B1144894
:102C2000016821F0010101601148001F0168A268DC
:102C300021F46071114301606068411C04D10120DE
:102C4000FFF7D2FB58B1401E2268C0F303419160E8
:102C5000216880B2C860204602F023FE08B1657486
:102C6000C5E7E67301206073A0736074002070BD37
:102C7000306C004008B500680D49884217D1FFF755
:102C8000ADFB0C48C16941F00061C161C0690A49EE
:102C900000F0006000900120086000220521032060
:102CA000FFF76AFBBDE808400320FFF757BB08BDEC
:102CB00000280040001002403C0442422DE9F0414F
:102CC0000D4604003BD0C5B3207C01283AD04FF01C
:102CD000010884F8108002206074E87872B302F072
:102CE0005BFDE073687802F057FD6073A87802F02E
:102CF00053FDA073C2B2617BE07B02F00AFE207339
:102D00002870204602F0F5FD4FF46161B0FBF1F14F
:102D1000002518292DD91822B1FBF2F1A1EB0111E0
:102D200001EB4101C1EB011100EBC1163146204618
:102D300002F02EFE0427C8B90BE000E004E00120F9
:102D4000BDE8F0810220FBE7E07368786073A87843
:102D5000CFE7204602F0C6FD411C0AD0B04208D29F
:102D600006490144204602F0FFFD10B16774257446
:102D7000E5E784F8118025740020E1E78051010027
:102D80002DE9F0410D46040024D01DB3207C01281C
:102D900023D04FF0010884F8108002206074F2B153
:102DA000287802F0F9FC4FF4616100FB01F66878C5
:102DB00002F0F2FCC0EB001006EB8006A87802F0EF
:102DC000EBFC35182946204602F0E2FD00260427D8
:102DD00018BB10E00120BDE8F0810220FBE7297854
:102DE0004FF4616041436878C0EB001001EB800054
:102DF000A9784518E6E72068416821F0050141609F
:102E0000204602F06FFD411C0AD0A84208D20749B3
:102E10000144204602F0A8FD10B167742674D9E77A
:102E200084F8118026740020D5E70000805101004D
:102E300070B504000AD02068416821F008014160A3
:102E4000FEF77AFF05464FF47A7608E0012070BD60
:102E5000FEF772FF401BB04201D9032070BD20680D
:102E600040680007F4D5002070BD70B515460E46C9
:102E7000040007D0A069B0F5807F03D094F841002A
:102E800010B107E0012070BD002084F8400020460A
:102E900000F01DF804F108012068FEF7BFF9314683
:102EA000A2682068FEF7EEF9D4E901022946236BF7
:102EB000FEF796F9A168206850F8212042F001023F
:102EC00040F82120012084F84100002070BDFEF769
:102ED000F1BD70477047000070B590F83C20012AA2
:102EE0002CD0012580F83C50022280F83D20026859
:102EF0005368946823F070060B6833435360104B9B
:102F000002689A420ED00F4B9A420BD0B2F1804F1A
:102F100008D00D4B9A4205D00C4B9A4202D00C4B74
:102F20009A4204D1496824F080031943916080F8E3
:102F30003D50002180F83C10084670BD022070BD55
:102F4000002C014000340140000400400008004013
:102F5000000C004010B5040003D094F83D0010B1FF
:102F600007E0012010BD002084F83C00204600F05E
:102F70001FF8022084F83D00211D206802F07AFD30
:102F8000012084F8460084F83E0084F83F0084F86D
:102F9000400084F8410084F8420084F8430084F83B
:102FA000440084F8450084F83D00002010BD000076
:102FB00008B500680B49884212D10B48C16941F03D
:102FC0000201C161C069002200F0020000900521E9
:102FD0001D20FFF7D1F9BDE808401D20FFF7BEB95D
:102FE00008BD0000000400400010024090F83D10B1
:102FF000012901D001207047022180F83D100168AD
:10300000CA6842F00102CA6000680E4988420ED0C8
:103010000D4988420BD0B0F1804F08D00B4988424F
:1030200005D00B49884202D00A49884204D1816800
:1030300001F00701062903D0016841F00101016098
:1030400000207047002C0140003401400004004083
:1030500000080040000C004070B5044690F83C00A9
:103060000025012817D0012684F83C60022084F84E
:103070003D002068826822F0770222F47F4282605D
:103080000868502838D00DDC20284FD005DC90B3DC
:10309000102811D14AE0022070BD302846D04028C7
:1030A0000AD13BE060282FD070280DD0B0F5805FAA
:1030B00003D0B0F5005F12D0012584F83D600020F8
:1030C00084F83C00284670BDCB68D1E90121206816
:1030D00002F01EFD2068816841F0770109E0CB68AD
:1030E000D1E90121206802F013FD2068816841F4D4
:1030F00080418160E1E719E0CA684968206802F010
:1031000019FD5021206806E0CA684968206802F06D
:1031100022FD6021206802F005FDCEE7CA684968FB
:10312000206802F007FD40212068F4E7226801468C
:103130001046F0E770472DE9F04104460068C66884
:1031400005694FF00007A90713D5B10711D5F91E7E
:10315000016101202077206880698007204602D025
:10316000FFF7E8FF04E000F07EF8204600F07CF86E
:103170002777680716D5700714D521686FF004000B
:103180000861022020772068806910F4407F204683
:1031900002D0FFF7CFFF04E000F065F8204600F012
:1031A00063F82777280715D5300713D521686FF006
:1031B00008000861042020772068C0698007204645
:1031C00002D0FFF7B7FF04E000F04DF8204600F012
:1031D0004BF82777E80616D5F00614D521686FF06E
:1031E00010000861082020772068C06910F4407F33
:1031F000204602D0FFF79EFF04E000F034F820469E
:1032000000F032F82777E80708D0F00706D02168E9
:103210006FF001000861204600F028F8280608D564
:10322000300606D521686FF0800008612046FFF760
:1032300050FE680608D5700606D521686FF040007C
:103240000861204600F01CF8A8060AD5B00608D58B
:1032500021686FF0200008612046BDE8F041FFF7CB
:1032600039BEBDE8F081704770470000006803492F
:10327000884201D1FEF7EEBF70470000002C0140EC
:103280007047704770470000F8B501680446086849
:10329000CA684B6910F00F0F4FF0000559D003F0CA
:1032A000010602F49077374365D0C10705D0D105F8
:1032B00003D5616C41F001016164410705D5D9076F
:1032C00003D0616C41F002016164810705D5D90723
:1032D00003D0616C41F004016164010707D502F07D
:1032E0002001314303D0616C41F008016164616CDD
:1032F00000293AD0800604D5900602D5204603F076
:10330000DEF920684069616CC0F38010090700D4C1
:1033100060B3204603F0ACF920684069400621D52F
:103320002068143050E8001F21F0400140E80012EE
:10333000002AF5D1E06BA8B16D494163E06BFEF75F
:103340001DFB002811D0E06B416B01B0BDE8F040DF
:10335000084783060FD593060DD52046BDE8F840F3
:1033600003F0ADB92046FFF78DFFF8BD2046FFF70B
:1033700089FF6564F8BD266B2023012E7CD1C6062B
:103380007AD5D60678D508684868009048694FF025
:103390000206400640D5E16B086840680004000C56
:1033A000E8D0A28D8242E5D9E085886920282DD019
:1033B00020680C3050E8001F21F4807140E80012B2
:1033C000002AF5D12068143050E8001F21F00101D7
:1033D00040E80012002AF5D12068143050E8001FA0
:1033E00021F0400140E80012002AF5D184F8423073
:1033F000256320680C3050E8001F21F0100140E8E0
:103400000012002AF5D1E06BFEF794FA6663A08DF6
:10341000E18D401A81B22AE0A08DE18D401A81B27F
:10342000E08D0028A6D00029A4D020680C3050E8F8
:10343000002F22F4907240E80027002FF5D1206879
:10344000143050E8002F22F0010240E80027002F3E
:10345000F5D184F84230256320680C3050E8002F05
:1034600022F0100240E80023002BF5D166632046CD
:10347000FFF707FFF8BDFFE705062BD5150629D591
:1034800094F841002128F5D1A068B0F5805F01D102
:103490002069B0B1206A411C21622168007848602F
:1034A000E08C401E0004000CE084E3D12068C16879
:1034B00021F08001C1602068C16841F04001C16015
:1034C000D8E7206A0088C0F308004860206A801CA2
:1034D0002062E5E74006CDD55006CBD5CA68204628
:1034E00022F04002CA6084F8413000F0FEF8C1E7E3
:1034F0006166000870B5040004D094F8410000250E
:1035000010B106E0012070BD84F84050204600F064
:1035100023F8242084F841002068C16821F4005178
:10352000C160204603F02CF92068016921F4904124
:1035300001612068416921F02A0141612068C16868
:1035400041F40051C1606564202084F8410084F892
:1035500042006563002070BD70B586B00024009401
:1035600001940294039401683248314E02220323ED
:103570000515B14226D1816941F48041816181699B
:1035800001F480410491816941F004018161806905
:10359000294E00F0040004901002CDE900026946B3
:1035A00003933046FEF7C6FACDE90054694630462B
:1035B0000294FEF7BFFA002205212520FEF7DCFE6B
:1035C000252031E01D4EB14230D1C16941F4802146
:1035D000C161C16901F480210491816941F0100148
:1035E00081618069CDE9005200F01000CDE903301F
:1035F000134D69462846FEF79DFAE814CDE900040C
:10360000694628460294FEF795FA0E49486820F06C
:10361000300040F0E06040F01000486000220521DA
:103620002720FEF7A9FE2720FEF798FE06B070BD02
:1036300000380140001002400008014000480040EE
:10364000001001400000014070472DE9F843044696
:1036500090F841001F4615460E46202802D0022051
:10366000BDE8F8838EB185B100206064212084F824
:103670004100FEF761FBA5848146E584A0684FF018
:103680002008B0F5805F02D003E00120E8E7206960
:1036900010B1354600260EE000250CE080212046C2
:1036A00003F0CAF8A0B9BDB115F8010B2168486054
:1036B000E08C401EE084E08C4B464FF00002009707
:1036C0000028EBD14FF04001204603F0B5F840B19F
:1036D00084F841800320C3E736F8020BC0F30800EA
:1036E000E4E784F841800020BAE7704703F010B99E
:1036F000FEE700000148FEF727BB00004004002061
:103700000148FEF783BB00004004002038B5406A42
:10371000002290F83D302A490C6846F2A811B4FB0B
:10372000F1F1C1EBC10101EB8101009139B1491EF9
:10373000009101680968890505D50099F6E7016CD3
:1037400041F020010164416B01B18A62816B01B1DA
:103750008A6201680C6824F480640C604285416BC5
:1037600001B14A63816B01B14A6301680C6824F0BE
:1037700001040C6090F83D402021602C0AD02824E0
:1037800034EA03030ED080F83D1080F83E20FEF7A7
:1037900055FC38BD80F83D1080F83E200264FEF7ED
:1037A000D1FA38BD01680B6843F001030B60016872
:1037B0000B6843F480630B60026380F83D40E6E7EA
:1037C0001400002000684169C943090601D40021A2
:1037D0000161704770B5044690F83D0094F83E10C2
:1037E000102901D0402906D1222804D121680A6875
:1037F00022F400620A60282131EA00024FF000053D
:103800004FF0200626D021684968090505D46028B4
:1038100003D084F83D6084F83E50256320684168F9
:10382000090537D5416821F400614160606B90F86B
:1038300021203C49012A11D04163606BFEF79EF8BC
:1038400038B32068016821F00101016084F83D600F
:10385000606B1CE0256384F83D10DFE7A06B4163DB
:10386000A06BFEF78BF8A0B120684169C9434906F7
:1038700005D40069616A0870606A401C6062206853
:10388000016821F00101016084F83D60A06B416B8B
:10389000884710E094F83D10602910D04169C94371
:1038A000490605D40069616A0870606A401C60625C
:1038B0002046FEF7C3FB206CC1071CD115E084F83D
:1038C0003D6025644169C943490605D40069616AC0
:1038D0000870606A401C60622068016821F0010184
:1038E00001602046FEF72EFAE5E7810703D4410781
:1038F00001D4000704D52068416821F4E0614160EB
:1039000094F83D00216C49070BD5282809D10648B9
:10391000E062256384F83D6084F83E502046FEF75F
:1039200053FC70BD0D3700080000FFFF10B5C26AE0
:10393000438D0168042B06D0438D032B08D0438DA3
:10394000022B1DD012E04A6822F480624A600CE02B
:103950004B6823F480634B60042A06D0022A04D00B
:1039600001680A6822F480620A6001680969426A93
:103970001170416A491C4162418D491E418510BD4B
:10398000012A34D0102A32D0042A34D0022A32D06C
:103990000B6843F400730B6001680969436A19708E
:1039A000416A491C4162438D5B1E438503681B6964
:1039B0000B70416A491C4162418D491E4185016875
:1039C0004B6823F440734B60202180F83D1090F841
:1039D0003E300021402B80F83E1010D0082A02D043
:1039E000202A00D012210163FEF7EFFB10BD0B6807
:1039F00023F48063CFE70B6843F48063CBE7016374
:103A0000FEF7E5FB10BD000038B590F83D10222907
:103A100010D1C36A418D03290DD901680969426A31
:103A20001170416A491C4162418D491E4185418D99
:103A3000032906D038BDC26A022A02D0012906D065
:103A400029B10068416821F48061416038BD2B498B
:103A500046F2A812002409682025B1FBF2F101EB1F
:103A6000810100910168009A521E009226D00A68D6
:103A70009205F8D40A6822F480620A6001684A68F4
:103A800022F4E0624A6001680969426A1170416A81
:103A9000491C4162418D491E418580F83D5090F896
:103AA0003E1080F83E40402921D0082B23D0202B07
:103AB00021D012210163FEF788FB38BD026C42F071
:103AC000200202644A6822F4E0624A6001680969DF
:103AD000426A1170416A491C4162418D491E41850B
:103AE00080F83D5080F83E40FEF7A8FA38BD0463E8
:103AF000FEF76DFB38BD0463DDE700001400002015
:103B000010B5C16A90F83D20212A0BD1428D52B1E7
:103B1000416A026809781161416A491C4162418D1C
:103B2000491E418510BD20230022082912D02029DA
:103B300010D011F5803F0DD001684C6824F4E0648A
:103B40004C601121016380F83E2080F83D30FEF783
:103B50003DFB10BD01684C6824F4E0644C600168D2
:103B60000C6844F400740C60026380F83D3090F8F7
:103B70003E1080F83E204029E9D1FEF729FB10BD18
:103B800010B590F83D2090F83E30C16A048DB4B174
:103B9000212A03D0402B11D1222A0FD1418DE9B324
:103BA00090F83E10402940D0416A026809781161BE
:103BB000416A491C4162418D491E418510BD212A3F
:103BC000E8D120230022082912D0202910D011F595
:103BD000803F0DD001684C6824F4E0644C601121F2
:103BE000016380F83E2080F83D30FEF7EFFA10BD0B
:103BF00001684C6824F4E0644C6001680C6844F48B
:103C000000740C60026380F83D3090F83E1080F83C
:103C10003E204029E9D1FEF7DBFA10BDFFE700683E
:103C2000416821F480614160F7E7BDE8104000F091
:103C3000F2B8000078B590F83E40C26A056B90F883
:103C40003D6000230168222E73D1066D0EB9402C11
:103C50006FD0046D1CB90469B4F5404F1BD0448D7E
:103C600094B3468D484C012E20D0458D022D4DD069
:103C70000D6845F480650D6001684D682D0579D5A6
:103C8000A24273D0012A71D0082A6FD0102A6DD0B9
:103C9000202A6BD06EE04A698A6900920A6842F471
:103CA00080720A60016D491C016578BDA24214D181
:103CB0000A6822F480620A6001684A68120504D525
:103CC0000A6822F4806217E0FFE74A698A69009275
:103CD0000A6842F400720A6050E0082A10D0202AD4
:103CE0000ED0122D0AD0042A03D0022A01D0102AA5
:103CF000E6D10A6842F480620A603BE0012ADFD024
:103D00000A6822F480620A600168DEE7042A11D0A2
:103D1000022A0FD0102A0DD00D6845F400650D6001
:103D200001684D698D6900950D6825F480650D6009
:103D300008E025E00D6845F480650D6001684D6977
:103D40008969009101684D682D0517D5A24207D0F9
:103D5000012A05D0082A03D0102A01D0202A0DD12B
:103D60004A6842F480524A6008E0FFE74A6842F439
:103D700080524A6001684A6989690091036578BD8B
:103D800048698869009078BD0000FFFF90F83E10F8
:103D900040290FD00169B1F5804F18D0016DA1B352
:103DA000016D01290FD1416CF12201F4407142EA09
:103DB000D11106E0016D0029416C05D0C9B241F076
:103DC000010100680161704701F0FE01F9E790F818
:103DD0003D102129416C09D0C9B241F001010268AE
:103DE0001161416B29B1896A49B902E001F0FE0114
:103DF000F5E7816B0029E6D0896A0029E3D00068E5
:103E0000416841F4006141607047FFE7416CF02276
:103E100001F44071CBE710B590F83D10026D4AB146
:103E2000026D012A14D0026D022A16D0BDE810409E
:103E3000FFF7C8BCC16C0129816C02D0C1F3072116
:103E400008E00268C9B21161016D891C016510BDED
:103E5000816CC9B20268116123E022291CD0428D15
:103E60000AB1212920D0428D002AF0D12129EED19A
:103E700001684A6822F4E0624A6001680A6842F414
:103E800000720A6000210163202280F83D2080F842
:103E90003E10FEF79DF910BD01680A6842F4807279
:103EA0000A60016D491CD1E7416A02680978116115
:103EB000416A491C4162418D491E418510BD38B59A
:103EC0000D4690F83D2000212824944302680B46BB
:103ED00005D051699169009180F83C3038BD546833
:103EE00024F480645460EA43540700D5012112068B
:103EF00001D5828900E0028B80F83C3092B2FDF758
:103F000022FF38BD2DE9F04190F83D200446C16AFA
:103F1000002520261E4F00686FF48063082901D019
:103F2000202901D1282A04D0212A17D04361BDE8D5
:103F3000F081E762416821F4E061416020684361FB
:103F40002068016821F480610160256384F83D6088
:103F500084F83E502046FEF737F9E8E7E762212172
:103F6000216384F83D6084F83E50416821F4E061AB
:103F70004160206843612068016821F4806101602C
:103F80002046FFF71FFC2046FEF763F9CFE700004D
:103F90000000FFFFF8B590F83D5004460068416806
:103FA00021F4E061416020680026416900910168C8
:103FB00041F0010101602068016821F48061016025
:103FC00020684168090520D5474F222D48D02A2D69
:103FD00046D0616B096849686185618D19B1216CB2
:103FE00041F004012164416821F400614160606B8B
:103FF000FDF75CFD012808D0606B4763606BFDF73F
:10400000BDFC10B1606B416B8847608D08B32068C0
:104010004169C943490708D40069616A0870606A48
:10402000401C6062608D401E608520684169C94304
:10403000490608D40069616A0870606A401C6062C1
:10404000608D401E6085608D18B1206C40F00400CA
:104050002064206C00B32046BDE8F840FFF7BABBEF
:10406000A16B096849686185618D19B1216C41F0C6
:1040700004012164416821F400614160A06BFDF7F7
:1040800015FD0128C1D0A06B4763A06BFDF776FC3E
:104090000028BAD0A06BB6E72A2D06D126632820C7
:1040A00084F83D002046FEF7D3F894F83D10202018
:1040B00028290DD0216B222901D0222D07D126637A
:1040C00084F83D0084F83E602046FEF7C1F8F8BD54
:1040D0000649E162266384F83D0084F83E6020468C
:1040E000FEF772F8F8BD00000D3700080000FFFF72
:1040F00070B50D4C0025C4F898510C48016821F0AA
:1041000070410160016841F040510160C4F89C5168
:10411000022004F5CC74FDF743F801202060022052
:10412000FDF73EF8256070BD00802142000C014083
:1041300070B50D4C0026C4F898610C48016821F058
:1041400070410160016841F0405101600125C4F8EF
:104150009C51022004F5CC74FDF722F82560022062
:10416000FDF71EF8266070BD00802142000C014062
:104170002DE9F047814617480024016821F070417D
:104180000160016841F000410160134E2546274659
:104190004FF00108C6F898710220FDF701F8C6F843
:1041A00098816006040ED6F81C0108B1641CE4B2C4
:1041B0000120FCF7F5FF6D1CEDB2082DEAD3B9F133
:1041C000000F04D0FFF794FF2046BDE8F087FFF70B
:1041D000AFFFF9E7000C0140008021422DE9F041DA
:1041E00005461448016821F070410160016841F002
:1041F00040510160104E0027C6F898713C464FF0C0
:104200000108E809C6F89C016806050E0220FCF7C3
:10421000C7FFC6F898810220FCF7C2FFC6F8987164
:104220000220FCF7BDFF641CE4B2082CE9D3BDE812
:10423000F0810000000C01400080214270B50D4863
:10424000016821F070410160016841F04051016056
:10425000094C0120C4F89C01C4F89801042004F51D
:10426000CC74FCF79DFF002565600420FCF798FFE7
:10427000256070BD000C0140008021420E4810B541
:10428000016821F070410160016841F04051016016
:104290000A4C0020C4F89801C4F89C01042004F5DD
:1042A000CC74FCF77DFF012020606060BDE8104009
:1042B0000420FCF775BF0000000C01400080214283
:1042C00070B513480024016821F070410160016855
:1042D00041F0004101600F4D0126C5F89C61304658
:1042E000FCF75EFFC5F898610120FCF759FF07E075
:1042F000641CE4B2FA2C03D9FFF7C0FF012070BDA3
:10430000D5F81C010028F3D1C5F8980170BD000054
:10431000000C01400080214230B505460A4804885F
:10432000408821464443491E401E8AB283B2002180
:10433000084600F031F90021044801E00580491CDD
:10434000A142FBD330BD00009C6200200008006C3D
:104350002DE9FE4F0026A2EB000882465F1A701E70
:1043600035468946B8F1000F02DD4FF0010102E049
:1043700003D14FF00001019102E0C8F10008019063
:10438000002F02DD4FF0010002E003D14FF00000EA
:10439000009002E0C7F1000700904046B84501DDFB
:1043A000044600E03C46601C4FF0000B029015E014
:1043B0001FFA89F11FFA8AF000F016F846443D44CE
:1043C000A64202DD0199361B8A44A54202DD00990E
:1043D0002D1B89440BF101001FFA80FB02998B45CC
:1043E000E6DDBDE8FE8F000000B500F0D1F8024820
:1043F00002490088088000BDA80000200008006C69
:1044000010B56420FCF7BFFE5F4CCF202080002158
:10441000A01C0180C921018030210180ED21218073
:10442000642101800321018012210180812101800A
:10443000E821218085210180102101807A210180DD
:10444000CB212180392101802C2101800021018094
:104450003421018002210180F72121802021018067
:10446000EA212180002101800180C02121801B21BF
:104470000180C121218000210180C52121803021BE
:1044800001800180C7212180B72101803621218050
:10449000082101803A21218055210180B12121800C
:1044A000002101801A210180B62121800A2101808A
:1044B000A2210180F221218000210180262121807A
:1044C00001210180E02121800F2101802A2101802A
:1044D00028210180082101800E210180082101800E
:1044E00054210180A9210180432101800A210180FA
:1044F0000F21018000210180018001800180E121E4
:1045000021800021018015210180172101800721D0
:10451000018011210180062101802B21018056217B
:1045200001803C21018005210180102101800F21A3
:1045300001803F21018001800F2101802B212180FA
:10454000002101800180012101803F2101802A2179
:1045500021800021018001800180EF210180112054
:1045600020807820FCF70FFE29202080002000F01A
:1045700041F9012211460548FDF7D9FBBDE810407D
:104580004FF6FF70FFF7C8BEFE07006C000C01403D
:104590000B460246AFF30080F0B40D4E0D4FB489C8
:1045A0003C80050ABC1C2580C0B22080100A2080F7
:1045B000D0B22080F0893880080A2080C8B22080DC
:1045C000180A2080D8B22080F0BC00F001B90000A9
:1045D0009C620020FE07006C2DE9FF4F81B00EAEFB
:1045E000824696E83100203800F0FF080298DFF894
:1045F000E0B02044401E83B20AEB5400BBF8001028
:10460000401E009182B250460299FFF7C5FF4FF05D
:1046100000067DBB2F4908EB480001EB800901F241
:10462000744000EB081817E00C2C03D018F8065063
:1046300000270CE019F80650FAE7E80701D00398C4
:1046400000E0049800F002F96D087F1CFFB2B7EBA0
:10465000540FF2D3761CF6B2A642E5D327E00C2C19
:1046600009D01D4800EB08100025875D029800EB7B
:10467000060915E019E0174808EB480100EB810036
:10468000F2E70398ABF80000F80706D00AEB050044
:104690001FFA89F180B2FFF7A7FE7F086D1CEDB20B
:1046A000B5EB540FEDD3761CF6B2A642D7D30098E3
:1046B000ABF8000009484188008805B0491EBDE8F4
:1046C000F04F401E8BB282B200210846FFF764BF54
:1046D000A8000020A4060308180B03089C62002011
:1046E0002DE9FF4F83B00027DDF840801D4681464D
:1046F0003C46BA464FEA5806DFF864B02AE0281B69
:10470000401EC1B20A2023F0E9FD0599B1FBF0F08B
:104710000A21B0FBF1F201FB120027B9691E8C429D
:1047200001DA40B101273030C0B28DE8010506FB47
:10473000049080B205E0202206FB04908DE8040579
:1047400080B20849BBF800300A880499FFF744FF9B
:10475000641CE4B2AC42D2D307B0BDE8F08F0000D5
:10476000AA000020A80000202DE9FE4F1C46164696
:104770000F460546DFF84C90DFF84CA0DFF84CB050
:10478000DDF8308017E0B9F80020521EAA4217DB8E
:10479000B9F80210491EB94212DB8DE84101BAF89E
:1047A0000030BBF8002039462846FFF715FF05EB1F
:1047B000560085B2641C2078A0F120015E29E2D960
:1047C000BDE8FE8F9C620020AA000020A800002007
:1047D0000248034900890880704700009C6200205D
:1047E000FE07006C024A1080901C01807047000098
:1047F000FE07006C12492A224FF4A0738A812B22F3
:10480000CA812C220A812E224A81F02258B1012825
:104810000DD002280FD0032811D10B804A80B82177
:104820003620FFF7DFBF0A804B800821F8E70B80B6
:104830004A806821F4E70A804B80D821F0E770476E
:104840009C6200207047704770477047014908809C
:10485000704700000008006C0148FDF703B8000035
:10486000C803002070B50A4C05462068FCF79AFF83
:104870004FF4FA712068FCF7F7FE10B14FF0FF30EB
:1048800070BD2068FCF7B9FD2860002070BD0000F5
:104890007C03002010B5124823F0F0FE114C211DBE
:1048A0002046FCF701FC10B1FCF7A2FB12E00D481A
:1048B000D4E9002308300CA10446FBF7BDFD0848ED
:1048C00000231A46C06821462AF08EFC3221204679
:1048D000FCF77BF8BDE81040014823F0D7BE00008C
:1048E0009C03002058DD00202274656D70657261A4
:1048F00074757265223A222564222C2268756D69CE
:1049000064697479223A222564222C007CB51C4803
:1049100023F0B4FE1B4C201DFFF7A4FF50BB6068C2
:104920004FF4A57102464843C11700EB1150001324
:104930000A2190FBF1F3206001FB130490FBF1F3DB
:1049400093FBF1F501FB1531642390FBF3F3CDE903
:1049500000140C480CA108300446FBF76DFD084814
:1049600000231A46C06821462AF03EFC3C2120461E
:10497000FCF72BF8BDE87C40014823F087BE00001F
:104980009C03002094DD0020224C69676874223A61
:10499000222564222C22566F6C74223A2225642E22
:1049A00025642564222C000029F08AFC214C224D2C
:1049B000224E234FDFF88C80DFF88C90DFF88CA03C
:1049C000002223492348FEF79EF8FFF763FFFFF715
:1049D0009DFF184823F052FE00221C21286816F083
:1049E000C5FB00221C21306816F0C0FB00221C21F0
:1049F000386816F0BBFB00221C21D8F8000016F026
:104A0000B5FB00221C21D9F8000016F0AFFB0022F4
:104A10001C21DAF8000016F0A9FB20F0A5FED4E96D
:104A200001012AF014FA034823F030FEB42029F0E3
:104A300091FEC5E79C030020000300201003002026
:104A40006C030020380300203C03002040030020BA
:104A50000C000020940400202DE9FC410746154677
:104A60000E4600246846009324F02EFD60F30704F0
:104A7000C4F3C00030702009387001A9009800F01C
:104A8000EFF80099019A014400910A44511A022951
:104A900004DB684624F01EFD28800120BDE8FC816F
:104AA0002DE9FC41074600240E4625466846009243
:104AB00024F00AFD0146204661F3070000090228A0
:104AC00019D101A9009800F0CBF8009905460844D7
:104AD000019900900144081A02280CDB684624F072
:104AE000F3FC60F3070404F001003870684624F01A
:104AF000EBFC307001252846BDE8FC812DE9FC5F08
:104B00008046DDE90EA00024CDE900049946174651
:104B10000E462546DDF834B0684624F0D5FC60F337
:104B20000704200903282CD1C4F3C00188F8001021
:104B3000C4F34100306004F00100387001A900980E
:104B400000F08EF800990546084401990090441839
:104B5000224669460C9824F0C6FC90B10098201AB1
:104B60000FD43068002804DD684624F0B3FCA9F8AF
:104B700000000098211ACAF8001000990125CBF80E
:104B800000102846BDE8FC9F2DE9FC4782464FF007
:104B900000090A9800901E46144688464D464F4626
:104BA000684624F091FC60F307052809092826D1FE
:104BB00001A9009800F054F80099074608440199AB
:104BC00000904518281A022819DB684624F082FC58
:104BD000AAF80000C4F800900DE02168414502DD0C
:104BE0004FF0FF370BE0684624F06EFC21688A0026
:104BF000491C2160B0500098A842EED301273846E6
:104C0000BDE8FC873EB5002400920B4602468DF8B5
:104C100004408DF8084002A901A8FFF71DFF9DF888
:104C200004100B2900D101203EBDF8B50124002558
:104C30000E4607460D606D1C042D0FDC01216846F1
:104C4000B84701280AD19DF80000316800F07F02C2
:104C500002FB0411E40131600006ECD42846F8BDE3
:104C6000024A10600248FFF7E0BF00007403002012
:104C7000D992000810B504460020CA1701EB526310
:104C800023F07F02891ACAB2D911002901DD42F04E
:104C90008002225400F10100EFDC10BD70B5024625
:104CA00000680D4620B10646FBF784FD044601E08E
:104CB000D2E901462846FBF77DFD844205D1224614
:104CC00029463046FBF795FD08B1002070BD012054
:104CD00070BD0000401C802801DA401C7047B0F510
:104CE000804F01DA801C70470349884201DAC01CFA
:104CF0007047001D70470000FFFF1F00F8B500243B
:104D0000069E05460090042901DAA01EF8BD62F354
:104D1000071463F3C304062A24F0060200D1921C90
:104D2000D1B268462AF055F802210098FFF7A2FF99
:104D3000009908440090314668462AF050F80098DF
:104D4000401BF8BD2DE9F8430646009088461446FE
:104D50000025104600F082F88146FFF7BBFF404572
:104D600002DDA81EBDE8F8832F46394667F3070128
:104D7000684610312AF02DF849460098FFF77AFF6F
:104D8000009908440090207A04281DD02FA168467D
:104D90002AF00BF8032168462AF01BF8A07E67F37F
:104DA000070560F34105E07E08B145F0040568079A
:104DB00007D594F83D0060F3C40594F83C0060F317
:104DC0004515206C40B905E022A1684629F0EDFFA9
:104DD0000421E0E7A06C08B145F08005E06C08B95B
:104DE000606D08B145F040052946684629F0F1FF9D
:104DF000218B684629F0F3FF04F10C0168460EC9C7
:104E000029F0FCFFE07E68B12434684694E80E0087
:104E1000243C29F0F3FF3034684694E80E00303C1F
:104E200029F0ECFF280605D504F1400168460EC9BB
:104E300029F0E4FF680605D54C34684694E80E0076
:104E400029F0DCFF0098801B8CE700004D5149736E
:104E5000647000004D5154540000000070B50446C9
:104E6000007A0025032802D0042802D002E00C2595
:104E700000E00A2504F10C0007C800F00DFA054413
:104E8000E07EAD1C78B1243494E80700243C00F0A7
:104E900003FA3034064694E80700303C00F0FCF991
:104EA000304405442D1D206C08B9A16C29B1D4E90A
:104EB000111200F0F1F90544AD1CE06C08B9616D08
:104EC00029B1D4E9141200F0E7F90544AD1C2846D5
:104ED00070BD0C2200F0AEB82DE9FC5F1C46129E9E
:104EE000CDE90060DDF838B09046DDF830A0DDE9AE
:104EF0000F23894605465946204600F030F80746FC
:104F0000FFF7E8FE484503DD6FF00100BDE8FC9FB8
:104F1000302168F3C30164F342016AF3000101A880
:104F200029F057FF39460198FFF7A4FE019908447C
:104F30000190DDE90F23594601A829F05FFF002CFD
:104F400003DD01A80D9929F04AFF32461199019815
:104F5000FBF79AFC019830440190401BD6E770B5EE
:104F60000E46114604461A463046049D00F094F958
:104F70002844801C002C00DD801C70BD2DE9FF4FF3
:104F800083B08A46DDE910870646002501909346E6
:104F9000DDF848902C463946404600F035F8009040
:104FA000FFF798FE504503DDA81E07B0BDE8F08F5F
:104FB00065F3070580356BF3C30525F00600801CFB
:104FC000C1B201A829F005FFDDE90010FFF752FE8C
:104FD00001990844019001A8069929F000FF0EE00C
:104FE00004EB440007EB800501A895E80E0029F0CA
:104FF00005FF19F8241001A829F0EBFE641C4445B4
:10500000EEDB0198801BD0E72DE9F04102250E462A
:105010000746002409E004EB440006EB800007C8C3
:1050200000F03AF90544641CED1CBC42F3DB284651
:10503000BDE8F08138B5002304460090022901DA6A
:10504000981E38BD194663F3070162F307116846DD
:1050500029F0BFFE00210098FFF70CFE00990144E3
:10506000081B009138BD00001CB52F4D2F4E0027A6
:1050700005F10C04AF62EF622F636F6322F042F818
:10508000A061296822F0FAFCA069696822F08AFC14
:105090000A2024F0C1F90146A06922F03FFC0A2051
:1050A00024F0BAF90146A06922F01EFD0A2024F07E
:1050B000B3F90146A06922F0ABFC0121A06922F0FE
:1050C000F3FBA06921F0E0FC0028D3D1184B0022AB
:1050D00018A1A06922F0A4FD0023012217A1A06954
:1050E00022F09EFD0023022216A1A06922F098FD65
:1050F00000231A46A069A96822F092FD29F054FA0B
:10510000706850B909482A21001DCDE9001000231C
:1051100080220EA112482AF059FB306829F0F0FCD9
:1051200029F062FAA6E700009003002044E6002080
:10513000D1D00208746F706963310000746F7069B8
:1051400063320000746F7069633300004D51545432
:105150005F436C69656E745F5461736B000000009F
:10516000655100081CB529F01FFA29F062FE164CA3
:105170006060204623F073FAD4E90401002229F08C
:105180009BFFE06011482021CDE900100A010023B7
:105190000FA113482AF01AFB0C482821001DCDE965
:1051A000001000234FF4C0620EA112482AF00EFB3B
:1051B000064C083C606818B129F0F2FA00206060E3
:1051C000BDE81C4029F010BA9C0300204CE60020EA
:1051D0004D5154545F506C6174666F726D000000E5
:1051E000F95100084C76676C446973706C617954AE
:1051F00061736B00A9490008B4B0C82101A8FBF78E
:10520000E4FB1F4C01AD0020A5622077461E0096EE
:10521000D4E9010101231A4629F060FE184823F061
:105220002DFA01A8FBF7C6FA41190A22E0682AF014
:105230003BF9012809D013A0FBF7F2F8104823F03E
:1052400025FA012029F086FAE1E701A8FBF7B2FA76
:1052500041190A22E0682AF027F90128F5D0A06A4E
:10526000FBF7A8FA064A60621C32A2F12801A06985
:10527000896822F049F8C82101A8FBF7A6FBDDE701
:105280009C0300204E6F2064617461207265636529
:10529000697665640D0A00000200084602D01046D7
:1052A000FBF788BA704700003EB500241048009410
:1052B000019402940D498460016004730475012512
:1052C00005614FF460214460C161FCF707F908B142
:1052D000FBF783FF0095CDE9015469460448FCF7CC
:1052E0000DF8002801D0FBF778FF3EBD00240140F7
:1052F000C80300201CB5094A0021094823F020F901
:10530000084900234FF48072086007493020CDE936
:10531000000106A109482AF059FA1CBD44060308F9
:105320009D0E00080000002044E600204D5154541A
:10533000436C69656E74496E6974000069500008B9
:1053400000B58FB01C2108A8FBF73FFB1C2101A86A
:10535000FBF73BFB1C484FF02041102201601B492A
:105360004160062181600021C160C0E904128161B1
:10537000C16113020162C0E909139302C0E90B1372
:10538000416381630F23CDE908130DF1280C1A2026
:105390008CE807001120CDE90D01CDE90113CDE91D
:1053A0000412CDE906010123039301AA08A90648C6
:1053B000FDF75BFD08B1FBF710FF0548C16941F43B
:1053C0008061C1610FB000BDF8030020040100A09E
:1053D000000001402DE9F04F85B0002450480094B2
:1053E000019402940394816941F010018161816903
:1053F00001F010010491816941F0800181618169AE
:1054000001F080010491816941F0040181618169A9
:1054100001F004010491816941F008018161816911
:1054200001F008010491816941F480718161816911
:1054300001F480710491816941F0400181618169C9
:1054400001F040010491816941F02001816180698E
:10545000012200F02000DFF8CC905502049029468C
:105460004846FCF764FCDFF8C0A00022012150464A
:10547000FCF75DFC012240F606415046FCF757FC64
:10548000DFF8A8B04FF46057012239465846FCF7C0
:105490004EFC4FF48058002241462548FCF747FC5B
:1054A0006810CDE90004694648460294FCF742FBC7
:1054B000009501250326CDE9025669464846019527
:1054C000FCF738FBA8028DE8310069464846FCF736
:1054D00031FB0720CDE90005CDE90256694650466B
:1054E000FCF728FBB002009001AA112082E86100BD
:1054F00069465046FCF71EFB0097CDE9015469460A
:1055000058460395FCF716FB0220CDE90240CDE991
:10551000008569460648FCF70DFB05B0BDE8F08F35
:1055200000100240001C0140000C0140001401402A
:10553000000801400D4810B50B4901600C4941605D
:1055400000214FF480428160C0E903124161816112
:10555000C1610162FCF774FD002803D0BDE8104072
:10556000FBF73BBE10BD000000540040400400208B
:10557000A0860100FEB50026484800960196C16944
:1055800041F00061C161C16901F000610291C1692E
:1055900041F08051C161C069424D00F080500290DD
:1055A0003F482860701EC5E901062846FDF718FB34
:1055B00008B1FBF712FE01213A48FDF773FA45F2F4
:1055C0005107394CB84244D016208DF800004620CF
:1055D0008DF801008DF80260012269463148FDF71F
:1055E000CFFB08B1FBF7F9FD02208DF8040008207D
:1055F0008DF8050027208DF8060024208DF807007F
:10560000012201A92748FDF759FB08B1FBF7E5FD89
:105610002868016841F001010160019820603A4664
:1056200001212048FDF746FAE27802211D48FDF7E6
:1056300041FA627803211B48FDF73CFAA278042165
:105640001848FDF737FA227805211648FDF732FA97
:10565000FEBD02211348FDF725FAE0700321114831
:10566000FDF720FA607004210E48FDF71BFAA070C8
:1056700005210C48FDF716FA2070206801900022E1
:1056800001A90848FDF71AFB08B1FBF7A6FD286839
:10569000016841F001010160FEBD00000010024000
:1056A00000280040940400200F00002010B586B0B0
:1056B000002417480094019402940394049413491D
:1056C000059401604721C0E9011440F2E731C0E9C7
:1056D000031480218161FDF73DFC08B1FBF77DFDDE
:1056E0004FF48050009069460948FDF7B5FC08B1B9
:1056F000FBF773FD049404A905480594FDF7ECFB42
:10570000002801D0FBF769FD06B010BD0004004081
:10571000A80400200C4810B50A4901604FF4E1319B
:105720004160002181600C22C160C0E904128161E6
:10573000C161FDF7DFFE002803D0BDE81040FBF794
:105740004CBD10BD00380140F004002010B5104CD5
:105750000E480C2120604FF4E13060600020A06012
:10576000E060C4E90401A061E0612046FDF7C2FEEB
:1057700008B1FBF732FD2068016821F020010160CB
:105780002068C16841F02001C16010BD00480040A0
:1057900038050020FEE7FEE7010901EB810100F07A
:1057A0000F0000EB4100C0B27047002102E00A3850
:1057B000C0B2491C0A28FAD2090740EA11607047B2
:1057C0002DE9F04104460025C07B627BA37B42E0CB
:1057D000012A16D0032A14D0052A12D0072A10D085
:1057E000082A0ED00A2A0CD00C2A0AD0042A10D07B
:1057F000062A0ED0092A0CD00B2A0AD0022A0DD074
:1058000028E01F2B0CD30C2A05D101221346401C83
:1058100020E01E2B04D30123521C1BE01C2B02D2C0
:1058200003F1010316E011D183B29E0710D1642663
:10583000B3FBF6F706FB173636B94FF4C876B3FB61
:10584000F6F706FB17331BB91D2303E01D2B01D10F
:10585000032201236D1C8D42BAD3D1B2E073617370
:10586000DAB2A27300F055F82073BDE8F08170B58C
:105870000546FCF761FA04464FF47A7606E0FCF739
:105880005BFA001BB04201D9032070BD2868406854
:105890008006F4D52868416841F01001416000207D
:1058A00070BD70B505460068416821F01001416087
:1058B000FCF742FA04464FF47A7606E0FCF73CFA2D
:1058C000001BB04201D9032070BD286840688006E3
:1058D000F4D5002070BD00000148FDF7F5B80000C8
:1058E000940400200068016A406A80B240EA0140E6
:1058F0007047006881698AB2C1698BB2816989B2D7
:105900008A4203D0C06961F31F40704743EA0240F6
:105910007047F0B56426C1EBC1030925B700072421
:1059200003EB01130329B3FBF5F100F5FA60114411
:1059300001440AD2401EB0FBF6F201EB9001B0FB2D
:10594000F7F0891A0844001D08E0B0FBF6F201EBFD
:105950009001B0FBF7F0891A0844801CB0FBF4F109
:1059600004FB1100C0B2F0BD70B50D460646002420
:10597000FFF77DFF48B93168280C08623168A8B28A
:1059800048623046FFF78DFF00B10124204670BD0C
:1059900070B50D4606460024FFF769FF48B9316827
:1059A000280C88613168A8B2C8613046FFF779FFDA
:1059B00000B10124204670BD10B54FF0E020006911
:1059C00029F05EFF012803D0BDE8104029F05EBB3E
:1059D00010BD30B595B028216846FAF7F6FF1421BE
:1059E0000AA8FAF7F2FF18210FA8FAF7EEFF052030
:1059F0004FF4803100248DE81300012003900490BF
:105A00004FF4E010CDE90810022507956846FCF731
:105A1000BDFE08B172B6FEE70F20CDE90A054FF4CE
:105A20008060CDE90C4002210AA80E94FCF7ACFD81
:105A300008B172B6FEE703200F904FF4807010900B
:105A40004FF4404011900FA8FCF72AFD002801D028
:105A500072B6FEE715B030BD704700000148FDF793
:105A60006ABB0000800500200148FDF764BB000010
:105A7000A8040020F0B50268204D214E214FDFF828
:105A800088C0224B4FF0804EA84209D0984207D0E0
:105A9000704505D0B04203D0B84201D0604503D173
:105AA00022F070044A682243A84209D0984207D0E5
:105AB000704505D0B04203D0B84201D0604503D153
:105AC00022F44074CA6822434C6922F080022243C7
:105AD00002608A68C2620A688262A84201D0984263
