:020000040800F2
:1000000078EC0020F1020008CD4F000841330008D1
:10001000194F0008E90F0008C9600008000000003F
:1000200000000000000000000000000025020008A1
:10003000BD100008000000006902000829510008F6
:100040000B0300080B0300080B03000849500008CD
:100050000B0300080B0300080B0300080B03000848
:100060000B0300080B0300080B0300080B03000838
:100070000B0300080B0300080B0300080B03000828
:100080000B0300080B030008690C00080B030008B1
:100090000B0300080B0300080B0300080B03000808
:1000A0000B030008CD5100080B0300080B030008E8
:1000B0000B030008D95100080B030008A133000806
:1000C000953300080B0300080B0300080B0300081E
:1000D0000B030008216000080B0300082D600008D6
:1000E0000B0300080B0300080B0300080B030008B8
:1000F0000B0300080B0300080B0300080B030008A8
:100100000B0300080B0300080B0300080B03000897
:100110000B0300080B0300080B0300080B03000887
:100120000B0300080B0300080B0300080B03000877
:1001300000F002F800F067F80AA090E8000C824492
:100140008344AAF10107DA4501D100F05CF8AFF26F
:10015000090EBAE80F0013F0010F18BFFB1A43F0A5
:1001600001031847A4460300C44603000A444FF0A5
:10017000000C10F8013B13F0070408BF10F8014B06
:100180001D1108BF10F8015B641E05D010F8016B4B
:10019000641E01F8016BF9D113F0080F1EBF10F8AF
:1001A000014BAD1C0C1B09D16D1E58BF01F801CBD2
:1001B000FAD505E014F8016B01F8016B6D1EF9D555
:1001C0009142D6D37047000000230024002500266A
:1001D000103A28BF78C1FBD8520728BF30C148BFAA
:1001E0000B607047642900F08D81782900F0C6818A
:1001F000732900F0E884002070471FB500F09BFAD7
:100200001FBD10B510BD00F001FD1146FFF7F5FF51
:1002100025F098F800F01FFD03B4FFF7F2FF03BCD0
:1002200007F0B9FC224B19680868B0E8F00F80F3BA
:100230000988BFF36F8F4FF0000080F311884EF0F4
:100240000D0E70470000000006480068006880F34B
:10025000088862B661B6BFF34F8FBFF36F8F00DFC0
:1002600000BF00BF08ED00E0EFF30980BFF36F8F20
:100270000F4B1A6820E9F00F106008B54FF05000DE
:1002800080F31188BFF34F8FBFF36F8F2CF006FD03
:100290004FF0000080F31188BDE808401968086835
:1002A000B0E8F00F80F30988BFF36F8F704700BF8D
:1002B0008C000020EFF30580704700000B49D1F857
:1002C00000C04A685CF8043B1068184442F8040B0C
:1002D0008C4528BFA1F1DC0C8A4228BFA1F1DC02C9
:1002E000C1F800C04A6020F0004070470CE60020D2
:1002F0000948804709480047FEE7FEE7FEE7FEE7BA
:10030000FEE7FEE7FEE7FEE7FEE7FEE704480549F5
:10031000054A064B70470000C9510008310100082A
:1003200078E6002078EC002078E8002078E80020CB
:10033000704753EA020C00F069802DE9F04B4FF052
:100340000006002B1FBFB3FA83F503FA05F424FA65
:1003500005F65E4012BF1643B2FA82F502FA05F4C2
:10036000C5F120051EBF22FA05FC44EA0C04203525
:1003700056EA044C4FEA144418BF641C4FF00008BE
:100380004FF00009904271EB030C39D3002919BFDB
:10039000B1FA81F701FA07F6B0FA80F700FA07F62A
:1003A000C7F120071EBF20FA07FC46EA0C062037DB
:1003B000B6FBF4FCA7EB0507103F07F01F0BCBF1D2
:1003C00020060CFA0BFB2CFA06F644BFB3460026B7
:1003D000202FA4BF5E464FF0000B5BEA060C08BF5F
:1003E0004FF0010B19EB0B09ABFB027C48EB060845
:1003F000C01B06FB02CC0BFB03CC71EB0C01C1E76D
:100400000B46024641464846BDE8F08B13B54FF017
:1004100000004FF00001AFF30080BDE81C407047C2
:100420000FB4044910B503AA029800F0D1FB10BC28
:100430005DF814FB480000200FB41CB5084B06AA59
:100440007B4469460090059800F093FB0446002029
:10045000694600F0A1FB20461CBC5DF814FB0000BF
:100460005507000070B5044685690068C10601D5CE
:10047000302600E02026C00707D070BDD4E9012156
:1004800030469047206A401C20626D1EF6D570BD34
:1004900070B5044685690078C00707D170BDD4E9FE
:1004A000012120209047206A401C20626D1EF6D555
:1004B00070BD70B50C460546012A05D02878800627
:1004C00000D5EA69002302E0012305E05B1C9342AA
:1004D00002D2E05C0028F9D1A869E618C01AA86128
:1004E000286A184428622846FFF7BCFF04E0D5E9D3
:1004F000012114F8010B9047B442F8D32846FFF7C6
:10050000C7FF70BD2DE9F04106460024106875292B
:10051000314616A510D0AFF30080002802DA404221
:1005200013A507E031688A0701D512A502E0490743
:1005300004D511A5012401E0AFF3008000210A22B7
:1005400006F1240709E0B0FBF2FCB0FBF2F302FB7A
:100550001C00303078541846491C0028F3D123463B
:100560002A463046BDE8F04100F0A5BA0000000080
:100570002D0000002B0000002000000070B5044694
:100580000D4621461068AFF300802188090502D589
:100590000F4A7A4402E00E4A7A440E32002104F1F6
:1005A000240305E000F00F060009965D5E54491C27
:1005B0000028F7D120780023000704D5702D02D041
:1005C00009B1022311322046BDE8704000F073BA31
:1005D0006A3C03002DE9F05F894604464FF0000AAB
:1005E000DFF824B1FB44C0F820A02046E16888472A
:1005F00000287DD0252806D0D4E901219047206A23
:10060000401C2062F1E700255F462046E1688847EC
:100610002028064607DB312E05D2B81910F8200C29
:1006200008B10543F1E7A80701D525F00405C4F892
:100630001CA00027C4F818A02A2E09D0304605F0C7
:10064000E1FD38B304EB8708303EC8F8186019E0C4
:1006500059F8041B204604EB87029161E168884742
:10066000012F064618D1E069002820DA25F0200580
:100670001DE0D8F8180000EB800006EB4000303891
:10068000C8F818002046E1688847064605F0BAFD1C
:100690000028EED1012F0AD02E2E08D12046E16885
:1006A00088477F1C0646022F45F02005C4DBA06961
:1006B000002803DA404245F00105A061E80701D0B7
:1006C00025F01005A6B1A6F14100192802D8203660
:1006D00045F400654A463146204625604D46FFF701
:1006E00081FD60B1012807D0ED1D25F0070000E075
:1006F00007E000F1080978E705F1040975E73046DD
:100700007AE7206ABDE8F09F403C03000B4910B532
:10071000A1F17C020A4CC2E93712372106E000EB56
:10072000104342F82130074B00FB03400B1EA1F1A0
:100730000101F4DC10BD0120E8E70000ACE5002079
:10074000E119D666CD0D010030B505460B462A46A7
:1007500013F8014B12F8010B08B1A042F8D01CB1FC
:10076000002802D06D1CF1E7284630BD40EA0103A5
:10077000024630B59B0710D14FF0013400E008C2AB
:1007800008C91D1B9D4315EAC41FF8D013F0FF01D3
:1007900002F8011B0DD01B0AF8E711F8013B002BF2
:1007A00002F8013B05D011F8013B002B02F8013B98
:1007B000F3D130BD10B5431C02E010F8011B71B13C
:1007C0008107FAD14FF0013202C88C1A8C4314EA27
:1007D000C211F9D0C01A0A0603D0C01E10BDC01A3B
:1007E00010BD0A0401D0801E10BD0902FCD0401EBD
:1007F00010BD40EA010370B59B072ED14FF00136C2
:10080000042A2AD308C810C99D1B9D43121F15EA4C
:10081000C61517D0D8B2E1B2401A50EA056110D11E
:1008200098B2A1B2401A50EA05410AD123F07F40A4
:1008300024F07F41401A50EA052102D1180EA0EBA6
:10084000146070BDA342DBD018BA21BA884201D926
:10085000012070BD4FF0FF3070BD0AB9002070BD9F
:1008600010F8013B11F8014B63B1A3420AD1521EAB
:1008700008D010F8013B11F8014B1BB1A34201D184
:10088000521EEDD1181B70BD032A40F2308010F0CB
:10089000030C00F0158011F8013BBCF1020F62441B
:1008A00098BF11F801CB00F8013B38BF11F8013BAC
:1008B000A2F1040298BF00F801CB38BF00F8013B59
:1008C00011F0030300F02580083AC0F0088051F8C9
:1008D000043B083A51F804CBA0E80810F5E7121DD4
:1008E0005CBF51F8043B40F8043BAFF30080D207F3
:1008F00024BF11F8013B11F801CB48BF11F8012BBF
:1009000024BF00F8013B00F801CB48BF00F8012BE1
:10091000704710B5203AC0F00B80B1E81850203A6B
:10092000A0E81850B1E81850A0E81850BFF4F5AF8F
:100930005FEA027C24BFB1E81850A0E8185044BF19
:1009400018C918C0BDE810405FEA827C24BF51F886
:10095000043B40F8043B08BF7047D20728BF31F87A
:10096000023B48BF11F8012B28BF20F8023B48BFCB
:1009700000F8012B704702F0FF0343EA032242EA2A
:10098000024200F002B84FF000020429C0F01280C9
:1009900010F0030C00F01B80CCF1040CBCF1020F32
:1009A00018BF00F8012BA8BF20F8022BA1EB0C0107
:1009B00000F00DB85FEAC17C24BF00F8012B00F8FD
:1009C000012B48BF00F8012B70474FF0000200B523
:1009D000134694469646203922BFA0E80C50A0E862
:1009E0000C50B1F12001BFF4F7AF090728BFA0E810
:1009F0000C5048BF0CC05DF804EB890028BF40F8DC
:100A0000042B08BF704748BF20F8022B11F0804F1D
:100A100018BF00F8012B70474FF0013C50F8042B31
:100A200051F8043B9A4221D1A2EB0C03934313EA01
:100A3000CC1317D150F8042B51F8043B9A4215D12E
:100A4000A2EB0C03934313EACC130BD150F8042B05
:100A500051F8043B9A4209D1A2EB0C03934313EAE9
:100A6000CC13DBD04FF00000704700BFD01A01BAA2
:100A7000B1FA81F101F0180122FA01F0CB40C1F185
:100A80002001DBB2C0B2C01A2CFA01F3D11A914393
:100A900011EAC311E6D1704770477047704770473D
:100AA00010B500F0A7F8006810BD10B5044600F0BE
:100AB000A1F8046010BD2DE9F0470D469946924615
:100AC000044600F124080168880604D5E06921F095
:100AD0001001216000E00120A84201DD471B00E079
:100AE0000027A1697A1902EB0900081AA061207891
:100AF000C00602D42046FFF7B5FC002608E0D4E982
:100B000001211AF806009047206A401C761C2062DA
:100B10004E45F4DB2078C0060AD52046FFF7A2FC3C
:100B200006E0D4E9012130209047206A401C206271
:100B3000381EA7F10107F4DC07E0D4E9012118F819
:100B400005009047206A401C2062281EA5F101057F
:100B5000F3DC2046FFF79CFC2078000602D502203B
:100B6000BDE8F0870120FBE701694A1C02610878B3
:100B7000704700B58FB0CDE90131002105910549DD
:100B80007944CDE9031011466846FFF723FD0FB005
:100B900000BD0000E5FFFFFF0A6802F8010B0A60D4
:100BA000704710B5436913B1AFF3008001E0FFF760
:100BB00080FC012010BD127800F124010A7000228F
:100BC0004A700122EDE711684FF0FF32E9E70000BB
:100BD000074B70B50D467B44FFF7CBFF0446284614
:100BE00000F00CF810B14FF0FF3070BD204670BD22
:100BF000AB0E01000048704714E60020007B00F0B7
:100C0000800070470048704714E600207546FFF7E3
:100C1000F9FFAE4605006946534620F007008546B9
:100C200018B020B5FFF772FBBDE820404FF000067A
:100C30004FF000074FF000084FF0000B21F00701C4
:100C4000AC46ACE8C009ACE8C009ACE8C009ACE807
:100C5000C0098D46704710B50446AFF300802046AA
:100C6000BDE81040FFF7D8BA014800F05ABB0000B9
:100C70002C03002070B5044600688168C943C90789
:100C800016D1816821F00101816000F0E9FE05467E
:100C900009E000F0E5FE401B022804D920688068C6
:100CA000C043C00706D020688068C043C007F0D0AA
:100CB000002070BDA06A40F01000A062E06A40F021
:100CC0000100E062012070BDF8B5002604460096E0
:100CD00000688168C943C9072CD0816841F00101CF
:100CE0008160154815490068B0FBF1F000E0401E36
:100CF00000900028FBD100F0B3FE054615E000F09F
:100D0000AFFE401B022810D920688068C043C0078E
:100D10000BD0A06A40F01000A062E06A40F0010031
:100D2000E06284F824600120F8BD20688068C04338
:100D3000C007E4D10020F8BD3800002040420F0079
:100D40002DE9F0410D460146002004464E1908E009
:100D50000702301B401E80B200F007F8641C3844C4
:100D6000E4B2AC42F4D3BDE8F08110B5044603F020
:100D7000B5F8200AA02101EB4000C0B203F07EF8D4
:100D800003F0EEF8E0B203F079F803F0E9F803F0CD
:100D9000A5F8A12003F072F803F0E2F8002003F0B8
:100DA00037F8044603F0BAF8204610BD2DE9F041AB
:100DB00016460D460746002409E0E00025FA00F03B
:100DC000C1B2381980B200F006F8641CE4B2B44233
:100DD000F3D3BDE8F08170B50D46044603F07EF80C
:100DE000200AA02101EB4000C0B203F047F803F055
:100DF000B7F8E0B203F042F803F0B2F8284603F087
:100E00003DF803F0ADF803F089F8BDE870400A2022
:100E100000F055B910B5094826F049FC074826F0FE
:100E200055FC0648001D26F042FC0448001D26F033
:100E30004DFC034828F0B5FA002010BD50000020FA
:100E40002C05002070B50C4605460949284628F0B7
:100E5000ACFA002807D02146064826F03CFC18B121
:100E60000128F2D0002070BD6FF0010070BD0000BD
:100E70002C0500205400002010B5144602F05EFA44
:100E80002146054826F027FC18B10348001F0068DA
:100E900010BD6FF0010010BD5000002000249AB07A
:100EA000DFF8C890A346EA46671E0AEB04055646DB
:100EB0003946284600F0D0FB85F801B034B115F86A
:100EC000010C0D2802D1305D0A2816D0684600F0CA
:100ED0009BF990B300246D4626466FF02F08281921
:100EE000394600F0B9FB285D3A2827D006EB860288
:100EF00008EB42014618641CF1E71DA16846FFF7A4
:100F000023FC40B1224669461B48FFF702FD002042
:100F1000C9F800000BE019A16846FFF715FC50B1B5
:100F2000224669461448FFF7F4FCC9F800700F48E0
:100F3000001D26F0D3FB0024B7E713E000240EE0E9
:100F40002819394600F088FB642C07DA285D0D4922
:100F500028F03EFA0548083026F0C0FB641CB44275
:100F6000EEDBE8E7641C642C9FDBE4E74C00002028
:100F70004F4B0D0A00000000340900204552524F2B
:100F8000520D0A002C0500202DE9F0411F461546A0
:100F90000E460446FFF70EFC0146204602F0CEF94D
:100FA00002210EA002F0CAF939460D4826F093FB43
:100FB00080B10B48001F04684CB946B1642D01DDB7
:100FC000642200E02A4607493046FFF75DFC2046D0
:100FD000BDE8F0816FF00100FAE700000D0A0000A3
:100FE0005000002034090020FEE700001FB500205B
:100FF000019002904FF480500090032003906946C6
:10100000014800F02BFC1FBD000801401FB54FF444
:1010100080500090012001900290032003906946C7
:10102000014800F01BFC1FBD0008014070B5FFF730
:10103000EDFF0A4D4FF4805400222146284600F06F
:101040000AFD142000F03BF801222146284600F05A
:1010500002FDBDE870401E2000F03EB800080140CF
:1010600070B50024FFF7C2FF4FF48055124E04E024
:10107000641CE4B2012000F02FF82946304600F04D
:10108000E5FC10B1642CF3D30FE0642C0DD20024E6
:1010900004E0641CE4B2012000F01EF8294630464A
:1010A00000F0D4FC18B1642C04D3012070BD642C72
:1010B000EFD3FAE7002070BD00080140704770B51B
:1010C000054600244FF47A7603E0304600F004F839
:1010D000641CAC42F9D370BD30B50C4A00211468D1
:1010E000E36A4FF47A725843B0FBF2F5626A606AC1
:1010F0009042FCD002D9A0EB020202E0A3EB020274
:10110000024411440246A942F1D330BDE404002058
:1011100072B6FEE730B5B3F5804F05D06FF0704181
:1011200040F82210002030BD8C690B688D68234385
:101130004C688989240144EA0524234343EA014198
:1011400050F82230014C23401943E9E70000F0CF6A
:1011500010B50A6850F8223023F0010340F822301D
:101160008B68082B23D000224C681C43CB681343A8
:101170000A691C4314434A698B691443CA691443BE
:101180000A6A14434A6A14438A6A1443CA6A1443B3
:101190000A6B14434A6B234309681A43054C50F801
:1011A0002130A343134340F82130002010BD4022DA
:1011B000DAE700007FFF0F0030B5D1E9003443EAE1
:1011C00004138C688D89240244EA054423430C8A65
:1011D000074D00EB820005EB045423430C7D6D01A9
:1011E00005EB0464896923430B434360002030BD51
:1011F0000000F0FF10B5144603F01AF82046BDE8D1
:10120000104003F06FB9000010B503A1FFF79CFA7E
:10121000002800D0012010BD2B4950442C000000B4
:1012200070470000F8B50023009390F824201C4676
:10123000012A12D0012280F824204A681F26072A9A
:101240000DD205686F6B521E02EB82029640B743C7
:101250000E68964037436F6319E00220F8BD0568B9
:101260000D2A0AD22F6BD21F02EB82029640B7439F
:101270000E68964037432F6309E0EF6A0D3A02EBA0
:1012800082029640B7430E6896403743EF620A6881
:10129000072605680A2A0AD3EF680A3A02EB4202D7
:1012A0009640B7438E6896403743EF6008E02F6959
:1012B00002EB42029640B7438E68964037432F6157
:1012C0000A68102A01D0112A20D1124D0268AA42C0
:1012D00017D195682D0219D4956845F400059560DD
:1012E0000968102912D10C490C4A0968B1FBF2F1C6
:1012F00001EB8101490000E0491E00910029FBD16A
:1013000004E0816A41F020018162012380F82440D9
:101310001846F8BD002401403800002040420F006C
:10132000704770B50446006806684568A90625D56B
:10133000B10723D5A16AC90603D4A16A41F400719B
:10134000A1628168C1F34241072910D1217B71B9A3
:10135000416821F020014160A06A20F48070A06201
:10136000A06AC00403D4A06A40F00100A062204635
:10137000FFF7D6FF21686FF01200086028062ED50F
:1013800070072CD5A06AC00603D4A06A40F40050B0
:10139000A06220688168C1F30231072909D0416841
:1013A000490515D48168C1F34241072910D1217B39
:1013B00071B9416821F080014160A06A20F4805039
:1013C000A062A06AC00503D4A06A40F00100A06238
:1013D0002046FFF725FF21686FF00C0008606806C3
:1013E0000CD5F0070AD0A06A40F48030A0622046F5
:1013F00000F096F821686FF00100086070BD0000F1
:101400002DE9F04104004FF000057FD0A06A0026CE
:1014100028B9E66284F82460204600F083F820466C
:10142000FFF728FCA16AC90600D420B1A06A40F0E9
:101430001000A0626AE0A16A21F4885141F0020123
:10144000A162334923688B42E16904D1B1F5402F91
:1014500001D14FF40021277B4FF4807C41EA470201
:1014600061680A43A168614508D0012906D00021BE
:1014700094F814E0BEF1010F02D00AE06146F7E7EC
:10148000C7B1A76A47F02007A762E76A47F00107DC
:10149000E7625F6827F469470F435F6021688B68E4
:1014A0001C4F3B4013438B60A16861450BD0012961
:1014B00009D00CE0DFF860E0A7690EEB47370F4377
:1014C00047F40061E5E7218A0D05A5F5801521683F
:1014D000CB6A23F470032B43CB62216889680F4BDE
:1014E0001940914208D1E662A16A21F0020141F05F
:1014F0000101A162BDE8F081A06A20F0020040F085
:101500001000A062E06A40F00100E0620120F1E713
:10151000003C0140FDF7E1FF00E0FFFFFE0E1FFF72
:101520007047000000B585B0002100910191029143
:10153000039100681249884220D11248816941F420
:1015400000718161816901F400710491816941F048
:10155000040181618069694600F00400049006205E
:10156000009003200190084800F078F9002205213E
:10157000122000F095FD122000F084FD05B000BDA2
:1015800000240140001002400008014070B50446EC
:1015900090F8240001280DD0012084F82400204672
:1015A000FFF792FB01004FF0000205D084F82420E1
:1015B000084670BD022070BDA06A40F601639843E2
:1015C00040F48070A062224D2068224BA84218D1BE
:1015D0001E6816F4702F14D0A66A46F48016A66210
:1015E0001E68760505D5A66A26F4005646F4805690
:1015F000A662A66AF6040AD5E66A26F00606E66240
:1016000006E0A66A26F48016A6624668E9E7E2626A
:1016100084F824206FF0020202602068426842F0E1
:101620002002426020688268C2F34242072A05D144
:10163000A84208D11A6812F4702F04D0826842F4CC
:1016400080128260B4E7826842F4A002F9E70000E9
:10165000002801400424014004F002BD10B590F8B8
:1016600021100022022905D00421816380F8202066
:10167000012010BD01680B6823F00E030B600168A8
:101680000B6823F001030B6090F84030012404FA4A
:1016900003F1C36B596080F8214080F82020104688
:1016A00010BD00002DE9F05F90F821100024022900
:1016B00003D004218163012485E001680A6822F0D7
:1016C0000E020A6001680A6822F001020A603F4EB9
:1016D0003E4FB215DFF8F4C0DFF8F090DFF8ECA071
:1016E000DFF8E8B0DFF8E4E00168783F13011502A5
:1016F000ACF1640CA9F15009AAF13C0AABF1280B3A
:10170000AEF1140E4FF48018B14227D9B9420ED071
:10171000614512D049451DD0514518D0594518D0C2
:10172000714501D1424615E0294EB14201D1012255
:1017300010E0274E1436B14201D110220AE0244EA7
:101740002836B14206D0224A3C32914201D11A4693
:1017500000E02A461E49091F0A602BE0B94213D057
:10176000614517D0494522D051451DD059451DD05E
:10177000714501D142461AE0B14202D14FF0807268
:1017800015E0134EB14201D1012210E0104E143683
:10179000B14201D110220AE00D4E2836B14206D0E6
:1017A0000B4A3C32914201D11A4600E02A460749D1
:1017B00080394A60012180F82110002180F8201032
:1017C000416B01B188472046BDE8F09F8000024090
:1017D0000804024090F821007047000030B585B041
:1017E00000200090019002900390174801680029A2
:1017F00027D1012101601548416941F4807141619F
:101800004069022400F48070049041F20100CDE9A7
:1018100000040325694603950D4800F01FF84FF6B4
:101820008070CDE90004694603950A4800F016F877
:101830004CF23370CDE9000469460395064800F088
:101840000DF805B030BD000000000020001002407F
:101850000020014000180140001401402DE9F84F1C
:10186000DFF8C0910024A9F1040B23464FF00F08C4
:1018700009F1040AABF1040ECCE00127A7403A407D
:10188000BA4272D1DFF8A0C14D68A5EB0C066545E0
:101890002BD00DDC032D34D005DC35B3012D19D050
:1018A000022D2FD11BE0112D16D0122D2AD119E0B7
:1018B000B6F5881F19D006DCB6F5803F15D0B6F511
:1018C000801F1FD111E0B6F5001F0ED0B6F5041F22
:1018D00018D10AE0CB6815E0CB681B1D12E0CB687D
:1018E00008330FE0CB680C330CE08B682BB1012B75
:1018F0004FF0080303D0476104E0042302E00761CE
:1019000000E00023FF2A01D8064601E000F10406AA
:101910004FEA840501D9A5F12005376808FA05FCCE
:1019200027EA0C0703FA05F547EA050737604D6813
:10193000ED006ED53D4DAE6946F00106AE61AD6974
:1019400024F0030605F001050095394D7719BE68AE
:10195000A5072D0F08FA05FC26EA0C06DFF8D4C00F
:10196000604503D14FF0000C25E052E0DFF8C8C01D
:10197000604502D14FF0010C1DE0DFF8C0C06045AA
:1019800002D14FF0020C16E0DFF8B4C0604502D17E
:101990004FF0030C0FE0DFF8ACC0604502D14FF010
:1019A000040C08E0DFF8A0C0604502D14FF0050C40
:1019B00001E04FF0060C0CFA05FC4CEA060CC7F8E7
:1019C00008C04D68D9F80060ED024D4601D51643B8
:1019D00000E096432E604D68DAF80060AD0255468F
:1019E00001D5164300E096432E604D68DBF8006099
:1019F000AD035D4601D5164300E096432E604D6869
:101A0000DEF80060ED03754601D5164300E096430D
:101A10002E60641C0A6832FA04F57FF42EAFBDE82C
:101A2000F88F00000804014000001110001002406F
:101A30000000014000080140000C0140001001407E
:101A40000014014000180140001C0140806808405B
:101A500000D0012070470AB1016170470904FBE71B
:101A600001488068704700003C00002070477047C4
:101A70002DE9F041016804464A694E6890F83E003D
:101A80000025D743FA050BD4F243D20508D46FF4EE
:101A9000807201254A6121680A6842F400420A60A6
:101AA000B90508D4F143C90505D422686FF4007163
:101AB00045F002055161790525D4F143C90522D4C9
:101AC000638D94F83D10226B202808D13BB9212961
:101AD00010D029290ED0282901D1212A0AD0226824
:101AE0006FF48061516145F00405102806D040284C
:101AF00004D008E0204602F055F804E020680168B0
:101B000041F400710160380508D4F043C00505D4E4
:101B100021686FF4006045F008054861002D07D08A
:101B2000206C284320642046BDE8F04101F0A2BCAF
:101B3000BDE8F0812DE9F047026800215368C66ACC
:101B400090F83E4090F83D50102C12D0402C10D010
:101B5000046C002C7DD05469E443A6077AD4DE439C
:101B6000B60577D4036C03B19169BDE8F04701F085
:101B7000F6BF976951694FF42A0CC9435FEAC178EF
:101B80004FF02A4904D066452AD04E4528D010E0AF
:101B9000DE43B6050DD4C16A614501D1012103E0E0
:101BA000C16A494501D10821C162BDE8F04701F091
:101BB0003DBF0E0716D4DE43B60513D4416CC9B23F
:101BC0001161416B09B1896A29B9816B002907D07C
:101BD000896A002904D00068416841F400614160CD
:101BE000BDE8F0878E0706D4DE43B60503D4BDE812
:101BF000F04701F06FBEFE43526876074FEA02528B
:101C00001DD4002AECDB0A0608D4DA43520505D4B9
:101C1000490705D5BDE8F04701F002BE4907DFD40A
:101C2000D9438905DCD4212D05D0402CD8D1BDE87D
:101C3000F04701F040BFBDE8F04701F0B1BD002A18
:101C4000CEDB4A060BD4DA43520508D4490708D53F
:101C500001E00DE00EE0BDE8F04701F025BD4907C9
:101C6000BED4D9438905BBD4BDE8F04701F0AEBC72
:101C7000916970E7E10606D4D943890503D4BDE82C
:101C8000F04701F0D7BF2826212D27D0292D25D0B8
:101C9000610655D4D943490552D4610752D590F80D
:101CA0003D10438D002B9BD01269436A1A70426A23
:101CB000521C4262428D521E4285428D002A8FD1B3
:101CC0002A298DD101684A6822F480624A60222163
:101CD000016380F83D6000F04FF981E7210623D4CD
:101CE000D943490520D4610720D590F83D10438D94
:101CF000002BF2D0436A1B781361426A521C426285
:101D0000428D521E4285428D002AE6D12929E4D116
:101D100001684A6822F480624A602121016380F8E8
:101D20003D6000F02AF95BE76107D6D4D943890505
:101D3000D3D4418D0029D0D0416A097811610AE0DD
:101D40006107CAD4D9438905C7D4418D0029C4D0BD
:101D50001169426A1170416A491C4162418D491EF4
:101D600041853DE77047000070B5040025D094F828
:101D70003D00002520B984F83C50204600F0BEF814
:101D8000242084F83D002068016821F001010160F1
:101D90002068016841F4004101602068016821F475
:101DA0000041016000F040FB4D4B6168994201D851
:101DB0004C4900E04C49884201D2012070BD4B499A
:101DC0002268B0FBF1F1566826F03F060E435660DC
:101DD00062689A4206D94FF4967251434FF47A7270
:101DE000B1FBF2F12268491C166A26F03F06314326
:101DF00011626168994210D84900401EB0FBF1F2AF
:101E0000521CC2F30B02042A01D2042022E0B0FBD0
:101E1000F1F0401CC0F30B001CE0A268F2B301EB30
:101E2000C10303EB0116431EB3FBF6F35B1C43F443
:101E300080431B0549D092B301EBC10202EB0111B3
:101E4000401EB0FBF1F0401CC0F30B0040F480409A
:101E500040F400402168CA694CF6FF739A4310436E
:101E6000C861D4E9071001432068026822F0C0026B
:101E700011430160D4E9030101432068826848F2FC
:101E8000FF339A4311438160D4E905100143206870
:101E9000C26822F0FF021143C16001E00EE016E0CB
:101EA0002068016841F0010101602564202084F868
:101EB0003D00256384F83E50002070BD01EB4106D3
:101EC000431EB3FBF6F35B1CB3E70120C2E701EB53
:101ED0004101401EB0FBF1F0401CC0F30B00B7E71E
:101EE000A086010080841E0000093D0040420F00D2
:101EF00070477047704770477047000010B586B054
:101F000000210091019102910391006817498842D4
:101F10002AD1174CA06940F00800A061A069694669
:101F200000F008000490C0200090122001900320CF
:101F300003901048FFF792FCE06940F40010E06164
:101F4000E069002200F40010049005211F2000F039
:101F5000A7F81F2000F096F800220521202000F0AD
:101F60009FF8202000F08EF806B010BD005400400D
:101F700000100240000C0140704770470248816821
:101F800002781144816070473C000020074810B57A
:101F9000016841F010010160032000F0A1F80F205A
:101FA00000F006F800F04AF8002010BD00200240C2
:101FB00030B505461C4887B0816941F400618161F4
:101FC000806905A900F400600690684600F00CFAEC
:101FD00000F03AFA1549164AB0FBF1F11548491ECE
:101FE000026040F2E732C26000220261C0E90112E1
:101FF000826100F0D7FD040012D10E4800F01EFEF1
:1020000004000DD1192000F03DF8102D07D2002258
:102010002946192000F044F80748056000E0012433
:1020200007B0204630BD00000010024040420F00C3
:10203000002C0140E4040020400000200F4808B5B7
:10204000816941F001018161816901F00101009123
:10205000C16941F08051C161C069002200F0805027
:1020600000900F21901E00F01BF80549486820F0F1
:10207000E06040F00070486008BD000000100240C1
:1020800000000140002809DB00F01F0201219140FF
:102090004009800000F1E020C0F800117047000006
:1020A000F0B40E4B1B68C3F30223C3F10704042CE6
:1020B00000D904241D1D072D01D2002300E0DB1EE2
:1020C000012606FA04F56D1E0D409D409E40761EC9
:1020D000164045EA0601F0BC04F01AB80CED00E029
:1020E000064A00F0070110684FF6FF03184040EA67
:1020F0000120034908431060704700000CED00E028
:102100000000FA05014901200862704700000E42F4
:1021100010B501460020284C04292FD00BDC0129E2
:1021200030D0022929D100F08FF96168C1F38131E3
:10213000491C49001FE0082920D010291DD16168E1
:102140002268D20119D51D48C1F38342C903805CBE
:102150000AD56168194AC1F34041921E515C184A80
:10216000B2FBF1F1484301E0164948436168490276
:1021700003D440000321B0FBF1F010BDBDE81040D6
:1021800000F072B9216AC1F30122012A03D1890743
:1021900001D5D00310BD022A05D1616A890702D595
:1021A00049F6404010BD032AFCD121688903F9D5C6
:1021B0004FF2244010BD0000001002401CE602084F
:1021C00000127A0000093D002DE9F843044600782A
:1021D000344FC00752D0F8690025C00008D4F86910
:1021E00040F08050F861F869012500F080500090BF
:1021F0002D480168C90511D40168804641F48071F9
:102200000160FFF72DFC064604E0FFF729FC801B68
:10221000642822D8D8F80000C005F6D5386A10F432
:10222000407020D0A18801F4407181421BD0386AEF
:102230001E49012220F440700A6000220A603862C0
:10224000C00710D0FFF70CFC064641F2883807E0C3
:10225000FFF706FC811B414502D90320BDE8F88346
:10226000386A8007F4D5386A616820F44070084302
:1022700038621DB1F86920F08050F861207880073D
:1022800005D57868A16820F440400843786020783C
:10229000C00605D57868616920F48000084378603D
:1022A0000020DBE700100240007000404004424282
:1022B0002DE9F0470D46040067D0DFF81881D8F803
:1022C000000000F00700A8420CD2D8F8001021F05E
:1022D00007012943C8F80010D8F8000000F00700F3
:1022E000A84252D120683C4E810712D5400703D541
:1022F000706840F4E06070602078000703D5706873
:1023000040F4605070607068A16820F0F0000843ED
:1023100070602078C00727D06068012810D031682D
:10232000022810D0890700292FDA716821F00301F3
:1023300001437160FFF794FB074641F288390CE0D6
:1023400031688903EFE78901EDE7FFF789FBC11BDE
:10235000494502D90320BDE8F0877068616800F044
:102360000C00B0EB810FF0D1D8F80010404601F01E
:102370000701A9420BD9016821F007012943016037
:10238000006800F00700A84201D00120E3E72078B0
:10239000400705D57068E16820F4E060084370608C
:1023A0002078000706D57068216920F4605040EA63
:1023B000C100706000F058F87168084AC1F3031159
:1023C000515CC8400649086006480068FFF7F0FD08
:1023D0000020C0E70020024000100240F0E50208A3
:1023E00038000020400000200F2202600C4A536891
:1023F00003F003034360536803F0F0038360536802
:1024000003F4E063C36052684FF4E06303EAD2026E
:1024100002610448006800F007000860704700008F
:102420000010024000200240044805490068496845
:10243000044AC1F30221515CC840704738000020B3
:102440000010024000E60208044805490068496897
:10245000044AC1F3C221515CC840704738000020D3
:102460000010024000E602080E4B59680E4801F0C9
:102470000C02042A11D0082A0FD10C48C1F3834260
:10248000C903805C0AD55968084AC1F34041921ECD
:10249000515C054A5043B0FBF1F070470449484392
:1024A000704700000010024000127A000AE602089D
:1024B00000093D002DE9F84F04006FD02078BE4D93
:1024C000C00747D06868C0F38100012807D068685A
:1024D000C0F38100022809D16868C00306D52868C6
:1024E000800337D560680028E7D033E06068B0F536
:1024F000803F0BD010B1B0F5A02F11D0286820F488
:1025000080302860286820F4802002E0286840F4A9
:1025100080302860606888B1FFF7A2FA064609E0BB
:10252000286840F480202860F0E7FFF799FA801BC4
:10253000642873D828688003F7D50BE0FFF790FA7A
:10254000064604E0FFF78CFA801B6428F1D828685F
:102550008003F7D42078DFF8648280074FF0010A07
:102560004FF0000939D5686810F00C0F07D0686883
:10257000C0F38100022809D16868C00306D4286826
:10258000800714D52069012808D110E02069B0B176
:10259000C8F800A0FFF764FA064605E007E1FFF778
:1025A0005FFA801B0228C4D828688007F7D52868FE
:1025B000616920F0F80040EAC10028600DE0C8F829
:1025C0000090FFF74DFA064604E0FFF749FA801B3A
:1025D000022823D828688007F7D4207800072CD554
:1025E0007748A169D9B1C0F800A0FFF739FA0646CB
:1025F00004E0FFF735FA801B02280FD8686A8007CD
:10260000F7D570484FF4FA510068B0FBF1F0009034
:1026100000BF0098411E0091FAD20EE07CE0C0F8A5
:102620000090FFF71DFA064604E0FFF719FA801B39
:10263000022871D8686A8007F7D4207840075BD5F4
:10264000E8690027C00008D4E86940F08050E861DC
:10265000E869012700F0805000905B480168C905D7
:1026600011D40168834641F480710160FFF7F8F9E5
:10267000064604E0FFF7F4F9801B64284CD8DBF829
:102680000000C005F6D5E06801280AD008B1052889
:1026900013D0286A20F001002862286A20F0040084
:1026A00002E0286A40F001002862E06841F2883BBD
:1026B00088B1FFF7D5F9064609E0286A40F0040022
:1026C0002862EEE7FFF7CCF9811B59455BD8286AF1
:1026D0008007F7D50BE0FFF7C3F9064604E0FFF7E4
:1026E000BFF9811B59454ED8286A8007F7D41FB11E
:1026F000E86920F08050E861E069A8B36968C1F337
:102700008101022946D00228484606D0C8F8600058
:10271000FFF7A6F9044639E035E04746C8F86000FF
:10272000FFF79EF9064604E0FFF79AF9801B02289E
:1027300029D828688001F7D4206AB0F5803F05D1F8
:102740006868A16820F4003008436860D4E9080193
:102750000843696821F4741108436860C7F860A0F1
:10276000FFF77EF9044605E023E0FFF779F9001B47
:10277000022808D828688001F7D51AE0FFF770F919
:10278000001B022802D90320BDE8F88F28688001C9
:10279000F4D40EE00128F7D06868226A00F4803192
:1027A000914204D1616A00F47010884201D0012086
:1027B000EAE70020E8E70000001002400000424283
:1027C000800442423800002000700040024850F867
:1027D000210080B270470000006C0040024800EB0E
:1027E000810091B201607047006C004070477047F3
:1027F00010B5044600680168C90717D04168C907C9
:1028000014D040684007204607D5FFF7F0FF216845
:102810006FF004004860042002E0FFF7E7FF0120AA
:1028200060742068416821F00101416010BD000022
:1028300070B5040003D0607C002610B105E00120D3
:1028400070BD2674204600F03DF8022060742046DA
:1028500000F016F9042550BB204602F0C1FB30BB46
:102860002068416821F007014160A06820B1144848
:10287000016821F0010101601148001F0168A26890
:1028800021F46071114301606068411C04D1012092
:10289000FFF73EFC58B1401E2268C0F3034191602F
:1028A000216880B2C860204602F0B4FB08B16574AC
:1028B000C5E7E67301206073A0736074002070BDEB
:1028C000306C004008B500680D49884217D1FFF709
:1028D00019FC0C48C16941F00061C161C0690A4935
:1028E00000F0006000900120086000220521032014
:1028F000FFF7D6FBBDE808400320FFF7C3BB08BDC8
:1029000000280040001002403C0442422DE9F04102
:102910000D4604003BD0C5B3207C01283AD04FF0CF
:10292000010884F8108002206074E87872B302F025
:102930004EFBE073687802F04AFB6073A87802F0FF
:1029400046FBA073C2B2617BE07B02F09AFB20736E
:102950002870204602F085FB4FF46161B0FBF1F175
:10296000002518292DD91822B1FBF2F1A1EB011194
:1029700001EB4101C1EB011100EBC11631462046CC
:1029800002F0BEFB0427C8B90BE000E004E0012020
:10299000BDE8F0810220FBE7E07368786073A878F7
:1029A000CFE7204602F056FB411C0AD0B04208D2C5
:1029B00006490144204602F08FFB10B1677425746C
:1029C000E5E784F8118025740020E1E780510100DB
:1029D0002DE9F0410D46040024D01DB3207C0128D0
:1029E00023D04FF0010884F8108002206074F2B107
:1029F000287802F0ECFA4FF4616100FB01F6687888
:102A000002F0E5FAC0EB001006EB8006A87802F0B1
:102A1000DEFA35182946204602F072FB002604270C
:102A200018BB10E00120BDE8F0810220FBE7297807
:102A30004FF4616041436878C0EB001001EB800007
:102A4000A9784518E6E72068416821F00501416052
:102A5000204602F0FFFA411C0AD0A84208D20749DA
:102A60000144204602F038FB10B167742674D9E7A0
:102A700084F8118026740020D5E700008051010001
:102A800070B504000AD02068416821F00801416057
:102A9000FEF7E6FF05464FF47A7608E0012070BDA8
:102AA000FEF7DEFF401BB04201D9032070BD206855
:102AB00040680007F4D5002070BD70B515460E467D
:102AC000040007D0A069B0F5807F03D094F84100DE
:102AD00010B107E0012070BD002084F840002046BE
:102AE00000F01DF804F108012068FEF731FB3146C3
:102AF000A2682068FEF760FBD4E901022946236B37
:102B0000FEF708FBA168206850F8212042F001027E
:102B100040F82120012084F84100002070BDFEF71C
:102B20005DBE70477047000070B590F83C20012AE8
:102B30002CD0012580F83C50022280F83D2002680C
:102B40005368946823F070060B6833435360104B4E
:102B500002689A420ED00F4B9A420BD0B2F1804FCE
:102B600008D00D4B9A4205D00C4B9A4202D00C4B28
:102B70009A4204D1496824F080031943916080F897
:102B80003D50002180F83C10084670BD022070BD09
:102B9000002C0140003401400004004000080040C7
:102BA000000C004010B5040003D094F83D0010B1B3
:102BB00007E0012010BD002084F83C00204600F012
:102BC0001FF8022084F83D00211D206802F00AFB56
:102BD000012084F8460084F83E0084F83F0084F821
:102BE000400084F8410084F8420084F8430084F8EF
:102BF000440084F8450084F83D00002010BD00002A
:102C000008B500680B49884212D10B48C16941F0F0
:102C10000201C161C069002200F00200009005219C
:102C20001D20FFF73DFABDE808401D20FFF72ABA36
:102C300008BD0000000400400010024090F83D1064
:102C4000012901D001207047022180F83D10016860
:102C5000CA6842F00102CA6000680E4988420ED07C
:102C60000D4988420BD0B0F1804F08D00B49884203
:102C700005D00B49884202D00A49884204D18168B4
:102C800001F00701062903D0016841F0010101604C
:102C900000207047002C0140003401400004004037
:102CA00000080040000C004070B5044690F83C005D
:102CB0000025012817D0012684F83C60022084F802
:102CC0003D002068826822F0770222F47F42826011
:102CD0000868502838D00DDC20284FD005DC90B390
:102CE000102811D14AE0022070BD302846D040287B
:102CF0000AD13BE060282FD070280DD0B0F5805F5E
:102D000003D0B0F5005F12D0012584F83D600020AB
:102D100084F83C00284670BDCB68D1E901212068C9
:102D200002F0AEFA2068816841F0770109E0CB68D3
:102D3000D1E90121206802F0A3FA2068816841F4FA
:102D400080418160E1E719E0CA684968206802F0C3
:102D5000A9FA5021206806E0CA684968206802F094
:102D6000B2FA6021206802F095FACEE7CA68496895
:102D7000206802F097FA40212068F4E722680146B3
:102D80001046F0E770472DE9F04104460068C66838
:102D900005694FF00007A90713D5B10711D5F91E32
:102DA000016101202077206880698007204602D0D9
:102DB000FFF7E8FF04E000F07EF8204600F07CF822
:102DC0002777680716D5700714D521686FF00400BF
:102DD0000861022020772068806910F4407F204637
:102DE00002D0FFF7CFFF04E000F065F8204600F0C6
:102DF00063F82777280715D5300713D521686FF0BA
:102E000008000861042020772068C06980072046F8
:102E100002D0FFF7B7FF04E000F04DF8204600F0C5
:102E20004BF82777E80616D5F00614D521686FF021
:102E300010000861082020772068C06910F4407FE6
:102E4000204602D0FFF79EFF04E000F034F8204651
:102E500000F032F82777E80708D0F00706D021689D
:102E60006FF001000861204600F028F8280608D518
:102E7000300606D521686FF0800008612046FFF714
:102E800050FE680608D5700606D521686FF0400030
:102E90000861204600F01CF8A8060AD5B00608D53F
:102EA00021686FF0200008612046BDE8F041FFF77F
:102EB00039BEBDE8F08170477047000000680349E3
:102EC000884201D1FFF75AB870470000002C01403A
:102ED0007047704770470000F8B5016804460868FD
:102EE000CA684B6910F00F0F4FF0000559D003F07E
:102EF000010602F49077374365D0C10705D0D105AC
:102F000003D5616C41F001016164410705D5D90722
:102F100003D0616C41F002016164810705D5D907D6
:102F200003D0616C41F004016164010707D502F030
:102F30002001314303D0616C41F008016164616C90
:102F400000293AD0800604D5900602D5204602F02A
:102F500071FF20684069616CC0F38010090700D4DC
:102F600060B3204602F03FFF20684069400621D54B
:102F70002068143050E8001F21F0400140E80012A2
:102F8000002AF5D1E06BA8B16D494163E06BFEF713
:102F900089FB002811D0E06B416B01B0BDE8F04027
:102FA000084783060FD593060DD52046BDE8F840A7
:102FB00002F040BF2046FFF78DFFF8BD2046FFF727
:102FC00089FF6564F8BD266B2023012E7CD1C606DF
:102FD0007AD5D60678D508684868009048694FF0D9
:102FE0000206400640D5E16B086840680004000C0A
:102FF000E8D0A28D8242E5D9E085886920282DD0CD
:1030000020680C3050E8001F21F4807140E8001265
:10301000002AF5D12068143050E8001F21F001018A
:1030200040E80012002AF5D12068143050E8001F53
:1030300021F0400140E80012002AF5D184F8423026
:10304000256320680C3050E8001F21F0100140E893
:103050000012002AF5D1E06BFEF700FB6663A08D3D
:10306000E18D401A81B22AE0A08DE18D401A81B233
:10307000E08D0028A6D00029A4D020680C3050E8AC
:10308000002F22F4907240E80027002FF5D120682D
:10309000143050E8002F22F0010240E80027002FF2
:1030A000F5D184F84230256320680C3050E8002FB9
:1030B00022F0100240E80023002BF5D16663204681
:1030C000FFF707FFF8BDFFE705062BD5150629D545
:1030D00094F841002128F5D1A068B0F5805F01D1B6
:1030E0002069B0B1206A411C2162216800784860E3
:1030F000E08C401E0004000CE084E3D12068C1682D
:1031000021F08001C1602068C16841F04001C160C8
:10311000D8E7206A0088C0F308004860206A801C55
:103120002062E5E74006CDD55006CBD5CA682046DB
:1031300022F04002CA6084F8413000F0FEF8C1E796
:10314000D75D000870B5040004D094F84100002554
:1031500010B106E0012070BD84F84050204600F018
:1031600023F8242084F841002068C16821F400512C
:10317000C160204602F0C0FE2068016921F4904140
:1031800001612068416921F02A0141612068C1681C
:1031900041F40051C1606564202084F8410084F846
:1031A00042006563002070BD70B586B000240094B5
:1031B00001940294039401683248314E02220323A1
:1031C0000515B14226D1816941F48041816181694F
:1031D00001F480410491816941F0040181618069B9
:1031E000294E00F0040004901002CDE90002694667
:1031F00003933046FEF732FBCDE900546946304672
:103200000294FEF72BFB002205212520FEF748FF44
:10321000252031E01D4EB14230D1C16941F48021F9
:10322000C161C16901F480210491816941F01001FB
:1032300081618069CDE9005200F01000CDE90330D2
:10324000134D69462846FEF709FBE814CDE9000452
:10325000694628460294FEF701FB0E49486820F0B3
:10326000300040F0E06040F010004860002205218E
:103270002720FEF715FF2720FEF704FF06B070BDDC
:1032800000380140001002400008014000480040A2
:10329000001001400000014070472DE9F84304464A
:1032A00090F841001F4615460E46202802D0022005
:1032B000BDE8F8838EB185B100206064212084F8D8
:1032C0004100FEF7CDFBA5848146E584A0684FF060
:1032D0002008B0F5805F02D003E00120E8E7206914
:1032E00010B1354600260EE000250CE08021204676
:1032F00002F05EFEA0B9BDB115F8010B216848606F
:10330000E08C401EE084E08C4B464FF000020097BA
:103310000028EBD14FF04001204602F049FE40B1B9
:1033200084F841800320C3E736F8020BC0F308009D
:10333000E4E784F841800020BAE7704702F0A4BEB9
:10334000FEE700004FF4FA7429F0A0FCFDF76EFED2
:10335000FDF786FE01F0CCF818F08EFF1FF09EF806
:103360001FF0C0F82AF060FB02F09EFEFDF752FD50
:1033700004A0FDF755F8002029F0E8FA204624F0D3
:10338000CBF8E1E748656C6C6F20576F726C642175
:103390000D0A00000148FEF76BBB0000A4030020EB
:1033A0000148FEF7C7BB0000A403002038B5406AFF
:1033B000002290F83D302A490C6846F2A811B4FB6F
:1033C000F1F1C1EBC10101EB8101009139B1491E5D
:1033D000009101680968890505D50099F6E7016C37
:1033E00041F020010164416B01B18A62816B01B13E
:1033F0008A6201680C6824F480640C604285416B29
:1034000001B14A63816B01B14A6301680C6824F021
:1034100001040C6090F83D402021602C0AD0282443
:1034200034EA03030ED080F83D1080F83E20FEF70A
:1034300099FC38BD80F83D1080F83E200264FEF70C
:1034400015FB38BD01680B6843F001030B60016890
:103450000B6843F480630B60026380F83D40E6E74D
:103460003800002000684169C943090601D40021E1
:103470000161704770B5044690F83D0094F83E1025
:10348000102901D0402906D1222804D121680A68D8
:1034900022F400620A60282131EA00024FF00005A0
:1034A0004FF0200626D021684968090505D4602818
:1034B00003D084F83D6084F83E502563206841685D
:1034C000090537D5416821F400614160606B90F8CF
:1034D00021203C49012A11D04163606BFEF7E2F8DC
:1034E00038B32068016821F00101016084F83D6073
:1034F000606B1CE0256384F83D10DFE7A06B41633F
:10350000A06BFEF7CFF8A0B120684169C943490616
:1035100005D40069616A0870606A401C60622068B6
:10352000016821F00101016084F83D60A06B416BEE
:10353000884710E094F83D10602910D04169C943D4
:10354000490605D40069616A0870606A401C6062BF
:103550002046FEF707FC206CC1071CD115E084F85B
:103560003D6025644169C943490605D40069616A23
:103570000870606A401C60622068016821F00101E7
:1035800001602046FEF772FAE5E7810703D44107A0
:1035900001D4000704D52068416821F4E06141604E
:1035A00094F83D00216C49070BD5282809D106481D
:1035B000E062256384F83D6084F83E502046FEF7C3
:1035C00097FC70BDAD3300080000FFFF10B5C26A64
:1035D000438D0168042B06D0438D032B08D0438D07
:1035E000022B1DD012E04A6822F480624A600CE08F
:1035F0004B6823F480634B60042A06D0022A04D06F
:1036000001680A6822F480620A6001680969426AF6
:103610001170416A491C4162418D491E418510BDAE
:10362000012A34D0102A32D0042A34D0022A32D0CF
:103630000B6843F400730B6001680969436A1970F1
:10364000416A491C4162438D5B1E438503681B69C7
:103650000B70416A491C4162418D491E41850168D8
:103660004B6823F440734B60202180F83D1090F8A4
:103670003E300021402B80F83E1010D0082A02D0A6
:10368000202A00D012210163FEF733FC10BD0B6825
:1036900023F48063CFE70B6843F48063CBE70163D7
:1036A000FEF729FC10BD000038B590F83D10222926
:1036B00010D1C36A418D03290DD901680969426A95
:1036C0001170416A491C4162418D491E4185418DFD
:1036D000032906D038BDC26A022A02D0012906D0C9
:1036E00029B10068416821F48061416038BD2B49EF
:1036F00046F2A812002409682025B1FBF2F101EB83
:10370000810100910168009A521E009226D00A6839
:103710009205F8D40A6822F480620A6001684A6857
:1037200022F4E0624A6001680969426A1170416AE4
:10373000491C4162418D491E418580F83D5090F8F9
:103740003E1080F83E40402921D0082B23D0202B6A
:1037500021D012210163FEF7CCFB38BD026C42F090
:10376000200202644A6822F4E0624A600168096942
:10377000426A1170416A491C4162418D491E41856E
:1037800080F83D5080F83E40FEF7ECFA38BD046307
:10379000FEF7B1FB38BD0463DDE700003800002010
:1037A00010B5C16A90F83D20212A0BD1428D52B14B
:1037B000416A026809781161416A491C4162418D80
:1037C000491E418510BD20230022082912D020293E
:1037D00010D011F5803F0DD001684C6824F4E064EE
:1037E0004C601121016380F83E2080F83D30FEF7E7
:1037F00081FB10BD01684C6824F4E0644C600168F2
:103800000C6844F400740C60026380F83D3090F85A
:103810003E1080F83E204029E9D1FEF76DFB10BD37
:1038200010B590F83D2090F83E30C16A048DB4B1D7
:10383000212A03D0402B11D1222A0FD1418DE9B387
:1038400090F83E10402940D0416A02680978116121
:10385000416A491C4162418D491E418510BD212AA2
:10386000E8D120230022082912D0202910D011F5F8
:10387000803F0DD001684C6824F4E0644C60112155
:10388000016380F83E2080F83D30FEF733FB10BD29
:1038900001684C6824F4E0644C6001680C6844F4EE
:1038A00000740C60026380F83D3090F83E1080F8A0
:1038B0003E204029E9D1FEF71FFB10BDFFE700685D
:1038C000416821F480614160F7E7BDE8104000F0F5
:1038D000F2B8000078B590F83E40C26A056B90F8E7
:1038E0003D6000230168222E73D1066D0EB9402C75
:1038F0006FD0046D1CB90469B4F5404F1BD0448DE2
:1039000094B3468D484C012E20D0458D022D4DD0CC
:103910000D6845F480650D6001684D682D0579D509
:10392000A24273D0012A71D0082A6FD0102A6DD01C
:10393000202A6BD06EE04A698A6900920A6842F4D4
:1039400080720A60016D491C016578BDA24214D1E4
:103950000A6822F480620A6001684A68120504D588
:103960000A6822F4806217E0FFE74A698A690092D8
:103970000A6842F400720A6050E0082A10D0202A37
:103980000ED0122D0AD0042A03D0022A01D0102A08
:10399000E6D10A6842F480620A603BE0012ADFD087
:1039A0000A6822F480620A600168DEE7042A11D006
:1039B000022A0FD0102A0DD00D6845F400650D6065
:1039C00001684D698D6900950D6825F480650D606D
:1039D00008E025E00D6845F480650D6001684D69DB
:1039E0008969009101684D682D0517D5A24207D05D
:1039F000012A05D0082A03D0102A01D0202A0DD18F
:103A00004A6842F480524A6008E0FFE74A6842F49C
:103A100080524A6001684A6989690091036578BDEE
:103A200048698869009078BD0000FFFF90F83E105B
:103A300040290FD00169B1F5804F18D0016DA1B3B5
:103A4000016D01290FD1416CF12201F4407142EA6C
:103A5000D11106E0016D0029416C05D0C9B241F0D9
:103A6000010100680161704701F0FE01F9E790F87B
:103A70003D102129416C09D0C9B241F00101026811
:103A80001161416B29B1896A49B902E001F0FE0177
:103A9000F5E7816B0029E6D0896A0029E3D0006848
:103AA000416841F4006141607047FFE7416CF022DA
:103AB00001F44071CBE710B590F83D10026D4AB1AA
:103AC000026D012A14D0026D022A16D0BDE8104002
:103AD000FFF7C8BCC16C0129816C02D0C1F307217A
:103AE00008E00268C9B21161016D891C016510BD51
:103AF000816CC9B20268116123E022291CD0428D79
:103B00000AB1212920D0428D002AF0D12129EED1FD
:103B100001684A6822F4E0624A6001680A6842F477
:103B200000720A6000210163202280F83D2080F8A5
:103B30003E10FEF7E1F910BD01680A6842F4807298
:103B40000A60016D491CD1E7416A02680978116178
:103B5000416A491C4162418D491E418510BD38B5FD
:103B60000D4690F83D2000212824944302680B461E
:103B700005D051699169009180F83C3038BD546896
:103B800024F480645460EA43540700D501211206EE
:103B900001D5828900E0028B80F83C3092B2FDF7BB
:103BA00066FF38BD2DE9F04190F83D200446C16A1A
:103BB000002520261E4F00686FF48063082901D07D
:103BC000202901D1282A04D0212A17D04361BDE839
:103BD000F081E762416821F4E0614160206843615F
:103BE0002068016821F480610160256384F83D60EC
:103BF00084F83E502046FEF77BF9E8E7E762212192
:103C0000216384F83D6084F83E50416821F4E0610E
:103C10004160206843612068016821F4806101608F
:103C20002046FFF71FFC2046FEF7A7F9CFE700006C
:103C30000000FFFFF8B590F83D5004460068416869
:103C400021F4E0614160206800264169009101682B
:103C500041F0010101602068016821F48061016088
:103C600020684168090520D5474F222D48D02A2DCC
:103C700046D0616B096849686185618D19B1216C15
:103C800041F004012164416821F400614160606BEE
:103C9000FDF7A0FD012808D0606B4763606BFDF75E
:103CA00001FD10B1606B416B8847608D08B32068DF
:103CB0004169C943490708D40069616A0870606AAC
:103CC000401C6062608D401E608520684169C94368
:103CD000490608D40069616A0870606A401C606225
:103CE000608D401E6085608D18B1206C40F004002E
:103CF0002064206C00B32046BDE8F840FFF7BABB53
:103D0000A16B096849686185618D19B1216C41F029
:103D100004012164416821F400614160A06BFDF75A
:103D200059FD0128C1D0A06B4763A06BFDF7BAFC19
:103D30000028BAD0A06BB6E72A2D06D1266328202A
:103D400084F83D002046FEF717F994F83D10202036
:103D500028290DD0216B222901D0222D07D12663DD
:103D600084F83D0084F83E602046FEF705F9F8BD72
:103D70000649E162266384F83D0084F83E602046EF
:103D8000FEF7B6F8F8BD0000AD3300080000FFFFF5
:103D900070B50D4C0025C4F8A8510C48016821F0FD
:103DA00070410160016841F040510160C4F8AC51BC
:103DB000022004F5D474FDF78FF901202060022061
:103DC000FDF78AF9256070BD00802142000C01409A
:103DD00070B50D4C0026C4F8A8610C48016821F0AC
:103DE00070410160016841F0405101600125C4F853
:103DF000AC51022004F5D474FDF76EF92560022061
:103E0000FDF76AF9266070BD00802142000C014078
:103E10002DE9F047814617480024016821F07041E0
:103E20000160016841F000410160134E25462746BC
:103E30004FF00108C6F8A8710220FDF74DF9C6F849
:103E4000A8816006040ED6F82C0108B1641CE4B207
:103E50000120FDF741F96D1CEDB2082DEAD3B9F14F
:103E6000000F04D0FFF794FF2046BDE8F087FFF76E
:103E7000AFFFF9E7000C0140008021422DE9F0413D
:103E800005461448016821F070410160016841F065
:103E900040510160104E0027C6F8A8713C464FF013
:103EA0000108E809C6F8AC016806050E0220FDF716
:103EB00013F9C6F8A8810220FDF70EF9C6F8A8711B
:103EC0000220FDF709F9641CE4B2082CE9D3BDE82F
:103ED000F0810000000C01400080214270B50D48C7
:103EE000016821F070410160016841F040510160BA
:103EF000094C0120C4F8AC01C4F8A801042004F561
:103F0000D474FDF7E9F8002565600420FDF7E4F8B6
:103F1000256070BD000C0140008021420E4810B5A4
:103F2000016821F070410160016841F04051016079
:103F30000A4C0020C4F8A801C4F8AC01042004F520
:103F4000D474FDF7C9F8012020606060BDE810401E
:103F50000420FDF7C1B80000000C014000802142A0
:103F600070B513480024016821F0704101600168B8
:103F700041F0004101600F4D0126C5F8AC613046AB
:103F8000FDF7AAF8C5F8A8610120FDF7A5F807E03C
:103F9000641CE4B2FA2C03D9FFF7C0FF012070BD06
:103FA000D5F82C010028F3D1C5F8A80170BD000098
:103FB000000C01400080214230B505460A480488C3
:103FC000408821464443491E401E8AB283B20021E4
:103FD000084600F031F90021044801E00580491C41
:103FE000A142FBD330BD0000A00D00200008006CF2
:103FF0002DE9FE4F0026A2EB000882465F1A701ED4
:1040000035468946B8F1000F02DD4FF0010102E0AC
:1040100003D14FF00001019102E0C8F100080190C6
:10402000002F02DD4FF0010002E003D14FF000004D
:10403000009002E0C7F1000700904046B84501DD5E
:10404000044600E03C46601C4FF0000B029015E077
:104050001FFA89F11FFA8AF000F016F846443D4431
:10406000A64202DD0199361B8A44A54202DD009971
:104070002D1B89440BF101001FFA80FB02998B452F
:10408000E6DDBDE8FE8F000000B500F0D1F8024883
:1040900002490088088000BD880000200008006CEC
:1040A00010B56420FDF70BF85F4CCF202080002175
:1040B000A01C0180C921018030210180ED212180D7
:1040C000642101800321018012210180812101806E
:1040D000E821218085210180102101807A21018041
:1040E000CB212180392101802C21018000210180F8
:1040F0003421018002210180F721218020210180CB
:10410000EA212180002101800180C02121801B2122
:104110000180C121218000210180C5212180302121
:1041200001800180C7212180B721018036212180B3
:10413000082101803A21218055210180B12121806F
:10414000002101801A210180B62121800A210180ED
:10415000A2210180F22121800021018026212180DD
:1041600001210180E02121800F2101802A2101808D
:1041700028210180082101800E2101800821018071
:1041800054210180A9210180432101800A2101805D
:104190000F21018000210180018001800180E12147
:1041A0002180002101801521018017210180072134
:1041B000018011210180062101802B2101805621DF
:1041C00001803C21018005210180102101800F2107
:1041D00001803F21018001800F2101802B2121805E
:1041E000002101800180012101803F2101802A21DD
:1041F00021800021018001800180EF2101801120B8
:1042000020807820FCF75BFF29202080002000F030
:1042100041F9012211460548FDF71DFCBDE810409B
:104220004FF6FF70FFF7C8BEFE07006C000C0140A0
:104230000B460246AFF30080F0B40D4E0D4FB4892B
:104240003C80050ABC1C2580C0B22080100A20805A
:10425000D0B22080F0893880080A2080C8B220803F
:10426000180A2080D8B22080F0BC00F001B900000C
:10427000A00D0020FE07006C2DE9FF4F81B00EAEAF
:10428000824696E83100203800F0FF080298DFF8F7
:10429000E0B02044401E83B20AEB5400BBF800108B
:1042A000401E009182B250460299FFF7C5FF4FF0C1
:1042B00000067DBB2F4908EB480001EB800901F2A5
:1042C000744000EB081817E00C2C03D018F80650C7
:1042D00000270CE019F80650FAE7E80701D0039828
:1042E00000E0049800F0FEF86D087F1CFFB2B7EB09
:1042F000540FF2D3761CF6B2A642E5D327E00C2C7D
:1043000009D01D4800EB08100025875D029800EBDE
:10431000060915E019E0174808EB480100EB810099
:10432000F2E70398ABF80000F80706D00AEB0500A7
:104330001FFA89F180B2FFF7A7FE7F086D1CEDB26E
:10434000B5EB540FEDD3761CF6B2A642D7D3009846
:10435000ABF8000009484188008805B0491EBDE857
:10436000F04F401E8BB282B200210846FFF764BFB7
:10437000880000202CE60208A0EA0208A00D002018
:104380002DE9FF4F83B00027DDF840801D468146B0
:104390003C46BA464FEA5806DFF864B02AE0281BCC
:1043A000401EC1B20A2022F0B7FF0599B1FBF0F020
:1043B0000A21B0FBF1F201FB120027B9691E8C4201
:1043C00001DA40B101273030C0B28DE8010506FBAB
:1043D000049080B205E0202206FB04908DE80405DD
:1043E00080B20849BBF800300A880499FFF744FFFF
:1043F000641CE4B2AC42D2D307B0BDE8F08F000039
:104400008A000020880000202DE9FE4F1C46164639
:104410000F460546DFF84C90DFF84CA0DFF84CB0B3
:10442000DDF8308017E0B9F80020521EAA4217DBF1
:10443000B9F80210491EB94212DB8DE84101BAF801
:104440000030BBF8002039462846FFF715FF05EB82
:10445000560085B2641C2078A0F120015E29E2D9C3
:10446000BDE8FE8FA00D00208A00002088000020FB
:10447000024803490089088070470000A00D002011
:10448000FE07006C024A1080901C018070470000FB
:10449000FE07006C12492A224FF4A0738A812B2256
:1044A000CA812C220A812E224A81F02258B1012889
:1044B0000DD002280FD0032811D10B804A80B821DB
:1044C0003620FFF7DFBF0A804B800821F8E70B801A
:1044D0004A806821F4E70A804B80D821F0E77047D2
:1044E000A00D002001490880704700000008006C02
:1044F0000148FDF74BB800002C0300202DE9FC41DA
:10450000074615460E4600246846009323F0FAFF3E
:1045100060F30704C4F3C00030702009387001A9AB
:10452000009800F0EFF80099019A014400910A44C4
:10453000511A022904DB684623F0EAFF2880012093
:10454000BDE8FC812DE9FC41074600240E462546C6
:104550006846009223F0D6FF0146204661F307002B
:104560000009022819D101A9009800F0CBF80099A0
:1045700005460844019900900144081A02280CDB02
:10458000684623F0BFFF60F3070404F001003870B1
:10459000684623F0B7FF307001252846BDE8FC814E
:1045A0002DE9FC5F8046DDE90EA00024CDE9000482
:1045B000994617460E462546DDF834B0684623F086
:1045C000A1FF60F30704200903282CD1C4F3C00124
:1045D00088F80010C4F34100306004F00100387026
:1045E00001A9009800F08EF8009905460844019949
:1045F00000904418224669460C9823F092FF90B12F
:104600000098201A0FD43068002804DD684623F093
:104610007FFFA9F800000098211ACAF8001000993D
:104620000125CBF800102846BDE8FC9F2DE9FC478A
:1046300082464FF000090A9800901E4614468846AC
:104640004D464F46684623F05DFF60F30705280995
:10465000092826D101A9009800F054F800990746CE
:104660000844019900904518281A022819DB684669
:1046700023F04EFFAAF80000C4F800900DE0216876
:10468000414502DD4FF0FF370BE0684623F03AFF6B
:1046900021688A00491C2160B0500098A842EED3DE
:1046A00001273846BDE8FC873EB5002400920B4642
:1046B00002468DF804408DF8084002A901A8FFF7D2
:1046C0001DFF9DF804100B2900D101203EBDF8B557
:1046D000012400250E4607460D606D1C042D0FDCDD
:1046E00001216846B84701280AD19DF800003168C9
:1046F00000F07F0202FB0411E40131600006ECD4FB
:104700002846F8BD024A10600248FFF7E0BF0000EB
:1047100024030020998A000810B504460020CA1717
:1047200001EB526323F07F02891ACAB2D911002922
:1047300001DD42F08002225400F10100EFDC10BDE7
:1047400070B5024600680D4620B10646FCF732F807
:10475000044601E0D2E901462846FCF72BF88442E2
:1047600005D1224629463046FCF743F808B100201F
:1047700070BD012070BD0000401C802801DA401C83
:104780007047B0F5804F01DA801C704703498842BA
:1047900001DAC01C7047001D70470000FFFF1F00BA
:1047A000F8B50024069E05460090042901DAA01EF3
:1047B000F8BD62F3071463F3C304062A24F006026B
:1047C00000D1921CD1B2684628F07BFB02210098F0
:1047D000FFF7A2FF0099084400903146684628F090
:1047E00076FB0098401BF8BD2DE9F8430646009083
:1047F000884614460025104600F082F88146FFF7EF
:10480000BBFF404502DDA81EBDE8F8832F463946B0
:1048100067F307016846103128F053FB49460098BA
:10482000FFF77AFF009908440090207A04281DD0F1
:104830002FA1684628F031FB0321684628F041FB90
:10484000A07E67F3070560F34105E07E08B145F0FF
:104850000405680707D594F83D0060F3C40594F893
:104860003C0060F34515206C40B905E022A1684684
:1048700028F013FB0421E0E7A06C08B145F08005A7
:10488000E06C08B9606D08B145F0400529466846FE
:1048900028F017FB218B684628F019FB04F10C0166
:1048A00068460EC928F022FBE07E68B124346846D1
:1048B00094E80E00243C28F019FB3034684694E854
:1048C0000E00303C28F012FB280605D504F140010B
:1048D00068460EC928F00AFB680605D54C346846C0
:1048E00094E80E0028F002FB0098801B8CE7000083
:1048F0004D514973647000004D5154540000000044
:1049000070B50446007A0025032802D0042802D09E
:1049100002E00C2500E00A2504F10C0007C800F0B5
:10492000A2F80544E07EAD1C78B1243494E8070079
:10493000243C00F098F83034064694E80700303CF8
:1049400000F091F8304405442D1D206C08B9A16C8D
:1049500029B1D4E9111200F086F80544AD1CE06CD1
:1049600008B9616D29B1D4E9141200F07CF805444E
:10497000AD1C284670BD0C2200F05CB82DE9FF4F3D
:1049800083B08A46DDE910870646002501909346EC
:10499000DDF848902C463946404600F035F8009046
:1049A000FFF7EAFE504503DDA81E07B0BDE8F08F13
:1049B00065F3070580356BF3C30525F00600801C01
:1049C000C1B201A828F07DFADDE90010FFF7A4FECE
:1049D00001990844019001A8069928F078FA0EE0A0
:1049E00004EB440007EB800501A895E80E0028F0D1
:1049F0007DFA19F8241001A828F063FA641C4445D4
:104A0000EEDB0198801BD0E72DE9F04102250E4630
:104A10000746002409E004EB440006EB800007C8C9
:104A200000F021F80544641CED1CBC42F3DB284671
:104A3000BDE8F08138B5002304460090022901DA70
:104A4000981E38BD194663F3070162F307116846E3
:104A500028F037FA00210098FFF75EFE0099014424
:104A6000081B009138BD0200084602D01046FBF733
:104A7000A1BE70473EB500241048009401940294F2
:104A80000D498460016004730475012505614FF4CC
:104A900060214460C161FCF7B3FC08B1FCF738FB4E
:104AA0000095CDE9015469460448FCF7BBFB00289A
:104AB00001D0FCF72DFB3EBD002401402C0300205B
:104AC00001F004BB00B58FB01C2108A8FBF77DFFE7
:104AD0001C2101A8FBF779FF1C484FF02041102250
:104AE00001601B494160062181600021C160C0E96D
:104AF00004128161C16113020162C0E909139302CA
:104B0000C0E90B13416381630F23CDE908130DF155
:104B1000280C1A208CE807001120CDE90D01CDE901
:104B20000113CDE90412CDE906010123039301AA83
:104B300008A90648FDF7C1FF08B1FCF7E9FA0548E6
:104B4000C16941F48061C1610FB000BD5C03002008
:104B5000040100A0000001402DE9F04F85B00024C1
:104B600050480094019402940394816941F010012B
:104B70008161816901F010010491816941F0800136
:104B80008161816901F080010491816941F0040132
:104B90008161816901F004010491816941F008019A
:104BA0008161816901F008010491816941F480719A
:104BB0008161816901F480710491816941F0400152
:104BC0008161816901F040010491816941F0200116
:104BD00081618069012200F02000DFF8CC9055024D
:104BE000049029464846FCF736FFDFF8C0A00022B3
:104BF00001215046FCF72FFF012240F606415046A6
:104C0000FCF729FFDFF8A8B04FF4605701223946BE
:104C10005846FCF720FF4FF48058002241462548B3
:104C2000FCF719FF6810CDE9000469464846029474
:104C3000FCF714FE009501250326CDE902566946CE
:104C400048460195FCF70AFEA8028DE83100694646
:104C50004846FCF703FE0720CDE90005CDE90256E2
:104C600069465046FCF7FAFDB002009001AA1120F7
:104C700082E8610069465046FCF7F0FD0097CDE9F7
:104C80000154694658460395FCF7E8FD0220CDE93A
:104C90000240CDE9008569460648FCF7DFFD05B016
:104CA000BDE8F08F00100240001C0140000C0140E4
:104CB00000140140000801400D4810B50B49016087
:104CC0000C49416000214FF480428160C0E9031229
:104CD00041618161C1610162FDF746F8002803D09E
:104CE000BDE81040FCF714BA10BD000000540040AD
:104CF000A4030020A0860100FEB5002648480096C7
:104D00000196C16941F00061C161C16901F00061B2
:104D10000291C16941F08051C161C069424D00F00A
:104D2000805002903F482860701EC5E90106284661
:104D3000FDF77EFD08B1FCF7EBF901213A48FDF7DC
:104D400045FD45F25107394CB84244D016208DF844
:104D5000000046208DF801008DF8026001226946AE
:104D60003148FDF735FE08B1FCF7D2F902208DF885
:104D7000040008208DF8050027208DF80600242067
:104D80008DF80700012201A92748FDF7BFFD08B1F2
:104D9000FCF7BEF92868016841F001010160019843
:104DA00020603A4601212048FDF718FDE2780221F3
:104DB0001D48FDF713FD627803211B48FDF70EFD2A
:104DC000A27804211848FDF709FD2278052116482C
:104DD000FDF704FDFEBD02211348FDF7F7FCE0706E
:104DE00003211148FDF7F2FC607004210E48FDF725
:104DF000EDFCA07005210C48FDF7E8FC2070206850
:104E00000190002201A90848FDF780FD08B1FCF7D8
:104E10007FF92868016841F001010160FEBD0000D2
:104E20000010024000280040F80300200800002085
:104E300010B586B00024174800940194029403949E
:104E400004941349059401604721C0E9011440F21C
:104E5000E731C0E9031480218161FDF7A3FE08B1A9
:104E6000FCF756F94FF48050009069460948FDF769
:104E70001BFF08B1FCF74CF9049404A905480594FC
:104E8000FDF752FE002801D0FCF742F906B010BD34
:104E9000000400400C0400200C4810B50A490160D1
:104EA0004FF4E1314160002181600C22C160C0E912
:104EB00004128161C161FEF745F9002803D0BDE805
:104EC0001040FCF725B910BD003801405404002003
:104ED00010B5104C0E480C2120604FF4E13060609A
:104EE0000020A060E060C4E90401A061E061204608
:104EF000FEF728F908B1FCF70BF92068016821F0EA
:104F0000200101602068C16841F02001C16010BD2E
:104F1000004800409C040020FEE70000244C0025CF
:104F200025616561A561E56121F0FEF9E060216818
:104F300021F0C2FD6168E06821F052FD0A2023F0F3
:104F400089FA0146E06821F007FD0A2023F082FA81
:104F50000146E06821F0E6FD0A2023F07BFA0146D5
:104F6000E06821F073FD0121E06821F0BBFCE068FE
:104F700020F09CFEB8B900231A460EA1E06821F08B
:104F80006DFE002301220DA1E06821F067FE0023E1
:104F900002220CA1E06821F061FED4E90210002396
:104FA0001A4621F05BFE002027F022FEB8E7000041
:104FB00018000020746F706963310000746F7069AD
:104FC00063320000746F706963330000FEE701090B
:104FD00001EB810100F00F0000EB4100C0B270470F
:104FE00070B50546FCF73CFD04464FF47A7606E0C2
:104FF000FCF736FD001BB04201D9032070BD2868C4
:1050000040688006F4D52868416841F0100141608D
:10501000002070BD70B505460068416821F01001A0
:105020004160FCF71DFD04464FF47A7606E0FCF77C
:1050300017FD001BB04201D9032070BD28684068ED
:105040008006F4D5002070BD0148FDF7D1BB0000FB
:10505000F80300200068016A406A80B240EA01401B
:105060007047006881698AB2C1698BB2816989B26F
:105070008A4203D0C06961F31F40704743EA02408F
:105080007047F0B56426C1EBC1030925B7000724BA
:1050900003EB01130329B3FBF5F100F5FA601144AA
:1050A00001440AD2401EB0FBF6F201EB9001B0FBC6
:1050B000F7F0891A0844001D08E0B0FBF6F201EB96
:1050C0009001B0FBF7F0891A0844801CB0FBF4F1A2
:1050D00004FB1100C0B2F0BD70B50D4606460024B9
:1050E000FFF77EFF48B93168280C08623168A8B222
:1050F00048623046FFF78EFF00B10124204670BDA4
:1051000070B50D4606460024FFF76AFF48B93168BE
:10511000280C88613168A8B2C8613046FFF77AFF71
:1051200000B10124204670BD10B54FF0E0200069A9
:1051300028F046FB012803D0BDE8104027F046BF09
:1051400010BD30B595B028216846FBF73EFC142110
:105150000AA8FBF73AFC18210FA8FBF736FC05203C
:105160004FF4803100248DE8130001200390049057
:105170004FF4E010CDE90810022507956846FDF7C9
:1051800099F908B172B6FEE70F20CDE90A054FF490
:105190008060CDE90C4002210AA80E94FDF788F842
:1051A00008B172B6FEE703200F904FF480701090A4
:1051B0004FF4404011900FA8FDF706F8002801D0E9
:1051C00072B6FEE715B030BD704700000148FDF72C
:1051D000DABD0000E40400200148FDF7D4BD000062
:1051E0000C040020F0B50268204D214E214FDFF85D
:1051F00088C0224B4FF0804EA84209D0984207D079
:10520000704505D0B04203D0B84201D0604503D10B
:1052100022F070044A682243A84209D0984207D07D
:10522000704505D0B04203D0B84201D0604503D1EB
:1052300022F44074CA6822434C6922F0800222435F
:1052400002608A68C2620A688262A84201D09842FB
:1052500001D109690163012141610169C90703D0D5
:10526000016921F001010161F0BD0000002C014045
:105270000004004000080040000C004000340140E1
:1052800010B5846842EA032224F47F440A4322438F
:10529000826010BD826822F070020A4342F007016A
:1052A0008160704710B5046A036A23F0010303624A
:1052B000836923F0F00343EA021324F00A020A434D
:1052C0008361026210BD10B5036A046A24F0100401
:1052D0000462846923F0A00324F4704444EA023297
:1052E00043EA01118261016210BD00002DE9FF4F08
:1052F00081B00D46DDE91087464906464FF47840F7
:10530000DDF838B0DDF8489008809246012442A3C9
:1053100010228C2128200094FFF776F83FA310225A
:105320008C2178200094FFF76FF83DA31022A02174
:1053300028200094FFF768F83AA31022A0217820D3
:105340000094FFF761F838A31022B42128200094BC
:10535000FFF75AF835A31022B42178200094FFF704
:1053600053F833A31022C82128200094FFF74CF8EB
:1053700030A31022C82178200094FFF745F82EA30F
:105380001022DC2128200094FFF73EF8102404238B
:1053900032468C2140200094FEF7F2FF04232A4677
:1053A0008C2190200094FEF7EBFF04235246A021AD
:1053B00040200094FEF7E4FF04230094A0219020F5
:1053C000049AFEF7DDFF04235A46B42140200094DE
:1053D000FEF7D6FF00940423B42190200F9AFEF725
:1053E000CFFF04234246C82140200094FEF7C8FFA7
:1053F00004233A46C82190200094FEF7C1FF0323FE
:105400004A46DC2160200094FEF7BAFF05B0BDE8F3
:10541000F08F00008800002078313A0079313A009E
:1054200078323A0079323A0078333A0079333A00E8
:1054300078343A0079343A006661632069733A003F
:105440002DE9F04FF94D89B01F202880F8484FF61C
:10545000FF770026078034463846FEF7ADFD4FF44F
:105460007848A5F800803846FEF7A6FD00272F8073
:105470000125F0A3102228210A200095FEF7C4FF81
:10548000F3A3102238210A200095FEF7BDFFF7A3F1
:10549000102248210A200095FEF7B6FFFAA3102239
:1054A00058210A200095FEF7AFFFFEA310226821C5
:1054B0000A200095FEF7A8FF14214246084600F096
:1054C00091FAFC48FC4D07758761FA4F0120796815
:1054D0008847387D0121B1EB901F44D120F0400076
:1054E000387505A83A8A20F8262000EB8600761C3D
:1054F0000024798AF6B24180012E06D0022E11D006
:10550000032E1ED0042E2ED13AE014214FF6FF7246
:10551000084600F067FA28884FF47842143880B2C1
:1055200014211EE028884FF6FF72143880B214212F
:1055300000F058FA68884FF47842143881B2142089
:105540000FE068884FF6FF72143881B2142000F023
:1055500049FA68884FF47842143881B228881438A0
:1055600080B200F03FFA0A20FBF7A9FD641CA4B248
:10557000B4F57A7FA9D900F073FA09B0BDE8F08FCD
:10558000BDF81400BDF81810411A00D54942BDF805
:105590001600BDF81A20801A00D540424943404306
:1055A000084428F064FB24F002FB28F033FB86B2A9
:1055B000BDF81C00BDF82010411A00D54942BDF8C5
:1055C0001E00BDF82220801A00D5404249434043C6
:1055D000084428F04CFB24F0EAFA28F01BFB80B2C8
:1055E000804628F009FE0746304628F005FE394679
:1055F00028F0ECFCDFF8C4920746484577DDDFF879
:10560000C0B25F4573DC002E71D0B8F1000F6ED0D0
:10561000BDF81400BDF81C10411A00D54942BDF870
:105620001600BDF81E20801A00D540424943404371
:10563000084428F01CFB24F0BAFA28F0EBFA86B2F2
:10564000BDF81800BDF82010411A00D54942BDF838
:105650001A00BDF82220801A00D540424943404339
:10566000084428F004FB24F0A2FA28F0D3FA80B210
:1056700028F0C2FD0746304628F0BEFD394628F026
:10568000A5FC0746484502DDD846474530DD688819
:105690000026143881B228884FF6FF72143880B281
:1056A00000F0A0F914214FF47842084600F09AF96E
:1056B0008449384628F0B4FD28F066FD80B2BDF874
:1056C0002220BDF82030BDF81E10CDE90320CDE921
:1056D0000113BDF81C000090BDF81A30BDF8182069
:1056E000BDF81610BDF81400FFF700FEEDE63DE032
:1056F000BDF81800BDF81C10411A00D54942BDF88C
:105700001A00BDF81E20801A00D54042494340438C
:10571000084428F0ACFA24F04AFA28F07BFA86B262
:10572000BDF81400BDF82010411A00D54942BDF85B
:105730001600BDF82220801A00D54042494340435C
:10574000084428F094FA24F032FA28F063FA80B280
:1057500028F052FD0746304628F04EFD394628F025
:1057600035FC0746484501DD474522DD68880026AF
:10577000143881B228884FF6FF72143880B200F0D6
:1057800031F914214FF47842084600F02BF94D49C5
:10579000384628F045FD28F0F7FC80B2BDF822100D
:1057A000BDF82030BDF81E20CDE90310CDE901235E
:1057B0008FE7BDF81800BDF8141081468B46401ADB
:1057C00028F002FD2F880646B846A7F1280028F0E9
:1057D000FBFC314628F0FAFB364E8246B06109EBFD
:1057E0000B0028F009FD514628F01AFD8146384685
:1057F00028F002FD494628F0DFFD4FF0FF3128F088
:1058000082FE28F0A5FC3084BDF81610BDF81E00FD
:1058100001908B46401A28F0D7FC6F888146A7F18B
:10582000280028F0D1FC49464EE000008800002006
:105830008A000020506C6561736520757365207463
:105840006865207374796C757320636C69636B0091
:105850007468652063726F7373206F6E207468655F
:105860002073637265656E2E000000005468652029
:1058700063726F73732077696C6C20616C776179E8
:1058800073206D6F76650000756E74696C207468A6
:10589000652073637265656E2061646A7573746DEB
:1058A000656E7400697320636F6D706C65746564F8
:1058B0002E00000060000020A00D00203333733F55
:1058C0006666863F0000C84228F080FBF061814692
:1058D00000900198584428F08FFC494628F0A0FC1D
:1058E0008146384628F088FC494628F065FD4FF08F
:1058F000FF3128F008FE28F02BFC7084504628F079
:1059000027FC002800DA4042022807DC009828F033
:105910001FFC002800DA404202282EDD143FA8F1C7
:1059200014000026B9B280B24FF6FF7200F05AF8A8
:1059300014214FF47842084600F054F801200090FA
:105940001BA310221A212820FEF75EFD1D4991F8A5
:10595000240048B1002081F8240038B11948902172
:10596000001F0170D02106E00120F4E71548D02186
:10597000001F017090214170A7E513491F204FF6C9
:10598000FF7408802046FEF717FB012100910FA34A
:1059900010226E212320FEF737FD4FF47A70FBF7BB
:1059A0008EFB00F06DF92046FEF706FBE5E50000F2
:1059B0005450204E65656420726561646A75737425
:1059C000210000006000002088000020546F7563F3
:1059D000682053637265656E2041646A7573742034
:1059E0004F4B21002DE9F843DFF8709004460D304D
:1059F000A9F8002082B2A4F10C000D4680B20B463B
:105A0000FEF7F6FA05F10D0083B2193881B222468D
:105A10001046FEF7EDFA6E1C04F10108B1B21FFA50
:105A200088F0FEF731FBB1B2661EB0B2FEF72CFB78
:105A30006F1EB9B21FFA88F0FEF726FBB9B2B0B2FA
:105A4000FEF722FB002000900623B9F8002029462B
:105A500020460DF042F8BDE8F883000088000020E1
:105A600070B53520FBF781F90A2801D0002070BD00
:105A700004212820FBF764F928F0A6FB144D2946E1
:105A800028F0A4FA134C0421A0612C20FBF758F94C
:105A900028F09AFB294628F099FAE061022130208B
:105AA000FBF74EF9208402213220FBF749F960848C
:105AB0003420FBF75AF99022211F84F82400D023C8
:105AC00010B10A704B7001E00B704A70012070BD7C
:105AD00020BCBE4C600000200A4910B5881E00F0B2
